:020000040800F2
:10000000D8CC0120B10100081309000875080008C8
:1000100011090008BF020008CD2C000800000000F4
:100020000000000000000000000000008522000821
:100030004106000800000000910900085D23000847
:10004000CB010008CB010008CB010008CB01000860
:10005000CB010008CB010008CB010008CB01000850
:10006000CB010008CB010008CB010008CB01000840
:10007000CB010008CB010008CB010008CB01000830
:10008000CB010008CB010008CB010008CB01000820
:10009000CB010008CB010008CB010008CB01000810
:1000A000CB010008CB010008CB010008CB01000800
:1000B000CB010008CB010008CB010008CB010008F0
:1000C000CB010008CB010008CB010008CB010008E0
:1000D000CB010008BD230008CB010008CB010008BC
:1000E000CB010008CB010008CB010008CB010008C0
:1000F000CB010008CB010008CB010008CB010008B0
:10010000CB0100088D0B0008CB010008CB010008D3
:10011000CB010008CB010008CB010008CB0100088F
:10012000CB010008CB010008CB010008CB0100087F
:10013000CB010008CB010008CB010008CB0100086F
:10014000CB010008CB010008CB010008CB0100085F
:10015000CB010008CB010008CB010008CB0100084F
:10016000CB010008CB010008CB010008CB0100083F
:10017000CB010008CB010008CB010008CB0100082F
:10018000CB010008CB010008DFF810D000F066F8C2
:100190000048004771350008AFF30080D8CC01203B
:1001A00030BF72B6704762B6704780F308887047F8
:1001B0000648804706480047FEE7FEE7FEE7FEE701
:1001C000FEE7FEE7FEE7FEE7FEE7FEE76123000845
:1001D0008901000840EA01039B0703D009E008C930
:1001E000121F08C0042AFAD203E011F8013B00F8FC
:1001F000013B521EF9D270472DE9F05F0546002001
:1002000092469B4688460646814640241BE0284687
:1002100041464746224600F042F853465A46C01A25
:10022000914110D311461846224600F029F82D1AA4
:1002300067EB01084F4622460120002100F020F81C
:1002400017EB00094E41201EA4F10104DFDC4846F3
:1002500031462A464346BDE8F09F0000064C074D54
:1002600006E0E06840F0010394E807009847103486
:10027000AC42F6D3FFF78CFFFC4100081C4200089B
:10028000202A04DB203A00FA02F100207047914056
:10029000C2F1200320FA03F3194390407047202A4B
:1002A00004DB203A21FA02F00021704721FA02F320
:1002B000D040C2F120029140084319467047FEE742
:1002C00070B500254FF4803403E0802000F04CFC32
:1002D00010B9641E601CF8D12CB140F2FF5000F040
:1002E0001BFC284670BD032070BD000010B50446FD
:1002F0001349086810F0450FFBD0042000F034FCCF
:1003000020B1042000F008FC032010BD012000F003
:100310002BFC20B1012000F0FFFB012010BD08489C
:1003200024380068A04201D0102010BD40F2FF50D8
:1003300000F0F2FB02482038006800F0080010BD11
:10034000342C014010B500244FF480310F4B03E0F2
:100350001A6812F0450F02D1491E481CF8D109B1A4
:10036000500705D50324042000F0D6FB204610BD1D
:10037000012000F0F9FB18B10124012000F0CCFBB2
:1003800040F2FF5000F0C8FB204610BD342C014065
:1003900010B50A49086810F0450FFBD0042000F0A2
:1003A000E3FB20B1042000F0B7FB032010BD40F2B6
:1003B000FF5000F0B1FB002010BD0000342C0140C4
:1003C00070B506460C4600251C4B1A6812F0450F06
:1003D000FBD0042000F0C8FB20B1042000F09CFBFF
:1003E000032070BD012000F0BFFB20B1012000F010
:1003F00093FB012070BD114824380068B04201D041
:10040000102070BD40F2FF5000F086FB0B482038F2
:10041000026812F4604F03D0900405D5132070BD1C
:10042000100C2080284670BD500401D5102070BDEE
:10043000100401D50F2070BD284670BD342C01403A
:1004400010B500244FF480320C4B03E0196811F012
:10045000450F02D1521E501CF8D10AB1480705D5EC
:100460000324042000F058FB204610BD480603D5A5
:100470000024402000F050FB204610BD342C0140E9
:10048000002904D0016841F0010101607047016852
:1004900021F00101016070472DE9F043016821F06E
:1004A000010101600021016041608160C160016162
:1004B000212141613E493E4A10394FF03D089042AA
:1004C00003D1C1F80880BDE8F083394A4FF4746560
:1004D0001832904201D18D60F5E7354A4FF4741619
:1004E0003032904201D18E60EDE7314A4FF07467AF
:1004F0004832904201D18F60E5E72D4B2D4A6033A1
:10050000984201D1CA60DEE7294C2B4B7834A042D7
:1005100001D1CB60D7E7DFF898C0284C0CF1900CE4
:10052000604501D1CC60CEE7DFF884904FF03D5CB0
:1005300009F1A809484502D1C1F80CC0C3E7204918
:10054000DFF87C900839484502D1C1F80080BAE74D
:10055000DFF86C8008F11808404501D10D60B2E762
:10056000174D3035A84201D10E60ACE7144D483527
:10057000A84201D10F60A6E7114D11496035091F4E
:10058000A84201D10A609EE70D4A7832904201D11B
:100590000B6098E70A4A9032904201D10C6092E7D2
:1005A000074AA83290428ED1C1F800C08BE7000004
:1005B000106002403D000020400F002000003D2060
:1005C00010640240002904D0016841F0200101605C
:1005D0007047016821F0200101607047014600204A
:1005E0000968C90700D001207047000030B50368D2
:1005F000124A1340CC680A682243D1E905452C43CE
:100600002243CC6922430C6A22434C6A22438C6AFF
:1006100022434C6B22438C6B22431A430260426993
:1006200022F00703D1E90B2422431A4342610A69ED
:1006300042604A6882608968C16030BD3F801CF0BA
:10064000704701B502E00098401E00900098002815
:10065000F9D108BD2DE9FC5F0E4600240027009764
:1006600001975A4D4FF0080AC5F800A010206860A5
:100670004FF04009C5F80890EF604FF48068C5F866
:100680001080284600F0B6FA1020FFF72FFE002851
:1006900032D14F4800890004286037206860C5F8CF
:1006A0000890EF60C5F81080284600F0A3FA3720C4
:1006B000FFF71CFE00281FD1411E05F11400016048
:1006C000C0F804A0302181600221C16007610121CE
:1006D000416100F031FA2F6033206860C5F808905E
:1006E000EF60C5F81080284600F084FA3320FFF749
:1006F000FDFD0546280001D0BDE8FC9FDFF8D49041
:100700004FF4001B6F46DFF8CC80A9F14C0940F292
:100710002A6A0AE0584600F027FA30B1D8F80000FB
:1007200047F82400641C022C04D2D9F8000010EA17
:100730000A0FEFD0082000F017FA20B1082000F0CF
:10074000EBF90420D8E7022000F00EFA20B10220D5
:1007500000F0E2F90220CFE7202000F005FA20B1F6
:10076000202000F0D9F90620C6E74FF40074204697
:1007700000F0FAF920B1204600F0CEF90720BBE7DF
:1007800040F2FF5000F0C8F900980099000601F40B
:100790007F4140EA0120009901F47F0140EA1120E5
:1007A000009940EA1160706001980199000601F417
:1007B0007F4140EA0120019901F47F0140EA1120C4
:1007C000019940EA11603060284695E718AA012097
:1007D000C8000020802C01402DE9F04100220127B3
:1007E0004FF0030C07FA02F50B682B40AB422CD1FB
:1007F000066853000CFA03F4A64306600E79D0F89D
:1008000000809E4046EA080606600E79012E01D05F
:10081000022E12D18668A64386604E79D0F80880F1
:100820009E4046EA080686604668AE4346604568D4
:100830008E799640B6B235434560C568A543C5601C
:10084000CC799C40C3681C43C460521C102AC9D395
:10085000BDE8F08110B54B07DB0E9A40C90800EBEC
:100860008100016A0F249C40A1430162016A114387
:10087000016210BDFEE700001CB504460022019293
:100880000092204820490089000408600D2048603B
:1008900040208860CA6000010861084600F0AAF99B
:1008A0001A490868009001E00A680092009A12F064
:1008B000450FF9D0012000F057F920B1012000F0D8
:1008C0002BF901201CBD042000F04EF920B10420BA
:1008D00000F022F903201CBD0C48243800680D28C4
:1008E00001D010201CBD40F2FF5000F015F9074860
:1008F0002038006801900198C0F343202070002048
:100900001CBD0000C800002018AA0120342C0140A2
:10091000FEE7704730B50F23C27801250178002A21
:100920001FD0154A126802F4E062C2F5E062C2F319
:100930000722C2F10404D3404278A24084781C40CC
:100940001443220101F1E02181F80024007800F035
:100950001F018D404009800000F1E020C0F80051E7
:1009600030BD01F01F0085404809800000F1E02003
:10097000C0F8805130BD00000CED00E00249084392
:1009800002490860704700000000FA050CED00E025
:1009900070470000054A002903D011680143116027
:1009A0007047116881431160704700003038024081
:1009B000054A002903D0116801431160704711688E
:1009C000814311607047000044380240054A002905
:1009D00003D01168014311607047116881431160B1
:1009E000704700002438024070B5244B196801F0AC
:1009F0000C01234C00291ED0224E04291DD00829A9
:100A00001DD00460196801F0F00109091E4A545C08
:100A10000168E14041601C6804F4E054A40A145DDC
:100A200021FA04F484601B6803F460435B0BD25C1E
:100A3000D140C16070BD0460E4E70660E2E70F4AA0
:100A4000121F1168C1F38055116801F03F0135B1E3
:100A5000B6FBF1F11468C4F38814614305E0B4FBFC
:100A6000F1F11468C4F3881461431268C2F30142BF
:100A7000521C5200B1FBF2F10160C3E7083802409A
:100A80000024F40040787D01000000202DE9FC41A5
:100A90000026009601960025002800D002251B485C
:100AA0000068800102D50E20BDE8FC81184C694623
:100AB000208980B2FFF7CEFD0028F5D101984003D0
:100AC00022D52089134C0004206037206060402725
:100AD000A760E6604FF48068C4F81080204600F0FC
:100AE00089F83720FFF702FC0028DDD125600620B9
:100AF0006060A760E660C4F81080204600F07AF8D5
:100B00000620FFF7F3FBCFE72520CDE7142C0140AB
:100B1000C800002018AA01200149086070470000A1
:100B2000382C0140034A116821F0FF010143116094
:100B300070470000042C014010B50A4A016811609A
:100B4000121D41681160141D216821F0F701D0E9E0
:100B500002231A43D0E9043003431A430A432260B4
:100B600010BD0000242C014001460020024A1268FA
:100B70000A4200D001207047342C0140024800682E
:100B800000F0030070470000002C014000F0CABBD9
:100B900030B5094B196847F6FF629143027D8468BE
:100BA000C568224344682C432243046800692243F9
:100BB00002430A431A6030BD042C01400B49002057
:100BC0000860091D0860091D0860091D08600749C3
:100BD00024310860091D0860091D0860034A0449A2
:100BE00038321160111D086070470000002C014070
:100BF000FF07C00010B5084A01681160141D216884
:100C00006FF30A01D0E901231A43D0E9033003430B
:100C10001A430A43226010BD082C014001490860B4
:100C200070470000002C014070B590B00446154696
:100C3000194E3046FFF7D2FC0028FAD13046FFF7B4
:100C40002BFC4FF00060019014480290039404952F
:100C50000020059006904FF480610791890008916B
:100C6000890009910A904FF440300B9004200C90B9
:100C700003200D9048020E9080100F9001A930467D
:100C8000FFF7B4FC20213046FFF79CFC01213046E1
:100C9000FFF7F6FB10B070BD58640240802C014095
:100CA00010B50446002010490978032917D019B15E
:100CB000012901D0022911D1B4F5805F11D0E0B231
:100CC000FFF7E4FE002809D108490A6822F4C0525F
:100CD0000A600A6822430A600A680A6010BD272079
:100CE00010BD272010BD0000C8000020042C0140CA
:100CF0002DE9F04784490C7880F856400989A0F81E
:100D00005410DFF80882D8F800100A0E9309037017
:100D1000C2F38303437002F0030282700A0CC270B4
:100D20000A0A02714171D8F80420110E0B01C2F3B6
:100D3000074143EA1113C38001F00F070772C2F3A2
:100D40000721CB094372C1F380138372C1F34013AF
:100D5000C372C1F3001303730023437345464FF07E
:100D6000010CAE68350EC6F30749C6F3072A002CFE
:100D700006D0012C04D0032C02D0022C33D042E048
:100D80008907090DD2B241EA820141EA9512026156
:100D9000C5F3C201017505F0070141754FEA59110C
:100DA0008175C9F38201C1754FEA89714C0F5146B3
:100DB00044EAD1140476521CA41C0CFA04F5A2FBDC
:100DC000054A4FEAE57903FB05A502FB09550CFA34
:100DD00007F20265A4FB027905FB029204FB0322E1
:100DE000C0E912720FE09106890A41EA052242EA3F
:100DF000090202615146521C540BD204C0E912246C
:100E00004FF4007202651A30C1F3801200F8012C11
:100E100089064A0EF1B242EAD112027001F07F0156
:100E20004170D8F80C20110ECC098470C1F3411424
:100E3000C470C1F38204047189070C0FC2F3074127
:100E400044EA91144471C1F340148471C37101F0F8
:100E500001010172C2F30721CC094472C1F380146D
:100E60008472C1F34014C472C1F300140473C1F35B
:100E70008104447301F003018173D1B24908C17345
:100E800080F810C0214A103211680C0E84740C0CCA
:100E90002402C1F307252C4384820C0651680D0EF1
:100EA00044EA0544C1F3074544EA0524C1F3072594
:100EB0002C43C0F81640817691680C0EC4760C0C59
:100EC0002406C1F3072544EA0544C9B244EA0124D3
:100ED000D1680A0E1443C0F81E40C1F3074290F8CF
:100EE000224044EA121480F822401207120DC1F386
:100EF000072422438284C9B2490880F8261080F86A
:100F000027C01846BDE8F087C800002044AA012089
:100F10002DE9FE43002501213F48FFF73BFD01215C
:100F2000CF023846FFF744FD01213846FFF74EFD5A
:100F30004FF4F850019002208DF808008DF8090058
:100F400000248DF80A4001268DF80B60DFF8CC8074
:100F500001A94046FFF740FC04200190DFF8C09053
:100F600001A94846FFF738FC0C2208214046FFF74C
:100F700071FC0C2209214046FFF76CFC0C220A216F
:100F80004046FFF767FC0C220B214046FFF762FC4E
:100F90000C2211464046FFF75DFC0C220221484618
:100FA000FFF758FC00213846FFF710FDFFF706FE5B
:100FB00031208DF800008DF801408DF802408DF849
:100FC00003606846FFF7A6FC00F0C6F808B900F019
:100FD0002DF810B91348FFF78BFE124C20B9B4F866
:100FE0005400000400F0D6FC10B93846FFF758FE54
:100FF00018B10D49097803290BD194F8560008B1AE
:10100000012800D102252846FFF78CFD012000F0C1
:10101000D7FCBDE8FE8300000C0040000008024041
:10102000000C024068AA0120C80000202DE9F84FFA
:1010300001200090FFF7A2FDB8B3444FDFF81091F4
:1010400000253878434C4FF0C0084FF480660428E0
:101050001ED0256002206060C4F80880E56026612B
:101060002046FFF7C7FDFFF76DF900281FD1D9F81B
:10107000001004F13C00016009F1040109684160BD
:10108000334908310968816031490C310968C16010
:1010900038784FF0030A4FF0400B50B1012808D0C8
:1010A000062806D0022804D013E0FFE72520BDE87B
:1010B000F88F2560C4F804A0C4F808B0E560266184
:1010C0002448FFF797FD69460320FFF779F90028C8
:1010D000EDD13878032810D1BDF80000000420605D
:1010E000C4F804A0C4F808B0E56026611948FFF709
:1010F00081FDFFF727F90028D9D13878042822D0BC
:10110000BDF80000B8600004206009206060C4F8E9
:101110000880E56026610F48FFF76CFDFFF712F9C4
:101120000028C4D1D9F800100A482C3001600849C1
:10113000091D096841600649083109688160044950
:101140000C310968C1600020B1E70000C800002030
:10115000142C014018AA01202DE9F05F4FF000087F
:10116000C3460024A2460025694876210175002661
:1011700006604FF4806747608660C6600661FFF7CF
:1011800007FD0320FFF74AFD6248016841F48071C2
:101190000160DFF87C9109F11809C9F80060C9F80D
:1011A0000460C9F80860C9F80C60C9F810705848A4
:1011B0001830FFF71FFDFFF783F830B108F1010881
:1011C00008F0FF08B8F14A0FE7D3002871D14FF4B7
:1011D000D570C9F800000820C9F804004FF0400895
:1011E000C9F80880C9F80C60C9F810704848183070
:1011F000FFF700FDFFF724F918B9474901200870EF
:101200008507C9F800603720C9F80400C9F80880CC
:10121000C9F80C60C9F810703D481830FFF7EAFCB7
:101220003720FFF763F84FF6FF71B0B3DFF8E4B093
:1012300001260BF1100B0D465DE0C9F80060372068
:10124000C9F80400C9F80880C9F80C60C9F8107022
:101250002F481830FFF7CEFC3720FFF747F800285B
:1012600027D12E482843C9F800002920C9F80400D6
:10127000C9F80880C9F80C60C9F810702448183003
:10128000FFF7B8FCFFF784F8002812D1214910318C
:10129000D1F800B04FEADB7A641CBAF1000F03D139
:1012A0004FF6FF718C42C8D34FF6FF718C4202D3C8
:1012B0001B20BDE8F09F1BF0804FFAD01649022298
:1012C0000A70F6E71648C9F80000C9F80460C9F8C2
:1012D00008800020C9F80C00C9F810700C481830BC
:1012E000FFF788FCFFF754F80028E2D1DBF8001084
:1012F0004FEAD17A641CBAF1000F01D1AC42E1D3BC
:10130000AC4201D31B20D4E7034903220A70D0E783
:1013100000AA0120042C0140C80000200000108019
:101320000080FF802DE9F0414FF48070FFF71CFC36
:10133000364C374D4CF23A3610B3A87800210128CC
:101340000ED0E9703148001F016841F480710160DE
:101350002068B043206001202871E878BDE8F08162
:101360002C4801600C22426040228260C160110161
:101370000161FFF73FFC0C20FEF7B8FFE870E1E7E2
:101380000220FFF7F1FB40B10220FFF7C5FB206808
:10139000B04320600220E870E0E70820FFF7E4FB9C
:1013A00040B10820FFF7B8FB2068B043206004205C
:1013B000E870D3E72020FFF7D7FB40B12020FFF7EC
:1013C000ABFB2068B04320600620E870C6E7102021
:1013D000FFF7CAFB40B11020FFF79EFB2068B04327
:1013E00020600520E870B9E74FF400773846FFF732
:1013F000BBFB40B13846FFF78FFB2068B04320604D
:101400000720E870AAE70020A8E700003C2C014074
:10141000C800002018AA01202DE9F84F0546DDF884
:10142000288016461F464FF0FF34002D09D089480A
:1014300000210160DFF8209299F80000022803D013
:1014400007E02620BDE8F88F4FF40078760A46EAD8
:10145000C756DFF808A20F46CAF80810CAF8047089
:101460004FF0FF30CAF800000120CAF81400CAF893
:101470000C70CAF810705046FFF75EFB75481838BC
:101480000068800101D50E20DCE7A8F10100B0F56D
:10149000006F4BD218EA000F48D1404601F0EEFD34
:1014A0000090DFF8B8B1ABF1140BCBF8008010203E
:1014B000CBF804004020CBF80800CBF80C700001FA
:1014C000CBF810005846FFF795FB1020FEF70EFFF3
:1014D0000028B7D100980001CAF80800CAF80480B3
:1014E0004FF0FF30CAF800000120CAF814000220B3
:1014F000CAF80C00CAF810705848FFF71DFBCBF86B
:1015000000601120CBF804004020CBF80800CBF895
:101510000C700001CBF810005846FFF76BFB112050
:10152000FEF7E4FE0646300002D08BE7262089E76E
:1015300099F8010010B101285DD087E0FEF731FE77
:10154000444FDFF8109154374FF4004BDFF810810F
:1015500009F1080940F22A6A0FE05846FFF704FB38
:1015600048B10020396845F82010401C0828F9D3FC
:101570002035444601E074B1641ED9F8000010EA39
:101580000A0FEAD00820FFF7EFFA30B10820FFF782
:10159000C3FA042056E7042054E70220FFF7E4FAD8
:1015A00020B10220FFF7B8FA02204BE72020FFF716
:1015B000DBFA20B12020FFF7AFFA062042E74FF414
:1015C00000742046FFF7D0FA20B12046FFF7A4FAB6
:1015D000072037E74FF4001401E0386801C52046C2
:1015E000FFF7C2FA0028F8D1FEF7DDFD40F2FF5008
:1015F000FFF792FA2AE089F8037089F8027089F8F7
:10160000047014481030016840F22A32114301601E
:101610001048016841F00801016000224146284657
:10162000FFF702FB0F4800E0641E0168090107D4C0
:1016300099F8041021B999F8031009B9002CF3D1D5
:1016400034B199F8030008B199F803603046F9E61F
:101650000420F7E62C2C0140C80000202CAA012011
:10166000FFFF7F00006402402DE9FC4707469046DB
:101670004FF0000A0C46E50D6402B8074FF40079FC
:1016800017D0002612E07002021945EBE073CDF886
:1016900000901348FFF7C0FE82464A46104938467C
:1016A000FEF798FD07F50077761CF6B24645EAD3BB
:1016B0000AE0B8F1010F0AD0CDE9009822462B4686
:1016C000384600F00FF882465046BDE8FC872246B7
:1016D0002B463846CDF80090FFF79EFE8246F3E792
:1016E000C0AA01202DE9FF5F82B01546DDE9107820
:1016F0001E464FF0FF3A5446DFF884920298C9F82C
:101700000C00A0490020086099F80010022903D1BC
:101710000F026D0A45EAC655DFF86CB20646CBF8F3
:101720000800CBF80460CBF800A00120CBF814002F
:10173000CBF80C60CBF810605846FFF7FDF99148E4
:1017400018380068800103D50E2006B0BDE8F09F70
:10175000781EB0F5006F1AD2074218D1384601F052
:101760008DFC0190884814380760102141604021A9
:1017700081600021C1604FF480610161FFF73AFA96
:101780001020FEF7B3FD0646300002D0DDE726202C
:10179000DBE7B8F1010F3BD908FB07F8B8F1007F90
:1017A00001D32620D1E701980001CBF80800CBF83F
:1017B0000480CBF800A00120CBF814000220CBF865
:1017C0000C000027CBF810706F48FFF7B5F9DFF871
:1017D000B8A1AAF1140ACAF800501220CAF80400ED
:1017E0004025CAF80850CAF80C704FF4806BCAF84C
:1017F00010B05046FFF7FEF91220FEF777FD0646BF
:10180000300000D0A1E799F8010010B101287DD087
:10181000B3E0FEF7C6FCDFF86C8108F1540815E070
:101820004FF40040FFF7A0F970B10020D9F80C1078
:10183000D8F8002041F82020401C0828F8D3203197
:10184000C9F80C10514C01E084B1641E4D480830B9
:10185000006840F22A310842E2D00820FFF784F9FC
:1018600030B10820FFF758F904206EE704206CE738
:101870000220FFF779F920B10220FFF74DF902208D
:1018800063E72020FFF770F920B12020FFF744F92B
:1018900006205AE74FF400742046FFF765F920B19F
:1018A0002046FFF739F907204FE74FF4001406E010
:1018B000D8F80010D9F80C0002C0C9F80C00204676
:1018C000FFF752F90028F3D14FF48070FFF74CF97D
:1018D000E8B199F8000018B1012801D0022816D10A
:1018E000CAF800700C20CAF80400CAF80850CAF8F8
:1018F0000C70CAF810B024481438FFF77BF90C209C
:10190000FEF7F4FC0646300001D01EE706E0FEF7C5
:101910004AFC40F2FF50FFF7FFF82EE089F8037011
:10192000012089F8020089F8047016481030016817
:1019300040F22A32114301601248016841F0080167
:101940000160414600220298FFF76EF9104800E05E
:10195000641E0168090101D4002CF9D10CB90420DE
:10196000F3E699F8040018B999F803000028F8D0B4
:1019700099F8030008B199F803603046E5E60000E5
:10198000C80000202C2C01402CAA0120FFFF7F0062
:101990000064024010B509490860072048604020F3
:1019A00088600020C8604FF4806008610846FFF737
:1019B00021F9BDE810400720FEF798BC18AA0120C5
:1019C0000021012803D010B1262108467047014AA2
:1019D0005070FAE7C80000202DE9FC5F0446DDF8EE
:1019E000308016461F464FF0000ACDF800A00025B3
:1019F000C146002C19D0B848C0F800A0B748C0F8BC
:101A000008A0C0F804A0691E016001214161C0F86E
:101A10000CA0C0F810A0FFF78FF8AF481838006886
:101A2000800104D50E20BDE8FC9F2620FBE7AC48D2
:101A30000078022804D14FF40078760A46EAC756A7
:101A4000A8F10100B0F5006F3FD218EA000F3CD1B9
:101A5000404601F013FB0190A0481438C0F8008004
:101A600010214160402787600021C1604FF4806BE6
:101A7000C0F810B0FFF7BEF81020FEF737FC0028C2
:101A8000D1D19748DFF854A20089AAF1140A0004C2
:101A9000CAF800000D20CAF804004020CAF8080067
:101AA0000020CAF80C00CAF810B05046FFF7A2F8A0
:101AB0000D20FEF71BFC0028B5D1874918390868AE
:101AC0004FF0FF374FF0000B1EE02620ABE77F1EE4
:101AD000834800890004CAF800000D20CAF80400F9
:101AE0004020CAF80800CAF80CB00001CAF810007B
:101AF0007A481438FFF77EF80D20FEF7F7FB002830
:101B000091D1754818380068C00501D4002FDED186
:101B100087B3CAF800601820CAF804004020CAF849
:101B20000800CAF80CB00001CAF810006B4814385D
:101B3000FFF760F81820FEF7D9FB0028C6D1684FE0
:101B400087F802B00198010164488160C0F8048000
:101B50004FF0FF3AC0F800A001214161C0F80CB07D
:101B6000C0F810B0FEF7E8FF5646787828B1012893
:101B700068D09DE0FFE7292055E7FEF712FB564F9E
:101B8000DFF85481543708F1080840F21A6A25E05A
:101B90004FF48040FEF7E8FFF0B1A9EB05002028E4
:101BA0000ED2810703D08108491C002005E081087E
:101BB000FBE704CC3A60401C2D1D8842F9D308E0B5
:101BC000002054F820103960401C0828F9D3203434
:101BD00020356FF0404601E076B1761ED8F800005F
:101BE00010EA0A0FD4D00820FEF7BEFF30B108205B
:101BF000FEF792FF042016E7042014E70220FEF708
:101C0000B3FF20B10220FEF787FF02200BE7102070
:101C1000FEF7AAFF20B11020FEF77EFF052002E7A5
:101C20004FF400742046FEF79FFF20B12046FEF7D8
:101C300073FF0720F7E6FEF7B6FA40F2FF50FEF713
:101C40006BFF35E087F803B087F802B087F804B07F
:101C500021481030016840F21A32114301604022DD
:101C600041462046FEF7E0FF1B48016841F00801AD
:101C700001601C4800E0761E0168090101D4002EB5
:101C8000F9D12EB9FFF744F90420CCE6AAF1010AF4
:101C9000387920B9F87810B9BAF1000FF6D1BAF155
:101CA000000F03D0F87818B1F878BCE60420BAE643
:101CB00040F2FF50FEF730FF6846FEF7DDFD02E020
:101CC0006846FEF7D9FD002895D19DF80010072938
:101CD000F6D00629F4D0A6E62C2C01402CAA01202F
:101CE000C8000020006402402DE9FC4707469046EA
:101CF00000200C46E50D6402B9074FF4007917D0B7
:101D0000002611E04A4639461348FEF763FA70028E
:101D1000021945EBE073CDF800900F48FFF75CFE29
:101D200007F50077761CF6B24645EBD3BDE8FC8795
:101D3000B8F1010F07D0CDE9009822462B4638466E
:101D400000F00CF8F2E722462B463846CDF800901A
:101D5000FFF742FEEAE70000C0AA01202DE9FC5F80
:101D60000446DDE90C8916461F4600200090002538
:101D700009FB08FA002C17D08346BD485946C0F825
:101D800000B0BC48816041606A1E0260012242616D
:101D9000C1600161FEF7D0FEB548183800688001C7
:101DA00004D50E20BDE8FC9F2620FBE7B248007852
:101DB000022804D14FF40078760A46EAC756A8F103
:101DC0000100B0F5006F25D218EA000F22D140467D
:101DD00001F054F90190A74F143FC7F8008010207C
:101DE00078604020B860C7F80CB000013861384610
:101DF000FEF700FF1020FEF779FA0028D2D1B9F1E2
:101E0000010F62D909FB08F08046B0F1007F03D3CF
:101E10002620C7E72620C5E79748007818B1012893
:101E200001D0022827D19448008900043860372067
:101E300078604020B860C7F80CB0000138618D4868
:101E40001438FEF7D7FE3720FEF750FA0028A9D144
:101E5000C7F80090172078604020B860C7F80CB031
:101E60000001386183481438FEF7C4FE1720FEF7DE
:101E70003DFA002896D13E60192078604020B86075
:101E8000C7F80CB0000138617A481438FEF7B2FE8A
:101E90001920FEF72BFA002884D10198010175481A
:101EA0008160C0F804804FF0FF3606600121416177
:101EB000C0F80CB0C0F810B0FEF73EFEDFF8B891E5
:101EC00099F8010010B101287ED0BDE0FEF769F954
:101ED000DFF89C8108F1540827E04FF48040FEF7BA
:101EE00043FE00B3AAEB050020280FD2810703D0E0
:101EF0008108491C002006E08108FBE704CCC8F8F3
:101F00000020401C2D1D8842F8D309E0002054F821
:101F10002010C8F80010401C0828F8D320342035C1
:101F20006FF0404601E086B1761E514808300068E7
:101F300040F21A310842D0D00820FEF715FE30B129
:101F40000820FEF7E9FD04202CE704202AE7022000
:101F5000FEF70AFE20B10220FEF7DEFD022021E797
:101F60001020FEF701FE20B11020FEF7D5FD052060
:101F700018E74FF400742046FEF7F6FD20B1204626
:101F8000FEF7CAFD07200DE74FF48070FEF7ECFD69
:101F9000C8B199F8000018B1012801D0022812D167
:101FA000C7F800B00C2078604020B860C7F80CB0CB
:101FB000000138612F481438FEF71CFE0C20FEF794
:101FC00095F90028C0D100E006E0FEF7ECF840F2F9
:101FD000FF50FEF7A1FD37E089F803B0012089F832
:101FE000020089F804B0224A1032116840F21A3017
:101FF00001431160414640222046FEF715FE1C4871
:10200000016841F00801016030461C4900E0401EB3
:102010000A68120101D40028F9D120B9FEF778FF2F
:102020000420BFE6761E99F8040020B999F8030051
:1020300008B9002EF6D12EB199F8030020B199F815
:102040000300AFE60420ADE640F2FF50FEF764FD6A
:102050006846FEF711FC02E06846FEF70DFC00281A
:1020600086D19DF800100729F6D00629F4D099E60C
:102070002C2C01402CAA0120C80000200064024042
:1020800070B588B0064601214220FEF783FC01218D
:102090000C032046FEF78CFC01212046FEF788FC4D
:1020A00001211020FEF784FC2E4D05220321284635
:1020B000FEF7D0FB052204212846FEF7CBFB0522C4
:1020C00011462846FEF7C6FB0820019002218DF834
:1020D00009108DF8081000248DF80A408DF80B10B7
:1020E00001A92846FEF778FB1020019001A9284697
:1020F000FEF772FB2020019001A92846FEF76CFB39
:102100004025019501208DF8080001A91648FEF729
:1021100063FB154818300580ADF80C404FF4827011
:10212000ADF80E006801ADF81000ADF81240ADF842
:1021300014408010ADF81600ADF81860ADF81A40E4
:102140000720ADF81C00094C03A9204600F027F831
:102150000121204600F00CF84FF6FF7000F03CF82B
:1021600008B070BD00040240001802400030014079
:10217000002904D0018841F04001018070470188A6
:1021800021F04001018070470246002012890A4276
:1021900000D001207047808970478181704730B539
:1021A000028802F441530A884C88CD8822438C88E7
:1021B0002C4322430C8922434C8922438C8922439D
:1021C000CC8922431A430280828B22F400628283EC
:1021D000098A018230BD00002DE9F0410746174C05
:1021E0004FF480552560164E08E02068411E21609E
:1021F00004D2BDE8F041022000F024B802213046AC
:10220000FFF7C2FF0028F0D039463046FFF7C5FF80
:10221000256008E021684A1E226004D2BDE8F04132
:10222000032000F00FB801213046FFF7ADFF002872
:10223000F0D03046BDE8F041FFF7ADBF4C000020C4
:102240000030014010B5014602A000F059FD002009
:1022500010BD00003C3C2D464C4153482D45525288
:102260004F522D3E3E2053504920B5C8B4FDB3AC6B
:10227000CAB1216572726F72436F6465203D20257B
:10228000640A0000704700000CB500220192009221
:102290002749086840F4803008604FF4A04308687C
:1022A00000F4003000900198401C0190009810B993
:1022B00001989842F3D10868800302D5012000906C
:1022C00000E000920098012831D11948403002689E
:1022D00042F0805202601748026842F440420260B5
:1022E0001348083002680260026842F4004202604B
:1022F000026842F4A0520260021F0F4B13600A688A
:1023000042F080720A600A689201FCD50B4A40F2E2
:1023100005711160016821F003010160016841F05D
:10232000020101600168C1F381010229FAD10CBDEB
:10233000003802400070004019544007003C024041
:102340004FF0E021042804D0086920F0040008615F
:102350007047086940F0040008617047704700004A
:1023600010B51248016841F470010160104801681D
:1023700041F0010101600E4A00210832116002683B
:102380000C4B1A400260031D0B4A1A60026822F4CB
:102390008022026006480C300160FFF775FF034998
:1023A0004FF000608039086010BD000088ED00E04B
:1023B00000380240FFFFF6FE103000242DE9F05FE8
:1023C000FF4C40F22551204600F0DFFB00287DD075
:1023D000204600F073FCC0B20021FA4AFA4BFB4CD5
:1023E000FB4DFC4EFC4FDFF8F4C34FF001082128F1
:1023F00008D182F80080197021702970317039700D
:102400008CF80010222808D1117083F80080217008
:102410002970317039708CF80010232808D11170A0
:10242000197084F800802970317039708CF80010B0
:10243000242808D111701970217085F8008031703E
:1024400039708CF80010DFF89893DFF898A32528EE
:102450000FD1DFF894B38BF80080117019702170E0
:102460002970317039708CF8001089F800108AF8E2
:10247000001026280FD1DFF874B38BF8008011709C
:10248000197021702970317039708CF8001089F83A
:1024900000108AF8001027280FD1DFF854B38BF80A
:1024A00000801170197021702970317039708CF8AA
:1024B000001089F800108AF80010282811D1DFF8E0
:1024C00034B38BF800801170197000E0FFE22170C6
:1024D0002970317039708CF8001089F800108AF872
:1024E000001029280FD1DFF810B38BF8008011708D
:1024F000197021702970317039708CF8001089F8CA
:1025000000108AF800102A280FD1DFF8F0B28BF8FB
:1025100000801170197021702970317039708CF839
:10252000001089F800108AF800102B280FD1DFF86E
:10253000D0B28BF800801170197021702970317041
:1025400039708CF8001089F800108AF800102C28D7
:102550000FD1DFF8B0B28BF80080117019702170C4
:102560002970317039708CF8001089F800108AF8E1
:1025700000102D280FD1DFF890B28BF80080117079
:10258000197021702970317039708CF8001089F839
:1025900000108AF800102E280FD1DFF870B28BF8E7
:1025A00000801170197021702970317039708CF8A9
:1025B000001089F800108AF800102F280FD1DFF8DA
:1025C00050B28BF800801170197021702970317031
:1025D00039708CF8001089F800108AF80010302843
:1025E0000FD1DFF830B28BF80080117019702170B4
:1025F0002970317039708CF8001089F800108AF851
:10260000001031280FD1DFF810B28BF80080117064
:10261000197021702970317039708CF8001089F8A8
:1026200000108AF8001032280FD1DFF8F0B18BF8D3
:1026300000801170197021702970317039708CF818
:10264000001089F800108AF8001033280FD1DFF845
:10265000D0B18BF800801170197021702970317021
:1026600039708CF8001089F800108AF800103428AE
:102670000FD1DFF8B0B18BF80080117019702170A4
:102680002970317039708CF8001089F800108AF8C0
:10269000001035280FD1DFF890B18BF80080117051
:1026A000197021702970317039708CF8001089F818
:1026B00000108AF8001036280FD1DFF870B18BF8BF
:1026C00000801170197021702970317039708CF888
:1026D000001089F800108AF8001037280FD1DFF8B1
:1026E00050B18BF800801170197021702970317011
:1026F00039708CF8001089F800108AF8001038281A
:102700000FD1DFF830B18BF8008011701970217093
:102710002970317039708CF8001089F800108AF82F
:10272000001039280FD1DFF810B18BF8008011703C
:10273000197021702970317039708CF8001089F887
:1027400000108AF800103A280FD1DFF8F0B08BF8AB
:1027500000801170197021702970317039708CF8F7
:10276000001089F800108AF800103B280FD1DFF81C
:10277000D0B08BF800801170197021702970317001
:1027800039708CF8001089F800108AF800103C2885
:102790000FD1DFF8B0B08BF8008011701970217084
:1027A0002970317039708CF8001089F800108AF89F
:1027B00000103D2856D1DFF890B08BF8008045E03E
:1027C0000010014010000020110000201200002025
:1027D00013000020440000201400002015000020F9
:1027E00045000020160000201800002019000020DD
:1027F0001A0000201B0000201C0000201D000020EB
:102800001E0000201F0000202000002021000020CA
:1028100022000020230000202400002025000020AA
:10282000260000202700002028000020290000208A
:102830002A0000202B0000202C0000202D0000206A
:102840002E0000202F000020300000201170197091
:1028500021702970317039708CF8001089F80010DF
:102860008AF800103E280FD1DFF868B28BF800809C
:102870001170197021702970317039708CF8001046
:1028800089F800108AF800103F280FD1DFF848B20D
:102890008BF80080117019702170297031703970B7
:1028A0008CF8001089F800108AF8001040280FD129
:1028B000DFF828B28BF80080117019702170297030
:1028C000317039708CF8001089F800108AF8001007
:1028D00041280FD1DFF808B28BF800801170197011
:1028E00021702970317039708CF8001089F800104F
:1028F0008AF8001042280FD1DFF8E8B18BF8008089
:102900001170197021702970317039708CF80010B5
:1029100089F800108AF8001043280FD1DFF8C8B1F9
:102920008BF8008011701970217029703170397026
:102930008CF8001089F800108AF8001044280FD194
:10294000DFF8A8B18BF80080117019702170297020
:10295000317039708CF8001089F800108AF8001076
:1029600045280FD1DFF888B18BF8008011701970FD
:1029700021702970317039708CF8001089F80010BE
:102980008AF80010DFF86CE146280DD18EF800803F
:102990001170197021702970317039708CF8001025
:1029A00089F800108AF80010DFF84CB147280DD1E3
:1029B0001170197021702970317039708CF8001005
:1029C00089F800108AF800108BF8008070280CD16C
:1029D0001170197021702970317087F800808CF89F
:1029E000001089F800108AF8001071280BD11170BE
:1029F000197021702970317039708CF8008089F855
:102A000000108AF8001073280BD111701970217012
:102A10002970317039708CF8001089F800108AF82C
:102A20000080782853D1117019702170297031708D
:102A300039708CF8001089F800108AF800108BF8B3
:102A400000102E4801702E4801702E4801702E484B
:102A500001702E4801702E4801702E4801702E48DA
:102A600001702E4801702E4801702E4801702E48CA
:102A700001702E4801702E4801702E4801702E48BA
:102A800001702E4801702E4801702E4801702E48AA
:102A900001702E4801702E4801702E4801702E489A
:102AA00001702E4801702E4801700A4801700A48D2
:102AB00001700A4801700A4801700A4801700A480A
:102AC00001700A4801700A4801708EF80010BDE8D4
:102AD000F09F000031000020320000203300002071
:102AE0003400002035000020360000203700002090
:102AF0003800002039000020170000204600002088
:102B000018000020190000201A0000201B000020DF
:102B10001C0000201D0000201E0000201F000020BF
:102B2000200000202100002022000020230000209F
:102B3000240000202500002026000020270000207F
:102B400028000020290000202A0000202B0000205F
:102B50002C0000202D0000202E0000202F0000203F
:102B600030000020002904D0818941F40051818186
:102B70007047818921F4005181817047024600200D
:102B800012880A4200D00120704770B5002440F638
:102B90006A12C1F3421301F01F05012606FA05F27D
:102BA000012B0CD0022B0DD0838A1340090A8E40D2
:102BB000008830400BB100B10124204670BD8389EC
:102BC0001340F3E7038A1340F0E710B540F66A13A9
:102BD000C1F3421301F01F040121A140012B07D0D2
:102BE000022B07D014303AB102680A43026010BDCC
:102BF0000C30F8E71030F6E702688A43026010BD37
:102C00007FB504460D46208A20F44051E8880843E9
:102C10002082A08941F20C618843A9882A89114346
:102C20006A8902431143A181A08A20F44071A889D6
:102C30000843A0826846FDF7D7FE1E48844202D0B2
:102C40001D48844201D1039800E00298A18909043B
:102C500008D500EBC00101EB001029684900B0FB6A
:102C6000F1F007E000EBC00101EB001029688900DA
:102C7000B0FBF1F06422B0FBF2F109010B096FF037
:102C800018056B4300EB8300A3891D044FF032034A
:102C900007D503EBC000B0FBF2F000F007000843DB
:102CA00006E003EB0010B0FBF2F000F00F00084369
:102CB00020817FBD00100140001401408088C0F3D6
:102CC00008007047C1F3080181807047FEE770B5C6
:102CD0000546080ACCB201462846FFF7F3FF8021DB
:102CE0002846FFF74BFF0028F9D021462846FFF77A
:102CF000E9FF80212846FFF741FF0028F9D070BD89
:102D00000FB4054B10B503A9044A029800F018F857
:102D100010BC5DF814FB00001935000848000020C5
:102D200002E008C8121F08C1002AFAD17047704794
:102D3000002001E001C1121F002AFBD170470000F2
:102D40002DE9FF4F8DB09B460F460446002606E056
:102D500025280BD05A460F999047641C761C207882
:102D60000028F5D111B03046BDE8F08F0025A84607
:102D70000122984900E0054314F8013F203B02FA84
:102D800003F00842F7D120782E2817D114F8010F4C
:102D900045F004052A280ED06FF02F022078A0F10C
:102DA000300109290AD808EB880102EB410100EB48
:102DB0000108641CF2E757F8048B641C20786C2827
:102DC0000DD004DC4C2812D06A2811D104E07428FC
:102DD0000DD07A280CD10AE045F4001507E061789F
:102DE00045F48015814202D1641C05F58015641CF0
:102DF0002078692844D008DC0028B3D0582867D050
:102E000063280FD0642808D13AE0702865D0732871
:102E100012D075285AD078285AD05A460F99904720
:102E2000761CD5E017F8040B8DF8000000208DF813
:102E30000100E946012003E057F8049B4FF0FF3002
:102E400069074FF0000501D40AE06D1C45450DDA15
:102E50008542FADB19F805100029F6D106E06D1C51
:102E60008542FCDB19F805100029F8D12E4404E056
:102E700019F8010B5A460F9990476D1EF8D2A7E03A
:102E80000A200021CDE90801C5F3025002280CD028
:102E900001CFC117021E71F100020CDA0023D0EB42
:102EA000030063EB01012D2208E0FF1D27F0070757
:102EB000F7E80201EEE72A0504D52B228DF8282039
:102EC00001223CE0EA073AD02022F7E70A2000E09E
:102ED00010200021CDE9080107E01020002145F075
:102EE0000405CDE908014FF00808C5F30250022897
:102EF00010D001CF00214FF0000A2A0720D52278F8
:102F0000702A0DD0DDE908C38CF0100C5CEA030CCC
:102F10000CD015E0FF1D27F00707F7E80201EAE7EC
:102F200040228DF828204FF0010A0CE050EA0103FE
:102F300006D030238DF828308DF8292002229246C1
:102F40002278582A04D024A20DF120090B9209E01E
:102F500026A2F9E7DDE90823FDF74EF90B9B9B5C00
:102F600009F8013D50EA0102F4D1ADEB090020302F
:102F70000890680701D44FF001080899884503DDDF
:102F80000898A8EB000000E000208046002506E03D
:102F90000AA85A46405D0F9990476D1C761C55450E
:102FA000F6DB04E030205A460F999047761CB8F1C2
:102FB0000001A8F10108F5DC05E019F8010B5A46FB
:102FC0000F999047761C0899481E08900029F4DC58
:102FD000641CC4E6092801003031323334353637F9
:102FE0003839616263646566000000003031323355
:102FF00034353637383941424344454600000000F5
:1030000010B5044600202071401EE062204600F00A
:10301000A3FF08B1032010BD94F82E0294F82F12DC
:1030200040EA0120A0F52A41553901D0022010BD07
:1030300014F8660FE178627840EA0161A078663C96
:10304000000440EA022001430B48B0EB012F01D1FC
:10305000002010BD14F8821FE278637841EA026113
:10306000A278120442EA03221143B0EB012F01D1EE
:10307000002010BD012010BD00464154002102E097
:103080004008491CC9B20128FAD10846704700001F
:1030900010B504466FF00400FFF752F90649E00846
:1030A000087000EB4002C2EBC0104FF6FF7202EA5C
:1030B000C000488010BD0000A000002010B500280E
:1030C00003D0012020B1012010BDFDF721FFF9E759
:1030D000002010BD70B50D4616461C46002C04D0CD
:1030E00028B1012098B1012070BD042070BDE2B26A
:1030F00031462846FEF7B8FA06E0FDF709FFE2B2CE
:1031000031462846FEF7B0FA0028F6D1EAE700205B
:1031100070BD0020704770B50D4616461C46002C49
:1031200004D028B1012098B1012070BD042070BDE9
:10313000E2B231462846FEF7D7FD06E0FDF7E8FE8D
:10314000E2B231462846FEF7CFFD0028F6D1EAE785
:10315000002070BD70B50024154D4FF40C7631463B
:10316000002000F09BFF45F8240018B1641CE4B275
:10317000032CF4D34FF40A763146002000F08EFF82
:103180000C4D28603146002000F088FF68604FF445
:103190000071002000F082FFA860032C06D129688E
:1031A00021B1696811B108B1002070BD012070BD66
:1031B000C0AC0120D800002017B581B01446029899
:1031C0000090684600F0B2F9002802DA0B2004B043
:1031D00010BD0B4B53F82010002201B10A70019969
:1031E000002900D00A7043F8201001D0012C01D032
:1031F0000020ECE7002202A901A800F003F8E6E7AE
:10320000CCAC01202DE9FF47804608461646002732
:10321000C8F8007000F08AF90546280003D50B2095
:1032200004B0BDE8F087B84850F825408CB1C8F824
:103230000040207820B16078FFF76BFFC1070AD00B
:103240002770E8B26070FFF739FFC1070AD003208A
:10325000E6E70C20E4E71EB1400701D50A20DFE7CE
:103260000020DDE71EB1400701D50A20D8E7002580
:1032700029462046FFF7C4FE012826D10021E84652
:1032800004EB011000F5F770027952B1027AC37AAB
:1032900042EA0362837A407A1B0443EA0020024335
:1032A00000E0002248F82120491C0429E8D3002628
:1032B00058F8265025B129462046FFF7A1FE00E028
:1032C000022010B1761C042EF2D3032802D018B1CC
:1032D0000D20A5E70120A3E794F83B0094F83C10EB
:1032E00040EA0120B0F5007F01D00D2098E794F866
:1032F000460094F8471040EA012058B914F8540FDA
:10330000E178627840EA0160A1780904543C41EA1E
:1033100002210843A06194F8409084F80390B9F129
:10332000010F04D0B9F1020F01D00D2078E709FB9D
:1033300000F994F83D20A27012B1511E0A4201D04A
:103340000D206DE794F8411094F8423041EA0323D0
:103350002381190701D00D2062E794F8431094F8F7
:10336000446041EA062161B914F8501FE67894F8E8
:1033700001C041EA0661A6783604503C46EA0C26B4
:10338000314394F83E6094F83FC046EA0C28B8F107
:10339000000F07D008EB090606EB131C614503D2AA
:1033A0000D203DE70D203BE7A1EB0C01B1FBF2F155
:1033B00039B3012640F6F672914200D302264FF649
:1033C000F672914200D30326891C6161E56105EB29
:1033D00008022262AC44C4F828C0032E13D033B3D1
:1033E0004A446262022E24D001F0010201EB410145
:1033F00002EB510101F2FF11B0EB512F1BD20D2056
:103400000EE70D200CE70BB10D2009E794F85C20C6
:1034100094F85F3094F85DC042EA036294F85E303D
:103420001B0443EA0C231A4362628900E2E70D2081
:10343000F6E64900DEE74FF0FF302061E0608020D3
:103440006071032E57D194F8600094F8611040EA3F
:10345000012001284FD1691C204600F07DFDE0BB12
:10346000677194F82E0294F82F1240EA0120A0F51B
:103470002A4155393FD114F8300FE178627840EA9B
:103480000160A178303C090441EA022108431F4948
:10349000884230D194F8140294F8171294F8152247
:1034A00040EA016094F81612090441EA0221084337
:1034B000174988421FD194F8180294F81B1294F807
:1034C000192240EA016094F81A12090441EA022123
:1034D0000843206194F81C0200E00CE094F81F12ED
:1034E00094F81D2240EA016094F81E12090441EA92
:1034F00002210843E060267006490888401C0880C5
:10350000E08000208CE60000CCAC012052526141EA
:1035100072724161E400002003490A885206FCD51A
:10352000C2B28A80704700000010014010B5044606
:103530004FF0FF302368002B0BD0194600E0491CE8
:103540000A78202A01D33A2AF9D10A783A2A01D0F6
:10355000002010BD13F8012B303A0A2AF9D28B4211
:10356000F7D1032AF5D21046491C216010BD000096
:10357000ADF5015DFE480DF50053D0E900128068FD
:10358000C3E90D12D8634FF000084FF4A060FDF7B7
:10359000F5F9A820FFF77CFD4FF4614000F0C0FD75
:1035A000DFF8D093B9F82A00FEF76AFD002000F09A
:1035B000EDFCFDF7ADFC0028FBD1FFF7CBFDEE489D
:1035C0000122EEA10068FFF7F7FDED4D40242C80AD
:1035D0003220FDF736F848F2FE00FEF7FDFD3220FE
:1035E000FDF72FF8AE1E3480E648FDF72AF82C8050
:1035F0003220FDF726F848F2DE00FEF7EDFD32201E
:10360000FDF71FF834804FF4FA7A5046FDF719F8A9
:103610002C803220FDF715F848F22010FEF7DCFD73
:103620003220FDF70EF834805046FDF70AF82C8062
:103630003220FDF706F848F22820FEF7CDFD3220B3
:10364000FCF7FFFF34805046FCF7FBFF2C80322054
:10365000FCF7F7FF48F20130FEF7BEFD3220FCF721
:10366000F0FF34805046FCF7ECFF2C803220FCF752
:10367000E8FF48F28040FEF7AFFD3220FCF7E1FFA3
:1036800034805046FCF7DDFF2C803220FCF7D9FF58
:103690004FF40540FEF7A0FD3220FCF7D2FF348046
:1036A0005046FCF7CEFF2C803220FCF7CAFF4FF4C7
:1036B0000640FEF791FD3220FCF7C3FF34805046F0
:1036C000FCF7BFFF2C803220FCF7BBFF4FF4074014
:1036D000FEF782FD3220FCF7B4FF34805046FCF741
:1036E000B0FF2C803220FCF7ACFF48F61E00FEF73E
:1036F00073FD3220FCF7A5FF34805046FCF7A1FF94
:103700002C803220FCF79DFF48F685173846FEF7DF
:1037100063FD3220FCF795FF34805046FCF791FFA3
:103720002C803220FCF78DFF3846FEF755FD322005
:10373000FCF787FF34805046FCF783FF2C80322053
:10374000FCF77FFF48F62B20FEF746FD3220FCF702
:1037500078FF34805046FCF774FF2C803220FCF751
:1037600070FF48F68630FEF737FD3220FCF769FF20
:1037700034805046FCF765FF2C803220FCF761FF57
:1037800048F61040FEF728FD3220FCF75AFF34803F
:103790005046FCF756FF2C803220FCF752FF48F6CB
:1037A000FC50FEF719FD3220FCF74BFF34805046E9
:1037B000FCF747FF2C803220FCF743FF48F6FF6000
:1037C000FEF70AFD3220FCF73CFF34805046FCF740
:1037D00038FF2C803220FCF734FF48F6FF70FEF7EC
:1037E000FBFC3220FCF72DFF34805046FCF729FF0C
:1037F0002C803220FCF725FF49F2FF00FEF7ECFC9D
:103800003220FCF71EFF34805046FCF71AFF2C8054
:103810003220FCF716FF49F2FF10FEF7DDFC3220E4
:10382000FCF70FFF348044F62060FCF70AFF2C8081
:103830003220FCF706FF4FF4AA40FEF7CDFC322001
:10384000FCF7FFFE34805046FCF7FBFE2C80322054
:10385000FCF7F7FE4FF6F070FEF7BEFC3220FCF7E7
:10386000F0FE34805046FCF7ECFE2C803220FCF752
:10387000E8FE4FF6F170FEF7AFFC3220FCF7E1FEF8
:1038800034805046FCF7DDFE2C803220FCF7D9FE58
:103890004FF6F270FEF7A0FC3220FCF7D2FE348027
:1038A0005046FCF7CEFE2C803220FCF7CAFE4FF6C5
:1038B000F370FEF791FC3220FCF7C3FE34805046D3
:1038C000FCF7BFFE2C803220FCF7BBFE4FF6F470F5
:1038D000FEF782FC3220FCF7B4FE34805046FCF741
:1038E000B0FE2C803220FCF7ACFE4FF6F570FEF7F0
:1038F00073FC3220FCF7A5FE34805046FCF7A1FE95
:103900002C803220FCF79DFE4FF6F670FEF764FC2B
:103910003220FCF796FE34805046FCF792FE2C8055
:103920003220FCF78EFE4FF6F770FEF755FC322082
:10393000FCF787FE34805046FCF783FE2C80322053
:10394000FCF77FFE4FF6F870FEF746FC3220FCF7DE
:1039500078FE34805046FCF774FE2C803220FCF751
:1039600070FE4FF6F970FEF737FC32200CE00000D5
:10397000CC41000810000020C0AC0120303A00000B
:103980001A18024020480100FCF75BFE348041F227
:103990008830FCF756FEFF4FDFF8FCA34FF0000B1A
:1039A000DFF8F89399F8000068B10820A9F82A0018
:1039B000FEF766FB4FF4612000F0B2FB44F6206195
:1039C000F748FFF784F999F8010068B11020A9F8C9
:1039D0002A00FEF755FB4FF4E12000F0A1FB42F274
:1039E0001071EF48FFF773F999F8020068B12820C9
:1039F000A9F82A00FEF744FB4FF47A3000F090FB60
:103A000040F2E241E648FFF762F999F8030068B135
:103A10003820A9F82A00FEF733FB4FF4E13000F01C
:103A20007FFB4FF49671DE48FFF751F999F80800D3
:103A300058B12C803888FEF7CFFB34805046FEF713
:103A4000AAFB0146D648FFF742F999F8090058B198
:103A50002C807888FEF7C0FB34805046FEF79BFB35
:103A60000146CF48FFF733F999F80A0058B12C8086
:103A7000B888FEF7B1FB34805046FEF78CFB014658
:103A8000C748FFF724F999F80B0058B12C80F88843
:103A9000FEF7A2FB34805046FEF77DFB0146C0488E
:103AA000FFF715F999F80C0058B12C803889FEF70A
:103AB00093FB34805046FEF76EFB0146B848FFF793
:103AC00006F999F80D0058B12C807889FEF784FB2F
:103AD00034805046FEF75FFB0146B148FFF7F7F828
:103AE00099F80E0058B12C80B889FEF775FB348028
:103AF0005046FEF750FB0146A948FFF7E8F899F851
:103B00000F0058B12C80F889FEF766FB34805046D0
:103B1000FEF741FB0146A248FFF7D9F899F81000DB
:103B200058B12C80388AFEF757FB34805046FEF798
:103B300032FB01469A48FFF7CAF899F8110058B1CC
:103B40002C80788AFEF748FB34805046FEF723FB32
:103B500001469348FFF7BBF899F8120058B12C8042
:103B6000B88AFEF739FB34805046FEF714FB014655
:103B70008B48FFF7ACF899F8130058B12C80F88AFD
:103B8000FEF72AFB34805046FEF705FB01468448C9
:103B9000FFF79DF899F8140058B12C80388BFEF788
:103BA0001BFB34805046FEF7F6FA01467C48FFF7CF
:103BB0008EF899F8150058B12C80788BFEF70CFB25
:103BC00034805046FEF7E7FA01467548FFF77FF864
:103BD00099F8160058B12C80B88BFEF7FDFA3480A6
:103BE0005046FEF7D8FA01466D48FFF770F899F88D
:103BF000170058B12C80F88BFEF7EEFA348050464F
:103C0000FEF7C9FA01466648FFF761F899F818000F
:103C100058B12C80388CFEF7DFFA34805046FEF71E
:103C2000BAFA01465E48FFF752F899F8190058B100
:103C30002C80788CFEF7D0FA34805046FEF7ABFA31
:103C400001465748FFF743F899F81A0058B12C80FD
:103C5000B88CFEF7C1FA34805046FEF79CFA014654
:103C60004F48FFF734F899F81B0058B12C80F88CB6
:103C7000FEF7B2FA34805046FEF78DFA0146484806
:103C8000FFF725F899F81C0058B12C80388DFEF705
:103C9000A3FA34805046FEF77EFA01464048FFF70B
:103CA00016F899F81D0058B12C80788DFEF794FA1B
:103CB00034805046FEF76FFA01463948FFF707F89F
:103CC00099F81E0058B12C80B88DFEF785FA348023
:103CD0005046FEF760FA01463148FEF7F8FF99F8C2
:103CE0001F0058B12C80F88DFEF776FA34805046CC
:103CF000FEF751FA01462A48FEF7E9FF99F820003D
:103D000058B12C80388EFEF767FA34805046FEF7A3
:103D100042FA01462248FEF7DAFF99F8210058B12D
:103D20002C80788EFEF758FA34805046FEF733FA2E
:103D300001461B48FEF7CBFF99F8220058B12C80B2
:103D4000B88EFEF749FA34805046FEF724FA014651
:103D50001348FEF7BCFF99F8230058B12C80F88E69
:103D6000FEF73AFA34805046FEF715FA01460C4841
:103D7000FEF7ADFF99F8240058B12C80388FFEF77C
:103D80002BFA34805046FEF706FA01460448FEF747
:103D90009EFF07E05000002000300140100000208E
:103DA0000010014099F8250058B12C80788FFEF75B
:103DB00013FA34805046FEF7EEF901466448FEF7E8
:103DC00086FF99F8260058B12C80B88FFEF704FAC8
:103DD00034805046FEF7DFF901465D48FEF777FF75
:103DE00099F8270058B12C80F88FFEF7F5F9348048
:103DF0005046FEF7D0F901465548FEF768FF99F89E
:103E0000280060B12C80B7F84200FEF7E5F9348055
:103E10005046FEF7C0F901464D48FEF758FF99F8A5
:103E2000290060B12C80B7F84400FEF7D5F9348042
:103E30005046FEF7B0F901464548FEF748FF99F8AD
:103E4000040010B3C9F82CB02C80D9F82C0037F836
:103E50001000FEF7C1F934805046FEF79CF9014688
:103E60003B48FEF734FFD9F82C10491CC9F82C1038
:103E70002029E9DBD9F82C00202806D14FF6FF7164
:103E80003348FEF724FFC9F82CB099F80500B8B103
:103E9000C9F82CB02C80D9F82C0037F81000FEF7A8
:103EA0009BF934805046FEF776F901462848FEF724
:103EB0000EFFD9F82C10491CC9F82C102329E9DB76
:103EC00099F8060040B3C9F82CB02C80D9F82C0022
:103ED00037F81000FEF780F934805046FEF75BF9A2
:103EE00001460DA820F8181008F10108B8F5805F08
:103EF0000BD11022D9F83010FDF7F6FED9F83000BA
:103F00001030C9F830004FF00008D9F82C00401CE0
:103F1000C9F82C002328D8DB99F8070000283FF4C3
:103F20003FAD4FF000092C800A4931F81900FEF727
:103F300053F934805046FEF72EF901460448FEF747
:103F4000C6FE09F10109B9F1050FECDB28E5000017
:103F5000001001409600002070B504460D46E06A4E
:103F6000A84210D0204600F0B2F808B1012070BD80
:103F7000607801232A4604F13001FFF7ABF808B15D
:103F8000012070BDE562002070BD000070B50446E0
:103F90000B480C4E002150F8240006EB840542002B
:103FA000686900F08DF806480021183050F8242088
:103FB000A86800F085F80120311981F8200070BD53
:103FC000D8410008A40000202DE9F04105460F4625
:103FD0000024DFF8888008EB050090F82000002816
:103FE00003D1D8F80010284688474FF0FF32FFB1C0
:103FF0001B4E56F82500B7FBF0F3B7FBF0F100FBC2
:10400000117000B15B1C16480C3850F82510491E81
:10401000002921DB08EB8507786930F811C0BCF175
:10402000000F08D000249C4213D1002298B20AE06D
:104030001046BDE8F081641CF5E77C6901EB020CD9
:1040400024F81C00521C9A42F7D356F82500484326
:10405000EFE7491E0029E0DA1046EAE7A400002055
:10406000E441000810B5002200210A4B0A4C53F825
:10407000203004EB800005E0446934F8114004B1BD
:10408000521C491C8B42F7D864204243B2FBF3F028
:10409000C0B210BDD8410008A400002010B50446ED
:1040A0002046FFF791FF411C05D0044901EB840134
:1040B0008968084410BD002010BD0000A400002045
:1040C00001E000F8011B521E531CFAD170472DE984
:1040D000F04104462079002820D0E66A04F130013E
:1040E0006078012332460F46FFF715F810B1012022
:1040F000BDE8F08100202071206AA169301A884251
:104100000CD2E57808E0A0690644607801233246C5
:104110003946FFF700F86D1E022DF4D20020E7E7C4
:10412000F0B587B0054601210846FCF733FC0121B4
:104130001020FCF73DFC234F072209213846FCF7ED
:1041400089FB07220A213846FCF784FB4FF4C06044
:10415000059002208DF818008DF8190000248DF8C4
:104160001A4001268DF81B6005A93846FCF734FB80
:104170000195ADF80840ADF80A40ADF80C40ADF837
:1041800010400C20ADF80E000F4C01A92046FEF7A0
:1041900037FD01212046FEF7E5FC012240F22551C2
:1041A0002046FEF712FD25208DF8000003208DF833
:1041B00001008DF802008DF803606846FCF7AAFB49
:1041C00007B0F0BD000002400010014012FE13FDD8
:1041D00014FD150016FD0000800C000000780000A2
:1041E00080070000200000002000000020000000E8
:1041F0000090010000000F0000F000001C420008C9
:1042000000000020E8000000202D00080443000802
:10421000E8000020F0CB0100302D00080000000075
:10422000010203040102030406070809000000005C
:10423000000000000000000000000000000000007E
:10424000000000000000000000000000000000006E
:10425000000000000000080000000000282300000B
:10426000000000000000000000A0000000000001AD
:104270000002000300040005000600070008000912
:10428000000A000B000C000D000E000F00100011C2
:104290000012001300140015001600170018001972
:1042A000001A001B001C001D001E001F0020002122
:1042B000002200E800E900EA00EB00EC000000004A
:1042C0008D3F0008654000080001002000000068E4
:1042D000000000100091012000000F6800F00010A5
:1042E00000000000000100000000000000000000CD
:1042F00000000000000000000000000000000000BE
:0443000000000000B9
:04000005080001B13D
:00000001FF
