:020000040800F2
:10000000E0DC0120852F0008ED040008EF04000863
:10001000F3040008F7040008FB04000800000000D7
:10002000000000000000000000000000FF040008C5
:100030000105000800000000030500080505000890
:100040009F2F00089F2F00089F2F00089F2F000858
:100050009F2F00089F2F00089F2F00089F2F000848
:100060009F2F00089F2F00089F2F00089F2F000838
:100070009F2F00089F2F00089F2F00089F2F000828
:100080009F2F00089F2F00089F2F00089F2F000818
:100090009F2F00089F2F00089F2F00089F2F000808
:1000A0009F2F00089F2F00089F2F00089F2F0008F8
:1000B0009F2F00089F2F00089F2F00089F2F0008E8
:1000C0009F2F00089F2F00089F2F00089F2F0008D8
:1000D0009F2F00089F2F00089F2F00089F2F0008C8
:1000E0009F2F00089F2F00089F2F00089F2F0008B8
:1000F0009F2F00089F2F00089F2F00089F2F0008A8
:100100009F2F0008D92200089F2F00089F2F00086A
:10011000B72C00089F2F00089F2F00089F2F000872
:100120009F2F00089F2F00089F2F00089F2F000877
:100130009F2F00089F2F00089F2F00089F2F000867
:100140009F2F00089F2F00089F2F00089F2F000857
:100150009F2F00089F2F00089F2F00089F2F000847
:100160009F2F00089F2F00089F2F00089F2F000837
:100170009F2F00089F2F00089F2F00089F2F000827
:100180009F2F00089F2F000800F002F800F03CF8B5
:100190000AA090E8000C82448344AAF10107DA45E2
:1001A00001D100F031F8AFF2090EBAE80F0013F0F8
:1001B000010F18BFFB1A43F001031847E84900007C
:1001C000084A0000103A24BF78C878C1FAD852070C
:1001D00024BF30C830C144BF04680C6070470000C1
:1001E0000023002400250026103A28BF78C1FBD840
:1001F000520728BF30C148BF0B6070471FB504F0DD
:10020000B9FC1FBD10B510BD04F082FC1146FFF70C
:10021000F5FF00F011F804F0A0FC03B4FFF7F2FFC3
:1002200003BC02F0C9FC000030BF72B6704762B672
:10023000704780F308887047ADF5005D002400BF6B
:100240004FF4A06002F0BEFE542002F033FC4FF4E5
:10025000614002F0BFFC9348008802F037F90020AB
:1002600004F0DBFA022004F0D8FA00BF00F0F6FF39
:100270000028FBD14FF47A7002F07EFC10E18A482E
:10028000007858B10020874908800846008802F0AD
:100290001DF944F62061854802F0EFFC844800789F
:1002A00058B108207F4908800846008802F00EF9FE
:1002B00042F210717D4802F0E0FC7E48007858B1AF
:1002C0002020784908800846008802F0FFF840F2B4
:1002D000E241764802F0D1FC7748007850B13820EE
:1002E000704908800846008802F0F0F896216F48AF
:1002F00002F0C3FC71480078A0B110207049488317
:100300007049714A126831F8120002F0C7F81020E3
:100310006B4908836D4804F0EDF9054629466348AA
:1003200002F0ABFC6A48007868B3002066490860B8
:1003300019E01020624948836249634A126831F823
:10034000120002F0ABF810205D4908835F4804F00A
:10035000D1F905462946554802F08FFC5A480068F5
:10036000401C59490860584800682028E1DB56487D
:100370000068202807D14FF6FF714C4802F07DFC41
:100380000020514908605348007808B300204E49C6
:10039000086019E010204A4948834A494A4A1268CD
:1003A00031F8120002F07AF81020454908834748D6
:1003B00004F0A0F9054629463C4802F05EFC42489C
:1003C0000068401C404908603F4800682328E1DB82
:1003D0004148007890B11020394948833949B1F833
:1003E000440002F05BF8102035490883374804F0D8
:1003F00081F9054629462D4802F03FFC3748007830
:1004000078B300203049086026E010202C4948834A
:100410002C492D4A126831F8120002F03FF81020E2
:1004200027490883294804F065F92DF81400641C55
:10043000B4F5805F0BD1102229480168684601F0AD
:10044000E0FF2748006810302549086000241E4856
:100450000068401C1C4908601B4800682328D4DB46
:1004600001E0FFE700241F480078C8B1002500BF65
:1004700013E01020124948831B4931F8150002F09F
:100480000DF810200E490883104804F033F9064691
:100490003146064802F0F1FB6D1C052DE9DB00BF7B
:1004A000EDE600000E00002004000020004C00409B
:1004B00005000020060000200700002008000020A2
:1004C0000000024038000020000000200030014001
:1004D000090000200A0000200B0000200C00002072
:1004E000100000200D0000207E000020704700BF9B
:1004F000FEE700BFFEE700BFFEE700BFFEE7704774
:1005000070477047704700000CB5002001900090C4
:100510007648006840F480307449086000BF734832
:10052000006800F4003000900198401C0190009891
:1005300018B90198B0F5A04FF1D16C48006800F4EB
:10054000003010B10120009001E0002000900098E0
:10055000012846D165484030006840F0805063492A
:10056000403108606248006840F4404060490860DB
:100570005E48083000685D49083108600846006838
:1005800040F4004008600846006840F4A05008604D
:100590005848091F0860081F006840F08070091F54
:1005A000086000BF5148006800F000700028F9D0D2
:1005B00040F20570504908604C480830006820F04F
:1005C00003004A49083108600846006840F002000C
:1005D000086000BF45480830006800F00C0008289B
:1005E000F8D10CBD10B54548006840F4700043498F
:1005F00008603E48006840F001003C490860002067
:100600003A4908310860394800683D49084037498F
:1006100008603C48091D0860081F006820F480201D
:10062000091F0860002031490C310860FFF76CFF9A
:100630004FF0006031498039086010BD70B500206E
:100640000022022300240221284D08352D6805F0E0
:100650000C0020B1042806D0082834D107E02A4D28
:100660002A4E356033E02A4D284E35602FE01F4D6D
:100670002D1D2D68C5F380541C4D2D1D2D6805F0D2
:100680003F0154B1224DB5FBF1F5184E361D3668C9
:10069000C6F3881605FB06F209E01B4DB5FBF1F524
:1006A000124E361D3668C6F3881605FB06F20F4D4E
:1006B0002D1D2D68C5F301456D1C6B00B2FBF3F5D4
:1006C000124E356003E0104D104E356000BF00BF84
:1006D000064D08352D68C5F303150E4E705D0B4DA4
:1006E0002D68C540094E356070BD000000380240DD
:1006F000007000401954410E003C024088ED00E0BB
:10070000FFFFF6FE103000240024F4001400002047
:1007100040787D01180000200020FE490860091D76
:100720000860091D0860091D0860FA492431086045
:10073000091D0860091D0860F748F649383108604E
:100740000020091D0860704701460020012900D0E3
:1007500011B9F24B197000E0262070470146ED4AAE
:10076000121D106820F0FF0008431060704770B53C
:10077000044606E0E7483430056805F0450000B15E
:1007800000E0F7E700BF042003F0CCF920B104201B
:1007900003F0D3F9032070BD012003F0C3F920B1A9
:1007A000012003F0CAF90120F5E7DA4810300068AB
:1007B000A04201D01020EEE740F2FF5003F0BDF957
:1007C000D4481430006808210840C0B2E3E72DE99E
:1007D000FC4107460D4600260024002000900190B1
:1007E0000820CF4908601020486040208860002021
:1007F000C8604FF480600861084603F000F91020DB
:10080000FFF7B5FF044614B12046BDE8FC81C5489A
:1008100000880004C2490860372048604020886092
:100820000020C8604FF480600861084603F0E7F8D4
:100830003720FFF79CFF04460CB12046E5E74FF058
:10084000FF30B949086008204860302088600220E5
:10085000C8600020086101204861084603F0FBF8E9
:100860000020AF49086033204860402088600020A5
:10087000C8604FF480600861084603F0C0F8332078
:10088000FFF775FF04460CB12046BEE70DE04FF4BC
:10089000001003F047F940B19E48803000684DF8E1
:1008A0002600761C022E00D307E09A4834300068F8
:1008B00040F22A6108400028E9D000BF082003F078
:1008C00031F920B1082003F038F904209DE7022017
:1008D00003F028F920B1022003F02FF9022094E759
:1008E000202003F01FF920B1202003F026F9062074
:1008F0008BE74FF4007003F015F928B14FF4007046
:1009000003F01BF9072080E740F2FF5003F015F9D0
:1009100000980006009901F47F4140EA0120009907
:1009200001F47F0140EA1120009940EA11606860FB
:1009300001980006019901F47F4140EA01200199E4
:1009400001F47F0140EA1120019940EA116028601A
:1009500020465AE77CB5054600240020009001900F
:1009600000260DB1022600E000266A481430006817
:1009700000F0007008B10E207CBD6A49098888B279
:100980006946FFF724FF04460CB12046F4E70198BE
:1009900000F4802060B36348008800046049086068
:1009A00037204860402088600020C8604FF4806095
:1009B0000861084603F023F83720FFF7D8FE044605
:1009C0000CB12046D8E756480660062054494860D6
:1009D000402088600020C8604FF4806008610846AD
:1009E00003F00DF80620FFF7C2FE04462046C3E7D9
:1009F0002520C1E770B5044600254C48007803283F
:100A000002D12725284670BD4848007838B14748AC
:100A10000078012803D045480078022819D1B4F5A0
:100A2000805F02D127252846EDE7E0B2FFF792FF6D
:100A3000054675B93748001D006820F4C050354997
:100A4000091D0860084600682043086008460068E1
:100A500008602846D7E710B50446314804600720EF
:100A60002F494860402088600020C8604FF48060B3
:100A70000861084602F0C3FF0720FFF778FE10BDAB
:100A8000F0B5014600200022284B1B7881F8563033
:100A9000244B1B88A1F85430254B1B681A0E930970
:100AA0000B70C2F383034B7002F003038B70204B77
:100AB0001B68C3F30742CA701D4B1B88C3F3072290
:100AC0000A711B4B1A784A715B681A0E1301CB80AE
:100AD000174B5B68C3F30742CB8843EA1213CB8002
:100AE00002F00F030B72124B9B88C3F30722D3094A
:100AF0004B72C2F380138B72C2F34013CB72C2F3FA
:100B000000130B7300234B73084B1B78C3B1074BC7
:100B10001B780FE0002C0140FF07C00030000020D0
:100B2000D80000202C000020EC000020280000202D
:100B300004010020012B03D0FE4B1B78032B4FD167
:100B400093071B0D0B61FC4B1A790B6943EA820377
:100B50000B61F94B9B681A0E0B6943EA92130B6108
:100B6000C2F3C2030B7502F007034B75F24B9B688F
:100B7000C3F3074253098B75C2F38203CB75930706
:100B80005B0F0B76EC4B1B89C3F307220B7E43EA0A
:100B9000D2130B760B695B1C0024C1E912340B7E67
:100BA0009B1C012606FA03F3DE17D1E91245A4FBCC
:100BB000037C05FB03C304FB0633C1E912730C7A03
:100BC0000123A3400B650024D1E912560B6DA5FB50
:100BD000037C06FB03C305FB0433C1E912732CE05D
:100BE000D44B1B78022B28D1D34B1A7993069B0A3E
:100BF0000B61D14B9B681A0E0B6943EA02230B6110
:100C0000CD4B9B68C3F307420B6913430B61CA4B7F
:100C10001B89C3F307220B695B1C4FF40074A3FB11
:100C2000043566000027A3FB064C05FB06C503FB45
:100C30000753C1E9124373100B65C2F3801301F827
:100C4000193F93065B0E4B70BB4B1A7A4B7843EA05
:100C5000D2134B7002F07F038B70B74BDB681A0E18
:100C6000D309CB70C2F341130B71C2F382034B71F2
:100C700093071B0F8B71B04BDB68C3F307428B7973
:100C800043EA92138B71C2F34013CB7100230B72B2
:100C900002F001034B72A84B9B89C3F30722D309CF
:100CA0008B72C2F38013CB72C2F340130B73C2F387
:100CB00000134B73C2F381038B7302F00303CB73F6
:100CC0009D4B1A7B53080B7401234B749B4B1B6881
:100CD0001A0ECA741939994B1B68C3F307421402E0
:100CE000CC85964B1B88C3F30722CB8D1343CB8552
:100CF000924B1A7814060C635B681A0E0B6B43EA6E
:100D000002440C638D4B5B68C3F307420B6B43EAF1
:100D100002240C63894B9B88C3F307220B6B13439C
:100D20000B63864B1A7934235A54844B9B681A0EF2
:100D300035235A54814B9B68C3F3074214068C63D6
:100D40007E4B1B89C3F307228B6B43EA02448C63FF
:100D50007A4B1A7A8B6B43EA02248C63774BDB68FD
:100D60001A0E8B6B13438B63744BDB68C3F3074220
:100D70003C235B5C43EA12143C235C5413071C0DB8
:100D8000CC876E4B9B89C3F30722CB8F1343CB8752
:100D90006A4B1A7B540840235C54012441235C5461
:100DA000F0BD70B500264FF4803505E06448046856
:100DB00004F0450000B103E0281EA5F10105F5D1BE
:100DC00000BF15B104F0040028B10326042002F08E
:100DD000B4FE304670BD012002F0A4FE18B1012619
:100DE000012002F0AAFE40F2FF5002F0A6FE3046BB
:100DF000F0E72DE9F04105460E464FF0000805E00A
:100E00004F48076807F0450000B100E0F8E700BF71
:100E1000042002F087FE28B1042002F08EFE032099
:100E2000BDE8F081012002F07DFE20B1012002F03A
:100E300084FE0120F4E7424824380068A84201D02B
:100E40001020EDE740F2FF5002F077FE3C482038DA
:100E5000046804F4604018B9200C30804046DFE795
:100E600004F4005008B11320DAE704F4804008B11C
:100E70001020D5E704F4004008B10F20D0E7404629
:100E8000CEE738B500240120009002F0B2FD10B981
:100E90002524204638BD27480078042825D0002086
:100EA0002849086002204860C02088600020C8608F
:100EB0004FF480600861084602F0A1FDFFF771FF62
:100EC00004460CB12046E5E71D48203800681B4960
:100ED00008601B481C3800684860194818380068CA
:100EE0008860174814380068C8601248007858B104
:100EF00010480078012807D00E480078062803D053
:100F00000C480078022821D100200E4908600320F7
:100F10004860402088600020C8604FF4806008610D
:100F2000084602F06CFD69460320FFF762FF0446A5
:100F300064B109E028000020040100201401002011
:100F4000342C0140D80000202046A3E7FE4800785A
:100F5000032816D1BDF800000004FC4908600320F6
:100F60004860402088600020C8604FF480600861BD
:100F7000084602F044FDFFF714FF04460CB120467A
:100F800088E7F148007804282AD0BDF80000F0492D
:100F90000860BDF800000004EC49086009204860C2
:100FA000C02088600020C8604FF480600861084657
:100FB00002F025FDFFF7F5FE04460CB1204669E777
:100FC000E4480068E4490860E248001D00684860A1
:100FD000E048083000688860DE480C300068C8606F
:100FE000002057E710B506E0DA482030046804F026
:100FF000450000B100E0F7E700BF042002F092FDD9
:1010000020B1042002F099FD032010BD40F2FF50F2
:1010100002F093FD0020F8E770B500264FF480350C
:1010200006E0CC482030046804F0450000B103E03D
:10103000281EA5F10105F4D100BF15B104F004008C
:1010400028B10326042002F078FD304670BD04F07C
:10105000400018B10026402002F06FFD3046F5E751
:1010600070B500254FF4803404E0802002F05AFD72
:1010700000B103E0201EA4F10104F6D100BF0CB9B9
:10108000032070BD40F2FF5002F057FD2846F8E7FC
:101090002DE9F0470027002400260025A046A146A0
:1010A000EE20AE4908750020086048608860C8607E
:1010B0000861084602F079FC032002F096FCA5487E
:1010C0001038006840F48070A2491039086000BFF1
:1010D00012E000209D49086048608860C8604FF4B5
:1010E00080600861084602F08AFCFFF7B9FF0446F9
:1010F00004B903E0781CC7B24A2FEADB00BF14B181
:101100002046BDE8F0874FF4D5709049086008206C
:101110004860402088600020C8604FF4806008610B
:10112000084602F06CFCFFF777FF044624B9012063
:10113000854908704FF080490020844908603720B5
:101140004860402088600020C8604FF480600861DB
:10115000084602F054FC3720FFF709FB0446002C38
:101160004BD134E0002079490860372048604020A6
:1011700088600020C8604FF480600861084602F073
:101180003EFC3720FFF7F3FA04460CB12046B8E7DF
:10119000734849EA00006D490860292048604020F2
:1011A00088600020C8604FF480600861084602F043
:1011B00026FCFFF717FF04460CB12046A1E765485F
:1011C0000668012080EAD67080F001086D1CB8F135
:1011D000000F03D14FF6FF708542C3D34FF6FF7067
:1011E000854202D31B2420468BE706F08040061E72
:1011F00032D00220544908702EE01CE0594853496F
:10120000086001204860402088600020C8604FF4DA
:1012100080600861084602F0F2FBFFF7E3FE044637
:101220000CB120466DE74B480668012080EAD67075
:1012300080F001086D1CB8F1000F03D14FF6FF706C
:101240008542DBD34FF6FF70854202D31B24204634
:1012500057E703203C490870204652E73EB500247A
:1012600000250121404802F041FA0121C80202F0A4
:1012700097FA0121C80202F0E8FA4FF44070019099
:1012800002208DF808008DF8090000208DF80A0072
:1012900001208DF80B0001A9344801F089FF48F2C4
:1012A0006000019002208DF808008DF809000020F0
:1012B0008DF80A0001208DF80B0001A92C4801F0DF
:1012C00077FF4020019001A9284801F071FF0C220E
:1012D0000621274801F0F7FF0C220821234801F0DE
:1012E000F2FF0C220921214801F0EDFF0C2205211B
:1012F0001F4801F0E8FF0C220F211D4801F0E3FF19
:101300000C220621194801F0DEFF00214FF4006095
:1013100002F09BFAFFF700FA31208DF80000002060
:101320008DF801008DF8020001208DF80300684659
:1013300001F04DFEFFF7ACFE044614B9FFF7A1FD26
:101340000446E4B90B4817E028000020D80000202C
:101350002C000020142C014004010020C0000020BB
:10136000000010800080FF80030040000000024069
:101370000004024028010020FFF782FB044634B934
:10138000FA49B1F854100804FFF765FB044624B984
:101390004FF40060FFF72EFB04461CB1F4480078C0
:1013A000032812D1F14890F8560020B1EF4890F888
:1013B0005600012801D1022500E000252846FFF74C
:1013C000CDF90120FFF7C0F9044620463EBD10B517
:1013D000002002F00AFB002010BD70B590B004465A
:1013E0000E46154600BFE34802F015FF0028FAD16B
:1013F000E04802F0E7FD4FF000600190DE48029007
:10140000039404950020059006904FF480600790A7
:10141000800008908000099000200A904FF440302E
:101420000B9004200C9003200D904FF400000E90C0
:1014300080100F9001A9CF4802F066FE2021CD4810
:1014400002F0B2FE0121CB4802F098FE10B070BD50
:101450000146002002E04910421CD0B20129FAD115
:1014600070472DE9F84F8146174698460A9C4FF081
:10147000000AD3464D464FF0FF36B9F1000F02D1B6
:101480002620BDE8F88F0020BB4954390860B848D1
:101490000078022805D10402780A40EAC8574FEACA
:1014A00068280020B54988604860401E0860012017
:1014B00048610020C8600861084602F0CCFAAE48D6
:1014C0006C38006800F0007008B10E20D9E7002CDD
:1014D00021DDB4F5006F1EDC601E2040D8B9204627
:1014E000FFF7B6FF0090A64804601020A4494860AA
:1014F000402088600020C8604FF480600861084682
:1015000002F07DFA1020FFF732F98246BAF1000F9F
:1015100003D05046B5E72620B3E70098000197496D
:101520008860084644604FF0FF3008600120486141
:101530000220C86000200861084602F08CFA90483A
:10154000076011208E494860402088600020C860F4
:101550004FF480600861084602F051FA1120FFF74D
:1015600006F98246BAF1000F01D0504689E7854856
:10157000007800285AD1FEF758FE17E04FF40040DB
:1015800002F0D0FA70B14FF0000B05E07A48006825
:1015900045F82B000BF1010BBBF1080FF6D32035FA
:1015A000794E03E00EB904206BE7761E72484C3882
:1015B000006840F22A6108400028DFD0082002F0CD
:1015C000B1FA20B1082002F0B8FA042059E702204D
:1015D00002F0A8FA20B1022002F0AFFA022050E790
:1015E000202002F09FFA20B1202002F0A6FA062067
:1015F00047E74FF4007002F095FA28B14FF40070FD
:1016000002F09BFA07203CE703E05B480068286093
:101610002D1D4FF4001002F085FA0028F5D1FEF7D9
:1016200006FE40F2FF5002F088FA39E05548007893
:10163000012835D100205549087055490870554991
:1016400008704D484438006840F22A3108434A493E
:101650004439086048485438006840F0080046495A
:1016600054390860002221464846FFF7B6FE00E0E4
:10167000761E40485838006800F0006038B9454888
:10168000007820B94148007808B9002EF0D10EB991
:101690000420F6E63D48007810B13C4890F800A0E0
:1016A0005046EEE62DE9FF5F17469846DDE90E4607
:1016B0004FF00009CA464FF0FF35374900980860DF
:1016C00000202D495439086029480078022805D1A6
:1016D0000402780A40EAC8574FEA682800202749E0
:1016E00088604860401E0860012048610020C86092
:1016F0000861084602F0AFF91F486C38006800F036
:10170000007018B10E2004B0BDE8F09F002C21DD60
:10171000B4F5006F1EDC601E2040D8B92046FFF7EC
:1017200097FE834616480460102015494860402003
:1017300088600020C8604FF480600861084602F0AD
:101740005EF91020FFF713F88146B9F1000F03D0BE
:101750004846D8E72620D6E7012E6ED906FB04F0CE
:10176000B0F1007F1AD32620CDE700002801002029
:101770002800002058640240802C0140EC0000202A
:10178000D800002030000020FFFF7F003200002042
:101790003100002033000020340000204FEA0B10FD
:1017A000F849886006FB04F048604FF0FF3008609D
:1017B000012048610220C86000200861084602F04C
:1017C0004AF9F14807601220EF49486040208860DC
:1017D0000020C8604FF480600861084602F00FF9ED
:1017E0001220FEF7C4FF8146B9F1000F01D0484630
:1017F00089E7E648007800287ED1FEF716FD1EE056
:101800004FF4004002F08EF9A0B14FF0000A07E05B
:10181000DF480068DF49096841F82A000AF1010A37
:10182000BAF1080FF4D3DB4800682030D9490860CA
:10183000D94D04E015B9042065E7AEE06D1ED4482B
:101840004C38006840F22A3108400028D8D00820DF
:1018500002F068F920B1082002F06FF9042052E785
:10186000022002F05FF920B1022002F066F90220A6
:1018700049E7202002F056F920B1202002F05DF95E
:10188000062040E74FF4007002F04CF928B14FF405
:10189000007002F052F9072035E709E0BC48006803
:1018A000BC4909680860BB480068001DB949086068
:1018B0004FF4001002F036F90028EFD14FF4807099
:1018C00002F030F920B3B548007838B1B348007859
:1018D000012803D0B1480078022819D10020AA4974
:1018E00008600C204860402088600020C8604FF4E9
:1018F00080600861084600E011E002F080F80C20EA
:10190000FEF735FF8146B9F1000F01D04846FAE6EF
:10191000FEF78DFC40F2FF5002F00FF93DE09B48CE
:101920000078012839D100209D49087001209D4987
:10193000087000209C49087095484438006840F2BF
:101940002A31084392494439086091485438006864
:1019500040F008008E495439086006FB04F100226B
:101960000098FFF73AFD00E06D1E9048006800F017
:10197000006008B9002DF7D10DB90420C3E600BFFF
:101980008948007818B9864800780028F8D084483B
:10199000007810B1824890F800904846B3E61CB534
:1019A0000446002001900090814800880004764998
:1019B00008600D204860402088600020C8604FF417
:1019C00080600861084602F01AF871484C380068D7
:1019D000009003E06E484C3800680090009800F0DA
:1019E00045000028F6D0012002F09CF820B101202B
:1019F00002F0A3F801201CBD042002F093F820B1EE
:101A0000042002F09AF80320F5E761487038006876
:101A10000D2801D01020EEE740F2FF5002F08DF8C3
:101A20005B486C38006801900198C0F34320207037
:101A30000020E0E72DE9FF5F86B017469846149D29
:101A400000260020059004900024814603908246E1
:101A500002900195DDF818B0DDF818B0BBF1000F69
:101A600003D126200AB0BDE8F09F00204849543930
:101A70000860444988604860401E08600120486151
:101A80000020C8600861084601F0E5FF40486C3856
:101A9000006800F0007008B10E20E3E73F480078CE
:101AA000022805D10502780A40EAC8574FEA68289B
:101AB000002D1FDDB5F5006F1CDC681E2840C8B97D
:101AC0002846FFF7C5FC05902F48056010202E49D9
:101AD0004860402088600020C8604FF48060086142
:101AE000084601F08CFF1020FEF741FE06461EB1AD
:101AF0003046B7E72620B5E72D4800880004224984
:101B000008600D204860402088600020C8604FF4C5
:101B100080600861084601F072FF0D20FEF727FE85
:101B200006460EB130469DE719486C3800680390B0
:101B30004FF0FF341CE0641E1D4800880004124969
:101B400008600D204860402088600020C8604FF485
:101B500080600861084601F052FF0D20FEF707FE85
:101B600006460EB130467DE709486C3800680390A0
:101B7000039800F4807008B9002CDCD1D4B9292076
:101B800070E70000EC000020D800002030000020AA
:101B9000802C014034000020FFFF7F00280000203F
:101BA0003200002031000020330000200064024099
:101BB0002C000020F84807601820F74948604020B2
:101BC00088600020C8604FF480600861084601F01A
:101BD00016FF1820FEF7CBFD06460EB1304641E752
:101BE0000020EE49087005980001ED49886008461C
:101BF00045604FF0FF300860012048610020C86058
:101C00000861084601F027FF4FF0FF34E5480078EF
:101C100000287CD1FEF709FB43E04FF4804001F03F
:101C200081FFC8B30198A0EB0900202821D20198B8
:101C3000A0EB090000F0030020B90198A0EB090017
:101C4000800804E00198A0EB09008008401C029085
:101C50004FF0000A09E0D449DBF8000008600AF1FF
:101C6000010A0BF1040B09F1040902988245F2D331
:101C70000FE04FF0000A05E05BF82A00CA4908604F
:101C80000AF1010ABAF1080FF6D30BF1200B09F1A2
:101C900020096FF0404404E0FFE70CB90420E1E6BE
:101CA000641EC1484C38006840F21A6108400028A0
:101CB000B3D0082001F036FF20B1082001F03DFF2D
:101CC0000420CFE6022001F02DFF20B1022001F018
:101CD00034FF0220C6E6102001F024FF20B11020BE
:101CE00001F02BFF0520BDE64FF4007001F01AFF54
:101CF00030B14FF4007001F020FF0720B2E606E09B
:101D0000FEF795FA40F2FF5001F017FF43E0A548B7
:101D1000007801283FD10020A44908709F4908702D
:101D2000A3490870A0484438006840F21A310843BB
:101D30009D4944390860402229460698FFF74DFB2B
:101D400099485438006840F00800974954390860B1
:101D500000E0641E9748006800F0006008B9002C9D
:101D6000F7D11CB9FFF77AFA04207BE64FF0FF3475
:101D700000E0641E8E48007820B98C48007808B9CD
:101D8000002CF6D10CB904206CE68848007810B11C
:101D90008648007866E640F2FF5001F0CEFE04A8C7
:101DA000FFF7FDFD064603E004A8FFF7F8FD064631
:101DB0003EB99DF810000728F6D09DF810000628BF
:101DC000F2D030464EE62DE9FF5F84B0DDE91247E0
:101DD0000026002003900290002580468146019055
:101DE00007FB04FBDDF810A0DDF810A0BAF1000F2E
:101DF00003D1262008B0BDE8F09F00206A4954397D
:101E00000860674988604860401E0860012048619A
:101E10000020C8600861084601F01DFE62486C3869
:101E2000006800F0007008B10E20E3E76248007817
:101E3000022808D10402DDE90601400A40EAC15047
:101E40004912CDE90601002C1FDDB4F5006F1CDC42
:101E5000601E2040C8B92046FFF7FAFA03904E48AA
:101E6000046010204C494860402088600020C86011
:101E70004FF480600861084601F0C1FD1020FEF7B4
:101E800076FC06461EB13046B4E72620B2E7012FA5
:101E90006FD907FB04F0B0F1007F01D32620A9E73A
:101EA0004548007838B144480078012803D04248BA
:101EB000007802282DD14148008800043649086086
:101EC00037204860402088600020C8604FF4806060
:101ED0000861084601F093FD3720FEF748FC0646EE
:101EE0000EB1304686E72C48076017202A49486023
:101EF000402088600020C8604FF480600861084678
:101F000001F07DFD1720FEF732FC06460EB130468B
:101F100070E72149069808601920486040208860D1
:101F20000020C8604FF480600861084601F067FD3A
:101F30001920FEF71CFC06460EB130465AE70398FE
:101F400000011749886007FB04F048604FF0FF303C
:101F50000860012048610020C8600861084601F05F
:101F60007AFD10480078002872D1451EFEF75DF911
:101F700054E0F8E04FF4804001F0D4FDB0B3ABEB97
:101F80000800202833D2ABEB080000F00300B8B9FA
:101F9000ABEB0800800817E0D800002031000020DB
:101FA000EC00002030000020802C01403200002096
:101FB0003300002000640240280000202C00002094
:101FC000ABEB08008008401C01904FF0000909E0CD
:101FD000FB49DAF80000086009F101090AF1040A76
:101FE00008F1040801988145F2D310E012E04FF0A7
:101FF000000905E05AF82900F149086009F10109D2
:10200000B9F1080FF6D30AF1200A08F120086FF0A1
:10201000404503E00DB90420ECE66D1EE8484C385D
:10202000006840F21A3108400028A3D0082001F0CF
:1020300079FD20B1082001F080FD0420DAE60220BD
:1020400001F070FD28B1022001F077FD0220D1E6F9
:1020500040E0102001F066FD20B1102001F06DFD80
:102060000520C7E64FF4007001F05CFD28B14FF485
:10207000007001F062FD0720BCE64FF4807001F0B3
:1020800051FD00B3CF48007838B1CE480078012820
:1020900003D0CC480078022815D10020CA49086036
:1020A0000C204860402088600020C8604FF48060A9
:1020B0000861084601F0A3FC0C20FEF758FB064619
:1020C0000EB1304696E6FEF7B2F840F2FF5001F04E
:1020D00034FD48E0BD480078012844D10020BC49C7
:1020E00008700120BB4908700020BB490870B44843
:1020F0004438006840F21A310843B1494439086055
:1021000007FB04F140220498FFF767F9AC48543804
:10211000006840F00800AA49543908604FF0FF35C4
:1021200000E06D1EAD48006800F0006008B9002DA9
:10213000F7D11DB9FFF792F804205BE64FF0FF35A9
:1021400000E06D1EA448007820B9A148007808B9C5
:10215000002DF6D10DB904204CE69D48007810B151
:102160009B48007846E640F2FF5001F0E6FC02A8EA
:10217000FFF715FC064603E002A8FFF710FC064631
:102180003EB99DF808000728F6D09DF808000628FB
:10219000F2D030462EE610B54FF4807001F0C2FC4C
:1021A00088B38C480078012814D100208649086043
:1021B0000C204860402088600020C8604FF4806098
:1021C0000861084601F01BFC0C20FEF7D0FA80499C
:1021D000087002E000207E4908707948483800689D
:1021E00040F48070764948390860081D00684CF258
:1021F0003A318843724944390860012076490870B1
:102200007348007810BDFFE7022001F08BFC78B125
:10221000022001F092FC6A48443800684CF23A31DE
:102220008843674944390860022069490870E9E732
:10223000082001F077FC78B1082001F07EFC6048AE
:10224000443800684CF23A3188435D4944390860AB
:1022500004205F490870D5E7202001F063FC78B1C5
:10226000202001F06AFC5648443800684CF23A31AC
:102270008843534944390860062055490870C1E72E
:10228000102001F04FFC78B1102001F056FC4C48B2
:10229000443800684CF23A3188434949443908606F
:1022A00005204B490870ADE74FF4007001F03AFC8F
:1022B00080B14FF4007001F040FC414844380068A0
:1022C0004CF23A3188433E4944390860072040497E
:1022D000087097E7002095E710B5FFF75CFF10BD89
:1022E00070B50446002514B92625284670BD3C4823
:1022F00000880004344908600D2048604020886050
:102300000020C8604FF480600861084601F077FB48
:102310000D20FEF72CFA05460DB12846E6E72848C1
:102320006C38006820602846E0E708B5002000907F
:102330006846FFF7D5FF08B1FF2008BD0098C0F33D
:102340004320FAE72DE9FE4F83460C4691460020D4
:102350000290002625462C46700240EAD5566D02B2
:102360000BF00300F0B14FF0000A18E04FF40070DA
:1023700000904FEA4A20471946EBE0733A46194865
:10238000FFF76FF802904FF400721649584602F0BA
:1023900044FB0BF5007B0AF1010000F0FF0ACA457F
:1023A000E4DB2BE0B9F1010F1ED14FF400702A4697
:1023B000334600905846FFF754F802901EE00000A4
:1023C000802C014028000020D80000203000002090
:1023D0003200002031000020330000200064024061
:1023E0002C000020800100204FF400702A46334664
:1023F000CDE900095846FFF755F902900298BDE86B
:10240000FE8F2DE9FE4F81460C4692460020029039
:10241000002625462C46700240EAD5566D0209F08A
:102420000300F0B14FF0000B18E04FF40072494682
:10243000194802F0F2FA4FF4007000904FEA4B2076
:10244000471946EBE0733A461348FFF7F3FA029058
:1024500009F500790BF1010000F0FF0BD345E4DB37
:1024600016E0BAF1010F09D14FF400702A46334645
:1024700000904846FFF7DEFA029009E04FF4007042
:102480002A463346CDE9000A4846FFF79CFC0290F5
:102490000298BDE8FE8F00008001002010B50446C0
:1024A00000BF0221FE4802F071F90028F9D0214650
:1024B000FB4802F022F900BF0121F94802F066F959
:1024C0000028F9D0F64802F015F910BD10B588B013
:1024D00004460121032001F009F90121080301F05C
:1024E0005FF905221146EF4800F0EDFE05220721B5
:1024F000EC4800F0E8FE05220421EB4800F0E3FE82
:10250000A020069002208DF81C0000208DF81E00EF
:1025100002208DF81D0001208DF81F0006A9E1485A
:1025200000F046FE1020069002208DF81C000020CE
:102530008DF81E0002208DF81D0001208DF81F006F
:1025400006A9D94800F034FE1020069001208DF82D
:102550001C0006A9D34800F02BFE1020D1490883A7
:102560000121000201F071F900214FF4805001F0C7
:102570006CF90020ADF804004FF48270ADF806004D
:102580004FF40060ADF808000020ADF80A00ADF887
:102590000C004FF40070ADF80E00ADF810400020B4
:1025A000ADF812000720ADF8140001A9BC4801F0F5
:1025B00029FF0121BA4802F01FF84FF47A7000F0A9
:1025C000DBFA1020B7494883322000F08DFA48F238
:1025D000FE00FFF763FF322000F086FA1020B149B9
:1025E0000883B24800F080FA1020AE4948833220B8
:1025F00000F07AFA48F2DE00FFF750FF322000F0D8
:1026000073FA1020A74908834FF4FA7000F06CFAAF
:102610001020A4494883322000F066FA48F22010C6
:10262000FFF73CFF322000F05FFA10209D4908833D
:102630004FF4FA7000F058FA10209A49488332207B
:1026400000F052FA48F22820FFF728FF322000F06D
:102650004BFA1020934908834FF4FA7000F044FAC3
:10266000102090494883322000F03EFA48F20130B1
:10267000FFF714FF322000F037FA10208949088351
:102680004FF4FA7000F030FA102086494883322067
:1026900000F02AFA48F28040FFF700FF322000F0F5
:1026A00023FA10207F4908834FF4FA7000F01CFAD7
:1026B00010207C494883322000F016FA4FF4054080
:1026C000FFF7ECFE322000F00FFA10207549088366
:1026D0004FF4FA7000F008FA102072494883322053
:1026E00000F002FA4FF40640FFF7D8FE322000F067
:1026F000FBF910206B4908834FF4FA7000F0F4F9ED
:10270000102068494883322000F0EEF94FF407406A
:10271000FFF7C4FE322000F0E7F91020614908837A
:102720004FF4FA7000F0E0F910205E49488332203F
:1027300000F0DAF948F61E00FFF7B0FE322000F094
:10274000D3F91020574908834FF4FA7000F0CCF900
:10275000102054494883322000F0C6F948F685100D
:10276000FFF79CFE322000F0BFF910204D4908838E
:102770004FF4FA7000F0B8F910204A49488332202B
:1027800000F0B2F948F68510FFF788FE322000F01D
:10279000ABF91020434908834FF4FA7000F0A4F914
:1027A000102040494883322000F09EF948F62B2043
:1027B000FFF774FE322000F097F9102039490883A2
:1027C0004FF4FA7000F090F9102036494883322017
:1027D00000F08AF948F68630FFF760FE322000F0FC
:1027E00083F910202F4908834FF4FA7000F07CF928
:1027F00010202C494883322000F076F948F610402A
:10280000FFF74CFE322000F06FF9102025490883B5
:102810004FF4FA7000F068F9102022494883322002
:1028200000F062F948F6FC50FFF738FE322000F065
:102830005BF910201B4908834FF4FA7000F054F93B
:10284000102018494883322000F04EF948F6FF6006
:10285000FFF724FE322000F047F9102011490883C9
:102860004FF4FA7000F040F910200E4948833220EE
:1028700000F03AF948F6FF70FFF710FE322000F042
:1028800033F91020074908834FF4FA7000F02CF94F
:10289000102004494883322000F026F908E00000A7
:1028A00000300140000002400004024020480100C6
:1028B00049F2FF00FFF7F2FD322000F015F9102079
:1028C0007B4908834FF4FA7000F00EF91020784924
:1028D0004883322000F008F949F2FF10FFF7DEFDCF
:1028E000322000F001F910207149088344F620607D
:1028F00000F0FAF810206E494883322000F0F4F816
:102900004FF4AA40FFF7CAFD322000F0EDF8102086
:10291000674908834FF4FA7000F0E6F81020644924
:102920004883322000F0E0F84FF6F070FFF7B6FD74
:10293000322000F0D9F810205D4908834FF4FA7076
:1029400000F0D2F810205A494883322000F0CCF829
:102950004FF6F170FFF7A2FD322000F0C5F810200D
:10296000534908834FF4FA7000F0BEF81020504924
:102970004883322000F0B8F84FF6F270FFF78EFD72
:10298000322000F0B1F81020494908834FF4FA7062
:1029900000F0AAF8102046494883322000F0A4F83D
:1029A0004FF6F370FFF77AFD322000F09DF810200B
:1029B0003F4908834FF4FA7000F096F810203C4924
:1029C0004883322000F090F84FF6F470FFF766FD70
:1029D000322000F089F81020354908834FF4FA704E
:1029E00000F082F8102032494883322000F07CF851
:1029F0004FF6F570FFF752FD322000F075F8102009
:102A00002B4908834FF4FA7000F06EF81020284923
:102A10004883322000F068F84FF6F670FFF73EFD6D
:102A2000322000F061F81020214908834FF4FA7039
:102A300000F05AF810201E494883322000F054F864
:102A40004FF6F770FFF72AFD322000F04DF8102006
:102A5000174908834FF4FA7000F046F81020144923
:102A60004883322000F040F84FF6F870FFF716FD6B
:102A7000322000F039F810200D4908834FF4FA7025
:102A800000F032F810200A494883322000F02CF878
:102A90004FF6F970FFF702FD322000F025F8102004
:102AA0000349088341F2883000F01EF808B010BDD9
:102AB0000000024010B504466FF0040000F0D4FAA4
:102AC000E11704EB5171C1F3C701394A1170104687
:102AD000007800EB4001C1EBC0104FF6FF7101EA36
:102AE000C0003449088010BD0146314A12784A437B
:102AF0004FF0E0235A6100229A611A46126942F0AF
:102B000001021A6100BF4FF0E022106900F00102DB
:102B10001AB100F48032002AF5D04FF0E022126999
:102B200022F001024FF0E0231A6100229A617047FF
:102B30000146204A12884A434FF0E0235A6100229E
:102B40009A611A46126942F001021A6100BF4FF001
:102B5000E022106900F001021AB100F48032002A6C
:102B6000F5D04FF0E022126922F001024FF0E0238D
:102B70001A6100229A61704770B504464FF40770DD
:102B800094FBF0F0C6B24FF4077094FBF0F100FB39
:102B9000114085B205E04FF40770FFF7C9FF701EC2
:102BA000C6B2002EF7D115B12846FFF7C1FF70BDA0
:102BB000880000208A00002000BF704700BFE54A5F
:102BC000128802F04002002AF9D0C2B2E14B1B1D6C
:102BD0001A80704710B588B004460121084600F0FD
:102BE00085FD0121C80400F0CAFD0B221146DA4818
:102BF00000F069FB0B220C21D74800F064FB4FF476
:102C0000C050069002208DF81C0001208DF81D0098
:102C100000208DF81E0001208DF81F0006A9CE4867
:102C200000F0C6FA02940020ADF80C00ADF80E00DA
:102C3000ADF81000ADF814000C20ADF8120002A998
:102C4000C44800F0FCFF0121C24801F080F80122D5
:102C500040F22551BF4801F030F934208DF80400CE
:102C600003208DF805008DF8060001208DF807007F
:102C700001A800F0ACF908B010BD2DE9F0410546FF
:102C80000C46260AE7B23146284601F08BF800BF11
:102C90008021284601F036F90028F9D03946284627
:102CA00001F080F800BF8021284601F02BF90028B0
:102CB000F9D0BDE8F08170B540F22551A54801F08A
:102CC00037F900287ED0A34801F070F8C4B2212C57
:102CD0000FD10120A14908700020A1490870A14925
:102CE0000870A1490870A1490870A1490870A1495C
:102CF0000870222C10D100209849087001209849B2
:102D00000870002097490870974908709749087023
:102D10009749087097490870232C10D100208F49DB
:102D200008708F49087001208E49087000208E4974
:102D300008708E4908708E4908708E490870242CDE
:102D400010D10020854908708549087085490870B0
:102D50000120854908700020844908708449087062
:102D600084490870252C3FD0262C3DD0272C3BD001
:102D7000282C39D0292C37D02A2C35D02B2C33D0E5
:102D80002C2C31D02D2C2FD02E2C2DD02F2C2BD0E5
:102D9000302C29D0312C27D0322C25D0332C23D0E5
:102DA000342C21D0352C1FD0362C1DD0372C1BD0E5
:102DB000382C19D0392C17D03A2C15D03B2C13D0E5
:102DC0003C2C00E0C5E00FD03D2C0DD03E2C0BD0AC
:102DD0003F2C09D0402C07D0412C05D0422C03D0E9
:102DE000432C01D0442C18D100205C4908705C4968
:102DF00008705C4908705C490870A4F12505012041
:102E00005A49087000205A4908705A4908705A49AE
:102E100008705A4908705A490870472C15D100208B
:102E20004E4908704E4908704E4908704E49087066
:102E30004E4908704E4908704E4908704E49087056
:102E40004E49087001204E490870702C17D100209F
:102E50004249087042490870424908704249087066
:102E6000002542490870012041490870002041496D
:102E70000870414908704149087041490870712C37
:102E800016D1002035490870354908703549087059
:102E900035490870354908703549087001203549B1
:102EA00008700020344908703449087034490870AB
:102EB000722C17D100202949087029490870294926
:102EC00008702949087029490870294908700025A7
:102ED00028490870012028490870002027490870F7
:102EE00027490870732C17D100201C4908701C4911
:102EF00008701C4908701C4908701C4908701C495E
:102F0000087000251B4908701B49087001201B49E7
:102F1000087000201A490870782C1AD100200F4937
:102F200008700F4908700F4908700F4908700F4961
:102F300008700F49087000250E4908700E49087086
:102F40000E4908700E49087041F2B3510148FFF76D
:102F500094FE70BD004C00400000024004000020C0
:102F600005000020060000200700002008000020C7
:102F7000090000200A0000200B0000200C000020A7
:102F80000D0000200948804709480047FEE7FEE79A
:102F9000FEE7FEE7FEE7FEE7FEE7FEE7FEE7FEE709
:102FA00004480549054A064B70470000E50500083E
:102FB00089010008E0AC0120E0DC0120E0BC012038
:102FC000E0BC012032490143324A1160704770B5BC
:102FD000002100230F22C4781CB32E4C246804F473
:102FE000E064C4F5E064C4F30721C1F10404E3B272
:102FF0000A4144789C40E1B28478144021430C0794
:10300000210E254C05786155047804F01F05012434
:10301000AC4005786D11AD0005F1E025C5F8004123
:1030200009E0047804F01F050124AC401B4D06782C
:10303000761145F8264070BD194A0A400243154BE7
:103040001B1F1A60704739B1124A121D12680243E1
:10305000104B1B1D1A6006E00E4A121D12688243B7
:103060000C4B1B1D1A607047042808D14FF0E0215B
:10307000096941F004014FF0E022116107E04FF0CF
:10308000E021096921F004014FF0E022116170474D
:103090000000FA050CED00E000E400E080E100E053
:1030A00080FFFF1F10B504469848844208D10121D3
:1030B000084600F086FB0021012000F082FB76E04C
:1030C0009348844208D10121022000F07AFB0021BC
:1030D000022000F076FB6AE08E48844208D101218C
:1030E000042000F06EFB0021042000F06AFB5EE08B
:1030F0008948844208D10121082000F062FB0021A8
:10310000082000F05EFB52E08448844208D101218F
:10311000102000F056FB0021102000F052FB46E08A
:103120007F48844208D10121202000F04AFB002181
:10313000202000F046FB3AE07A48844208D1012181
:10314000402000F03EFB0021402000F03AFB2EE042
:103150007548844208D10121802000F032FB002113
:10316000802000F02EFB22E07048844208D101212B
:10317000801500F026FB0021A01500F022FB16E0D0
:103180006B48844208D10121401500F01AFB002150
:10319000601500F016FB0AE06648844207D1012161
:1031A000001500F00EFB0021201500F00AFB10BDF9
:1031B000F0B50A4600210023002400BF3DE00125B0
:1031C00005FA01F3156805EA03049C4234D1056849
:1031D0004F000326BE40B543056015794E00B5404B
:1031E0000668354305601579012D02D01579022D49
:1031F00016D185684F000326BE40B54385605579DA
:103200004E00B540866835438560456801268E408E
:10321000B5434560456896798E40B6B23543456002
:10322000C5684F000326BE40B543C560D5794E0042
:10323000B540C6683543C560491C1029BFD3F0BDF1
:103240004FF6FF7101600021017141718171C171FF
:10325000704708B54FF480320092009A0A430092FA
:10326000009AC261C161009AC261C2690092C269DA
:10327000009208BD0246002013690B400BB10120EB
:1032800000E0002070470146086980B2704702469E
:10329000002053690B400BB1012000E00020704773
:1032A0000146486980B27047018370474183704787
:1032B0000AB1018300E04183704741617047426970
:1032C0004A4042617047F0B5002300244D07ED0EDF
:1032D00002FA05F3CE1000F1200555F826504E07EE
:1032E000F70E0F26BE40B543CF1000F1200646F87A
:1032F0002750CE1000F1200555F8265045EA03046A
:10330000CE1000F1200545F82640F0BD0000024037
:103310000004024000080240000C0240001002407D
:103320000014024000180240001C0240002002402D
:103330000024024000280240F948006840F00100E3
:10334000F74908600020F64908310860F448006831
:10335000F4490840F2490860F348091D0860F34841
:10336000EF4984310860F0481038091D0860EC48C6
:10337000006820F48020EA4908600020E8490C3108
:103380000860E7498C31086070470021E44A921CCC
:10339000117011460870704710B5014600220023D5
:1033A00000204A11012A02D1DD4C236808E0022ADC
:1033B00003D1DB4C7034236802E0D94C74342368A9
:1033C00001F01F02012494401C400CB1012000E0D8
:1033D000002010BD38B5002000900024002500BF5B
:1033E0003120FFF7D9FF05460098401C0090009857
:1033F000B0F5A04F01D0002DF2D03120FFF7CCFF67
:1034000008B1012400E00024204638BD0146002018
:10341000C34A106820F0F80040EAC100106070470D
:10342000C349086070470021BD4A703211701170A5
:10343000012802D004280AD104E00121B84A7032E0
:10344000117005E00521B64A7032117000E000BF2E
:1034500000BF7047B7490860704770B5049C41EAE7
:1034600082150126C6EB530645EA0645054345EAA3
:103470000465AB4E361D356070BDAD4908667047BA
:10348000820142EA0172A64B84331A607047A84950
:103490008866704710B5830143EA016343EA02730B
:1034A0009F4C8834236010BDA14908677047A0492C
:1034B000C864704702460020994B0833186820F012
:1034C000EC6042EA01031843954B083318607047DB
:1034D00002460020924B0833186820F0784042EAF8
:1034E000010318438E4B08331860704701460020D3
:1034F0008B4A0832106820F00300084310607047C0
:1035000087480830006800F00C0070470146002032
:10351000834A0832106820F0F000084310607047BA
:10352000014600207E4A0832106820F4E05008432B
:103530001060704701460020794A0832106820F474
:10354000604040EAC10010607047F0B500210022E1
:103550000024022500260223714F08373F6807F038
:103560000C0121B1042905D0082937D105E0724F9B
:10357000076036E0714F076033E0694F3F1D3F68D9
:10358000C7F38056664F3F1D3F6807F03F036EB19B
:103590006A4FB7FBF3F7DFF888C10CF1040CDCF8D5
:1035A00000C0CCF3881C07FB0CF40CE0624FB7FBA7
:1035B000F3F7DFF86CC10CF1040CDCF800C0CCF3BD
:1035C000881C07FB0CF4564F3F1D3F68C7F30147AB
:1035D0007F1C7D00B4FBF5F7076002E0564F0760E3
:1035E00000BF00BF4E4F08373F6807F0F0010909E0
:1035F000534F7A5C0768D7404760494F08373F68A8
:1036000007F4E051890A4E4F7A5C4768D7408760DB
:10361000434F08373F6807F46041490B484F7A5CD5
:103620004768D740C760F0BD002100F44072B2F592
:10363000407F0AD13A4A0832116821F4F811414A10
:1036400002401143364A08321160354A703212681E
:10365000C0F30B031A43324B70331A60704735497D
:10366000443908607047334940390860704736492B
:103670000860704701460020294A8C32106820F00B
:103680001F004A1E1043264A8C32106070470146C4
:103690000020234A8C32106820F4F8504A1E40EA79
:1036A00002201F4A8C3210607047014600201C4ADD
:1036B0008C32106820F440100843106070470146B7
:1036C0000020174A8C32106820F440000843106034
:1036D000704701460020124A8C32106820F44030B6
:1036E00008431060704719490860704739B10C4AA7
:1036F0003032126802430A4B30331A6006E0084A3F
:10370000303212688243064B30331A607047F9B189
:10371000034A343212680243014B34331A601CE00E
:1037200000380240FFFFF6EA10300024003000208D
:1037300000004742800E47420024F40040787D019B
:103740008C000020FFFCFF0F5C014742E011474264
:103750008F4A126882438E4B1A60704739B18C4A87
:10376000121D126802438A4B1B1D1A6006E0884A2C
:10377000121D12688243864B1B1D1A60704739B1B7
:10378000834A0C3212680243814B0C331A6006E004
:103790007F4A0C32126882437D4B0C331A607047AB
:1037A00039B17B4A103212680243794B10331A60E8
:1037B00006E0774A103212688243754B10331A6064
:1037C000704739B1724A243A12680243704B243B65
:1037D0001A6006E06E4A243A126882436C4B243B1E
:1037E0001A60704739B16A4A203A12680243684B3E
:1037F000203B1A6006E0664A203A12688243644B16
:10380000203B1A60704739B1614A1C3A1268024382
:103810005F4B1C3B1A6006E05D4A1C3A126882430B
:103820005B4B1C3B1A60704739B1594A143A126815
:103830000243574B143B1A6006E0554A143A12688B
:103840008243534B143B1A60704739B1504A103AC7
:10385000126802434E4B103B1A6006E04C4A103A85
:10386000126882434A4B103B1A60704739B1484A8C
:103870001C3212680243464B1C331A6006E0444A6D
:103880001C3212688243424B1C331A60704739B1B4
:103890003F4A2032126802433D4B20331A6006E053
:1038A0003B4A203212688243394B20331A607047FA
:1038B00039B1374A243212680243354B24331A6037
:1038C00006E0334A243212688243314B24331A60B3
:1038D000704739B12E4A2C32126802432C4B2C33DC
:1038E0001A6006E02A4A2C3212688243284B2C3395
:1038F0001A60704739B1264A303212680243244BAD
:1039000030331A6006E0224A303212688243204B7C
:1039100030331A607047012808D11D493C310968CD
:1039200041F008011A4A3C32116007E018493C3165
:10393000096821F00801164A3C321160704739B11C
:10394000134A273A12780243114B273B1A7006E0BC
:103950000F4A273A127882430D4B273B1A70704763
:103960000B484030006840F08070094940310860E1
:10397000704701460020064A283A12680A400AB1F8
:10398000012000E000207047014926390870704787
:103990003438024010B50121C802FFF756FF00215C
:1039A0004FF40060FFF751FF10BD00216C4A116811
:1039B00047F6FF629143027D83681A4343681A43C6
:1039C000C3681A4303681A4303691A431143644ADC
:1039D0001160704700210175016041608160C16024
:1039E000016170475F49086070475D49091F0860C1
:1039F00070475B48001F006800F00300704700211B
:103A0000574B1B1D02681A601A1D11686FF30A01DB
:103A1000D0E901231A43C3681A4303691A431143C7
:103A20004F4A083211607047002101604160816097
:103A3000C160016170474A480C300068C0B27047ED
:103A400008B5014600200090454810300844009019
:103A50000098006808BD0021414B203302681A60BD
:103A60001B1D42681A601A1D116821F0F701D0E988
:103A700002231A4303691A4343691A431143384A1C
:103A80002832116070474FF0FF3101600021416022
:103A90008160C16001614161704731482C3000682C
:103AA00070472F487C30006870472D497C31086092
:103AB00070472B484430006870472B4908607047B6
:103AC0002949091D08607047274908310860704777
:103AD00025490C3108607047244908607047234924
:103AE000091D0860704701218143204A0832116096
:103AF00070471E490C31086070471B491439086033
:103B0000704739B1164A383212680243144B3833C1
:103B10001A6006E0124A383212688243104B38337A
:103B20001A607047014600200D4A303212680A4080
:103B30000AB1012000E000207047094934310860D3
:103B4000704701460020064A303212680A400AB126
:103B5000012000E0002070470149343108607047BF
:103B6000042C0140A0802542A0852542AC8125423D
:103B700010B50446FA48844208D101211020FFF70D
:103B800064FE00211020FFF760FE57E0F5488442F4
:103B900009D101214804FFF747FE00214FF400300E
:103BA000FFF742FE4AE0F048844209D1012188042F
:103BB000FFF73AFE00214FF48020FFF735FE3DE08D
:103BC000EA48844209D10121C804FFF72DFE0021F3
:103BD0004FF40020FFF728FE30E0E548844209D189
:103BE00001210805FFF720FE00214FF48010FFF7A8
:103BF0001BFE23E0DF48844208D101212020FFF78B
:103C000024FE00212020FFF720FE17E0DA4884423E
:103C100009D101218807FFF707FE00214FF08040FE
:103C2000FFF702FE0AE0D548844207D10121400592
:103C3000FFF7FAFD00216005FFF7F6FD10BD2DE945
:103C4000FF4705460E460024A14600BFA046B089A6
:103C500000B100BF2C8A24F44054F08804432C8225
:103C6000AC8941F20C608443B08831890843718982
:103C700008430443AC81AC8A24F44074B089044303
:103C8000AC826846FFF761FCB548854202D0B9486E
:103C9000854202D1DDF80C9001E0DDF80890A8899A
:103CA00000F4004040B109EBC90000EB0910316895
:103CB0004900B0FBF1F707E009EBC90000EB091080
:103CC00031688900B0FBF1F76420B7FBF0F0040124
:103CD0002009642101FB1078A88900F4004040B15C
:103CE000322000EBC800B0FBF1F000F00700044305
:103CF00008E0322000EB08106421B0FBF1F000F086
:103D00000F0004432C81BDE8FF874FF4165101607A
:103D100000218180C18001810C21418100218181AC
:103D2000704710B502460020108A20F470600B889E
:103D30004C8823438C882343CC8823431843108228
:103D400010BD0021018041808180C180704721B178
:103D5000828942F40052828104E082894DF6FF7329
:103D60001A4082817047028B02F47F420283028BE9
:103D70000A430283704721B1828942F40042828162
:103D800003E08289C2F30E028281704721B1828AE8
:103D900042F40062828204E0828A4FF2FF731A408A
:103DA00082827047C1F3080282807047014688888A
:103DB000C0F308007047028A4FF6F0731A4002827F
:103DC000028A0A430282704721B1828942F00202CC
:103DD000828104E082894FF6FD731A408281704728
:103DE00082894FF2FF731A40828182890A4382815D
:103DF0007047028A4FF6DF731A400282028A0A4332
:103E00000282704721B1028A42F48042028204E0B9
:103E1000028A4BF6FF731A4002827047818941F093
:103E200001018181704721B1828A42F008028282B9
:103E300004E0828A4FF6F7731A4082827047028B41
:103E4000D2B20283028B42EA01220283704721B17F
:103E5000828A42F02002828204E0828A4FF6DF7377
:103E60001A408282704721B1828A42F01002828217
:103E700004E0828A4FF6EF731A4082827047828A8A
:103E80004FF6FB731A408282828A0A43828270470D
:103E900021B1828A42F00202828204E0828A4FF6D5
:103EA000FD731A40828270471AB1838A0B43838262
:103EB00002E0838A8B4383827047F0B50346002477
:103EC00000260025002040F66A17B94200D100BF45
:103ED0001846C1F3421401F01F06012707FA06F540
:103EE000012C01D10C3004E0022C01D1103000E093
:103EF00014301AB107682F43076002E00768AF4328
:103F00000760F0BD02460020B1F5007F00D100BF80
:103F100013880B400BB1012000E00020704701F432
:103F20000072B2F5007F00D100BFCA430280704723
:103F300070B50246002400230025002040F66A16D2
:103F4000B14200D100BFC1F3421501F01F030126A9
:103F500006FA03F3012D13D19689334017E00000D0
:103F6000001001400044004000480040004C004068
:103F7000005000400014014000780040007C0040E8
:103F8000022D02D1168A334001E0968A33400C128A
:103F9000012606FA04F41688344013B10CB101204E
:103FA00000E0002070BD10B50022002340F66A1426
:103FB000A14200D100BF0A1201249440A3B2DC4305
:103FC000048010BD016821F0010101600021016041
:103FD00041608160C160016121214161DB4988420A
:103FE00004D13D21D94A103A91608CE0D74918316B
:103FF000884205D14FF47461D44A103A916082E04E
:10400000D2493031884205D14FF47411CF4A103A69
:10401000916078E0CD494831884205D14FF0746114
:10402000CA4A103A91606EE0C8496031884204D1B2
:10403000C749C64A103AD16065E0C4497831884220
:1040400004D1C449C14A103AD1605CE0BF49903103
:10405000884204D1C049BD4A103AD16053E0BB49FF
:10406000A831884205D14FF03D51B84A103AD1608D
:1040700049E0BA49884204D13D21B84A083A116062
:1040800041E0B6491831884205D14FF47461B34A12
:10409000083A116037E0B1493031884205D14FF418
:1040A0007411AE4A083A11602DE0AC49483188429B
:1040B00005D14FF07461A94A083A116023E0A7497D
:1040C0006031884204D1A249A44A121F11601AE04B
:1040D000A2497831884204D19E49A04A121F11603A
:1040E00011E09E499031884204D19B499B4A121F9E
:1040F000116008E09949A831884204D14FF03D5140
:10410000964A121F1160704710B500220268944B46
:104110001A40CC680B6823434C6923438C692343C2
:10412000CC6923430C6A23434C6A23438C6A2343A0
:104130004C6B23438C6B23431A430260426922F089
:104140000702D1E90B3423431A4342610B694360F0
:104150004B6883608B68C36010BD002101604160C3
:104160008160C160016141618161C161016241623F
:104170008162C162016341638163704721B102685A
:1041800042F00102026003E0026822F001020260D4
:10419000704721B1026842F40042026003E0026805
:1041A00022F400420260704721B1026842F020020E
:1041B000026003E0026822F0200202607047416062
:1041C00070470146486880B2704722B1036843F4E3
:1041D0000023036003E0036823F40023036001610C
:1041E000704721B1026842F48022026003E0026855
:1041F00022F48022026070470AB1016100E0C160D0
:104200007047014600200A6802F400220AB101202A
:1042100000E000207047014600200A6802F0010219
:104220000AB1012000E000207047014600204A69E1
:1042300002F03800704730B503460A4600200024DB
:10424000464DAB4202D24149103901E04349103991
:1042500002F000550DB14C6800E00C68414D2C4057
:1042600004EA02050DB1012000E0002030BD024645
:104270003A4B9A4202D23548103801E0374810389C
:1042800001F000531BB1374B0B40C36002E0354BCC
:104290000B408360704710B501F080034BB122B131
:1042A000436943F08003436103E0436923F08003E3
:1042B000436180290BD02AB1036801F01E04234317
:1042C000036004E0036801F01E04A343036010BD13
:1042D00070B50246002000240025204EB24202D2D2
:1042E0001A4B103B01E01D4B103B1F4E0E4036B1E8
:1042F0001E2606EAD124166806EA040502E056697D
:1043000006F0800501F000560EB15C6800E01C6804
:10431000144E344004EA010616B10DB1012000E04C
:10432000002070BD02460D4B9A4202D20748103859
:1043300001E00A48103801F000531BB1094B0B4053
:10434000C36002E0074B0B4083607047106002407F
:104350003D000020400F002000003D20106402407E
:104360003F801CF07D0F7D0F3C0F3C0F10B50446C5
:10437000FB48844208D101218014FFF766FA00212E
:10438000A014FFF762FA3CE0F648844208D101210C
:104390000014FFF749FA00212014FFF745FA30E036
:1043A000F148844208D10121C013FFF73DFA0021F2
:1043B000E013FFF739FA24E0EC48844208D10121E8
:1043C0004014FFF742FA00216014FFF73EFA18E0AC
:1043D000E748844209D101210805FFF736FA002198
:1043E0004FF48010FFF731FA0BE0E248844208D125
:1043F00001214805FFF729FA00214FF40010FFF7CB
:1044000024FA10BD10B50022028802F441520B8834
:104410004C8823438C882343CC8823430C89234333
:104420004C8923438C892343CC8923431A4302803C
:10443000838B4FF2FF74234083830B8A038210BD6A
:104440002DE9F04F0025022300244FF0010900223E
:104450000026002794469046B0F81CA04FF2400B6F
:104460000AEA0B0AA0F81CA04FF0020AA0F820A04C
:10447000858BD1F808A0BAF1020F01D100BF82E00C
:10448000B1F804A0BAF1000F02D14FF0010901E028
:104490004FF00209DFF8E0A2DAF800A00AF4000AFF
:1044A000BAF1000F09D0DFF8D0A2DAF800A02AF4A0
:1044B000000ADFF8C4B2CBF800A0DFF8BCA20AF112
:1044C0007C0ADAF800A0CAF3881CDFF8ACA20AF173
:1044D0007C0ADAF800A0CAF30278DFF89CA2AAF1FD
:1044E000040ADAF800A00AF03F07DFF88CA2AAF16C
:1044F000040ADAF800A00AF4800ABAF5800F08D19D
:10450000DFF878A2BAFBF7FA0AFB0CFABAFBF8F666
:1045100007E0DFF86CA2BAFBF7FA0AFB0CFABAFB69
:10452000F8F6B1F806A0BAF5007F0ED14FEA162AC8
:104530000AEB8A0A4FEA4A0AD1F808B0BAFBFBFA3A
:104540000AF1050A1FFA8AF20FE04FEA491AB6FB90
:10455000FAFA0AEB8A0A4FEA4A0AD1F808B0BAFB1B
:10456000FBFA0AF1050A1FFA8AF24FF00A0AB2FBB7
:10457000FAF202F00104A2EB040ACAF34F034FF669
:10458000FF7A0AEA0424022B01DBFF2B01DD022360
:104590000024B1F806A04AEA040A4AEA030AA0F88D
:1045A00020A0B1F804A0B1F80CB04AEA0B0AB1F8A7
:1045B00002B04AEA0B0AB1F800B04AEA0B0A4AF420
:1045C000006A4AEA05058583BDE8F08F0021018075
:1045D00041808180C180018141818181C181072128
:1045E000018270470021018041808180C1800221C9
:1045F000816000218181704721B1028842F0400230
:10460000028004E002884FF6BF731A4002807047B0
:1046100021B1828B42F48062828304E0828B4FF668
:10462000FF331A408283704702884FF2FF731A40AB
:10463000028002880A4302807047B1F5804F04D19E
:10464000028842F48042028004E002884BF6FF7345
:104650001A40028070474FF6FF62914204D00288F0
:1046600042F48072028004E002884FF6FF631A4031
:104670000280704721B1828842F00402828004E007
:1046800082884FF6FB731A408280704721B182887E
:1046900042F01002828004E082884FF6EF731A40E5
:1046A0008280704730B500220023848B4FF2400592
:1046B0002C40848302240484828B0C88B4F5007F10
:1046C00001D00C8814B94FF4807308E00C88B4F55D
:1046D000407F03D00C88B4F5807F00D100238C8804
:1046E0008D892C434D882C431C4344F400642243A1
:1046F000828330BD0146888970478181704721B12E
:10470000028842F40052028004E002884DF6FF73F2
:104710001A4002807047018841F48051018070473F
:1047200002460020012901D0108B00E0908A7047DA
:104730000146088A70471AB183880B43838002E0E0
:1047400083888B438380704730B5002400230C118D
:104750000125A540ABB2AAB185881D43858014E030
:104760000030014000380040003C0040003401406F
:1047700000500140005401400838024040787D015B
:104780000024F40085889D43858030BD02460020CA
:1047900013890B400BB1012000E000207047CA4391
:1047A00002817047F0B50246002000240023002556
:1047B00001F00F070126BE40B4B20B1101269E4046
:1047C000B3B2968806EA03051689264016B10DB1E4
:1047D000012000E00020F0BD10B5002201F00F0420
:1047E0000123A3409AB2D343038110BD70B50346A1
:1047F0000C4603E014F8015B03F8015B151EA2F1FF
:104800000102F7D170BD30B5034601E003F8011B8A
:10481000141EA2F10102F9D130BD10B504467A4947
:1048200051F824104A00794951F824000021FFF77B
:10483000EAFF774951F8242074490C3951F82400D3
:104840000021FFF7E0FF012170480C30015510BD39
:1048500010B501460023002207E06C4850F8210003
:1048600030F8120000B15B1C521C674850F8210060
:104870009042F2D864205843634C54F82140B0FB76
:10488000F4F0C0B210BD2DE9F04704460F460025F4
:10489000A9465E480C30005D20B95C4814380168B8
:1048A000204688471FB94FF0FF30BDE8F0875948D0
:1048B00050F82400B7FBF0F6564850F82400B7FB38
:1048C000F0F100FB117000B1761C4F4850F8240045
:1048D000451E20E04D4850F8240030F8150010B96E
:1048E00009F1010901E04FF00009B14512D14FF083
:1048F000000808E0454850F8240005EB080220F8BD
:10490000126008F10108B045F4D3424850F8240081
:104910006843CAE76D1E002DDCDA4FF0FF30C4E7B4
:104920002DE9F04104460E4638480C30005D38B998
:10493000364814380168204688470120BDE8F081D8
:10494000334850F82400B04217D9324850F82400B8
:10495000B6FBF0F12D4850F8240030F81120002566
:1049600007E00023294850F824004F1920F8173099
:104970006D1C9542F5DB0020E0E70220DEE770B514
:1049800005460C4604B970BD20480C3850F8250087
:10499000261A31462846FFF7C3FF00BFF3E770B57C
:1049A00004460E4631462046FFF76DFF0546681C5B
:1049B00008B9002070BD15480C3850F82400284470
:1049C000F8E72DE9F04104460F46164631462046E9
:1049D000FFF759FF0546681C10B90020BDE8F081BB
:1049E0000A490C3951F82410481932463946FFF764
:1049F000FDFE39462046FFF7C2FF04480C3850F848
:104A000024002844EAE70000804B0008B0000020A2
:104A1000984B00088C4B00087047032A40F2308006
:104A200010F0030C00F0158011F8013BBCF1020FEF
:104A3000624498BF11F801CB00F8013B38BF11F870
:104A4000013BA2F1040298BF00F801CB38BF00F887
:104A5000013B11F0030300F02980083AC0F0088000
:104A600051F8043B083A51F804CBA0E80810F5E7E8
:104A7000121D5CBF51F8043B40F8043BAFF30080CB
:104A8000D20724BF11F8013B11F801CB48BF11F840
:104A9000012B24BF00F8013B00F801CB48BF00F810
:104AA000012B7047704770477047704710B5203A28
:104AB000C0F00B80B1E81850203AA0E81850B1E8D7
:104AC0001850A0E81850BFF4F5AF5FEA027C24BF8D
:104AD000B1E81850A0E8185044BF18C918C0BDE884
:104AE00010405FEA827C24BF51F8043B40F8043B4D
:104AF00008BF7047D20728BF31F8023B48BF11F802
:104B0000012B28BF20F8023B48BF00F8012B70475B
:104B1000754600F02BF8AE4605006946534620F076
:104B20000700854618B020B5FEF73AFABDE82040E8
:104B30004FF000064FF000074FF000084FF0000B59
:104B400021F00701AC46ACE8C009ACE8C009ACE80C
:104B5000C009ACE8C0098D46704710B50446AFF3F4
:104B600000802046BDE81040FBF757BB0048704767
:104B700080AC01204FF04070E1EE100A7047000059
:104B8000800C00000078000080070000200000007A
:104B900020000000200000000090010000000F0035
:104BA00000F00000C44B000800000020C00000001E
:104BB000C4010008844C0008C000002020DC010073
:104BC000E0010008000000000000000000000000FC
:104BD000000000006400000000BD010500000000AE
:104BE000000000000102030406070809000000009D
:104BF00000000000010000000000000000000001B3
:104C00000002000300040005000600070008000978
:104C1000000A000B000C000D000E000F0010001128
:104C200000120013001400150016001700180019D8
:104C3000001A001B001C001D001E001F0020002188
:104C4000002200E800E900EA00EB00EC00000000B0
:104C50000000000001020304010203040607080922
:104C60001B4800085148000880030020000000682D
:104C7000000000108093012000000F6800F0001079
:044C80000000000030
:040000050800018965
:00000001FF
