:020000040800F2
:10000000982300202902000831020008330200086A
:10001000350200083702000839020008000000001D
:100020000000000000000000000000003B0200088B
:100030003D020008000000003F020008FF320008F7
:10004000430200084302000843020008430200087C
:10005000430200084302000843020008430200086C
:10006000430200084302000843020008430200085C
:10007000430200084302000843020008430200084C
:10008000430200084302000843020008430200083C
:10009000430200084302000843020008430200082C
:1000A000430200084302000843020008430200081C
:1000B000430200084302000843020008430200080C
:1000C00043020008430200084302000843020008FC
:1000D00043020008430200084302000843020008EC
:1000E00043020008430200084302000843020008DC
:1000F00043020008430200084302000843020008CC
:1001000043020008430200084302000843020008BB
:1001100043020008430200084302000843020008AB
:10012000430200084302000843020008430200089B
:10013000430200084302000843020008430200088B
:10014000430200084302000843020008430200087B
:10015000430200084302000843020008430200086B
:10016000430200084302000843020008430200085B
:100170004302000843020008430200080000000098
:10018000430200084302000800F002F800F03CF8C7
:100190000AA090E8000C82448344AAF10107DA45E2
:1001A00001D100F031F8AFF2090EBAE80F0013F0F8
:1001B000010F18BFFB1A43F00103184780350000F8
:1001C000A0350000103A24BF78C878C1FAD8520789
:1001D00024BF30C830C144BF04680C6070470000C1
:1001E0000023002400250026103A28BF78C1FBD840
:1001F000520728BF30C148BF0B6070471FB503F0DE
:100200004FFA1FBD10B510BD00F01BFC1146FFF7E3
:10021000F5FF03F025F900F039FC03B4FFF7F2FF16
:1002200003BC00F041FC0000094880470948004732
:10023000FEE7FEE7FEE7FEE7FEE7FEE7FEE7FEE796
:10024000FEE7FEE704480549054A064B70470000F3
:10025000A13300088901000898010020982300209C
:1002600098030020980300200D4B70B500215C68B6
:1002700019800A464EF661262589AD0708D569B969
:10028000207300BF00BF1B7A0BB100BF00BF70BD61
:10029000013292B2B2424FF00101EDD11A80EFE784
:1002A0002C010020154900234A6830B50B804EF61A
:1002B00061251489240603D4148904F4C0541CB1A4
:1002C00001339BB2AB42F4D1138913F041030AD13D
:1002D00010730B8018464EF661251489E40704D587
:1002E0004BB9107B30BD9389EEE7013080B2A84254
:1002F0004FF00103F1D10880F3E700BF2C0100208B
:1003000010B5002002F03CFB0420FFF7ADFF0020F9
:10031000FFF7C8FF0446012002F032FB204610BD63
:1003200010B50446002002F02BFB0120FFF79CFFD4
:100330002046FFF7B7FF0120BDE8104002F020BBC8
:100340002DE9F84305460E461746FFF7D9FF01236E
:10035000AB405CB244EA0003DBB2984217D1022DF5
:1003600013D0052D36D1AEB931E0022D2FD118466C
:10037000FFF7D6FF184B93F909300BB1FFF7C0FF19
:100380003846BDE8F84302F00FBB1EB9EFE7002E78
:10039000EBD0034698464EF66026FFF7B1FF431EAA
:1003A000DBB2FD2B814601D8404507D0013E01203C
:1003B000B6B202F0F9FAC846002EEED144EA0803BC
:1003C000DBB29845D1D1022DD1D0052D02D103F059
:1003D000FB03CCE7BDE8F8832C01002070B506468E
:1003E00069B3202928BF202100200C4602F0C8FA5A
:1003F0000220FFF739FF0020FFF736FF354615F8DA
:10040000010BFFF731FFAB1BDBB29C42F7D80C4A64
:100410000021546811800B464EF6612520890006A4
:1004200005D451B90120BDE8704002F0A9BA0133EA
:100430009BB2AB424FF00101F0D11380F2E770BDE7
:100440002C01002038B504464CF25035FFF758FF18
:10045000FF2801D0C3070FD4012002F0A5FA681EBF
:1004600085B2002DF2D14CB1FFF74AFF000240F0F7
:1004700010002080284638BD0120FCE72046FAE71E
:1004800038B504464CF25035FFF73AFFFF2801D04B
:1004900083070DD5012002F087FA013DF4D14CB15C
:1004A000FFF72EFF000240F011002080284638BDE3
:1004B0000120FCE72046FAE72DE9F041002948D069
:1004C000202928BF2021064600200F4602F058FAB6
:1004D0000320FFF7C9FE0020FFF7E4FE0020FFF72E
:1004E000C3FEB7F1010EDFF880C036D00025DCF87E
:1004F0000400A8464EF661247119002301E0A342CE
:1005000004D002890133D2079BB2F8D50135EDB290
:10051000037B0B70754580F80C80EDDB2E440023C7
:100520001C46ACF800304EF6612504E08BB2AB42BD
:100530004FF0010414D00289D20703F10101F5D56F
:1005400074B9037B3370012002F01AFA3846BDE813
:10055000F0810F463846BDE8F081DCF80400DEE7A4
:10056000ACF80030EDE700BF2C0100202DE9F04190
:10057000054601240E46AC40FFF7C2FEE44364B2D8
:1005800004EA0003DBB29842074621D04EF660250C
:10059000FFF7B6FE431EDBB2FD2B804601D8B84202
:1005A00007D0013D0120ADB202F0FEF94746002D13
:1005B000EED104EA0700C0B2B84209D000F0FB0057
:1005C000FFF7AEFE26B13046BDE8F04102F0ECB9CF
:1005D000BDE8F08170B50024114D2646E2B2AB5C57
:1005E000533B012B98BFAE54835C533B012B98BF08
:1005F0008654A956835641B11BB1994204F10104B6
:10060000ECD0994204DD012007E0002BFBDB05D094
:100610008B42D4BF01204FF0FF3070BD1846FCE77D
:100620006400002010B50C46FFF7D4FF002808DA5C
:100630004CB1FFF765FE000240F0770020800120FA
:1006400010BD0020FCE70120FAE72DE9F047099CE6
:100650000778054691461E46FFF7C0FE0A2002F0C5
:10066000A3F94FF6FF78013EB6B2464505D12046C4
:10067000FFF706FF70B9002047E0FA2002F094F976
:10068000FA2002F091F9FA2002F08EF9FA2002F035
:100690008BF9E8E7BDF820304FF47A765E434FF0EF
:1006A000000A4CF25033B6FBF3F601361FFA8AF318
:1006B0009E42E0D94CF25038FFF722FE8038C0B29B
:1006C0007E2824D80CB10023238049462846FFF712
:1006D000F3FE0A2002F068F900210720FFF746FF29
:1006E000697800231A46481C5E1C9BB2984227DAA0
:1006F00029448B78934228D0002CBCD0FFF700FE11
:10070000000240F0300020800020BDE8F08708F1B2
:10071000FF3801201FFA88F802F046F9B8F1000FFF
:10072000CAD154B1FFF7ECFD00022080012002F095
:100730003BF9238843F0160323800AF1010AB5E749
:10074000EB5C1A44D2B23346CEE72B7823F0800319
:10075000BB420DD0362F01D1252B09D0002C8AD0D9
:10076000FFF7CEFD000240F0310020800020CCE7F2
:1007700000211548FFF756FF20BBAB78782B21D11D
:10078000002C3FF478AFFFF7BBFD000280B2208061
:10079000EB78032B11D8DFE803F01502070B40F0CC
:1007A000450020800020B0E740F04600208062E74E
:1007B00040F0470020800020A7E740F0480020805C
:1007C0000020A2E70120A0E72A37000830B5044640
:1007D0008FB00D4609B100230B802846FFF732FE8B
:1007E00000283FD00A210720FFF7C0FE012108465C
:1007F0000A22FFF7A5FD42231B488DF818308DF81B
:100800001A40002306ACE218195CD1700133102B9A
:10081000F9D1164A10685168127A03AB03C31A70F3
:1008200000238DF8153003A8E218C15CD1740133A0
:100830000A2BF9D11B2300228DF819301346A15C35
:1008400001320B441D2ADBB2F9D18DF8353000237B
:100850000195009320221E212046FFF7F6FE00306E
:1008600018BF01200FB030BDBA360008CA360008E4
:100870002DE9F0410024DFF8508007462546BD42AF
:1008800008D14120FFF74CFD0A2002F08DF82046E8
:10089000BDE8F08105F0DA0646F001063046FFF7C4
:1008A0003FFD00214046FFF7BDFE48B10A2002F09F
:1008B0007BF8FFF725FD864208BF01340135DEE7EE
:1008C000012002F071F8F4E7DA3600081FB5029350
:1008D0000023CDE9003300F0EFF805B05DF804FB2C
:1008E0002DE9FF410B9C05460E460B482146174655
:1008F0009846FFF797FE68B9BDF828300294CDE915
:1009000000833A4601233146284600F0D5F804B06A
:10091000BDE8F0810020FAE7223700082DE9FF4109
:100920000B9C05460E46174698460CB100232380C3
:1009300021460A48FFF776FE68B9BDF828300294D0
:10094000CDE900833A4601233146284600F0B4F849
:1009500004B0BDE8F0810020FAE700BFE2360008ED
:1009600070B505468AB00E4614460AB100231380BE
:100970002046FFF767FDF8B10A210720FFF7F6FDD3
:10098000012108460A22FFF7DBFC40F21623ADF8EE
:1009900008308DF80B60002318368DF80A5001944A
:1009A000354400932022052102A88DF80C50FFF752
:1009B0004CFE003018BF01200AB070BD4FF0013C62
:1009C00050F8042B51F8043B9A4221D1A2EB0C03BE
:1009D000934313EACC1317D150F8042B51F8043B7E
:1009E0009A4215D1A2EB0C03934313EACC130BD11B
:1009F00050F8042B51F8043B9A4209D1A2EB0C03A6
:100A0000934313EACC13DBD04FF00000704700BFD4
:100A1000D01A01BAB1FA81F101F0180122FA01F0FD
:100A2000CB40C1F12001DBB2C0B2C01A2CFA01F3F5
:100A3000D11A914311EAC311E6D17047704770474C
:100A40007047754600F02CF8AE46050069465346DF
:100A500020F00700854618B020B5FFF7F3FBBDE88E
:100A600020404FF000064FF000074FF000084FF015
:100A7000000B21F00701AC46ACE8C009ACE8C009A6
:100A8000ACE8C009ACE8C0098D46704710B5044613
:100A9000AFF300802046BDE81040FFF7BEBB00006A
:100AA000004870473801002001491820ABBEFEE71E
:100AB00026000200704700002DE9F04F91B0074674
:100AC0001C9C1A9DBDF86C800E46924699460CB14E
:100AD00000232380002E00F0ED80B9F1010F13D127
:100AE000B848FFF777FD002804A813DA0023E95679
:100AF000C1549AB219B101330F2BF8D11A4610AB79
:100B00001A44002302F8303C2046FFF79BFC50B902
:100B10000025A4E023461422294600F085FD002884
:100B2000F2D10546C5E0FFF7EBFB00F07B0343F095
:100B30000203984205461DD04FF47A7BFFF7E0FB95
:100B4000A84203900BD0012001F02EFF0BF1FF3BD8
:100B5000039B1FFA8BFB1D46BBF1000FEED105F086
:100B60007B0040F00200A84204D0FFF7D9FB0A2026
:100B700001F01AFF4FF48063ADF82030B9F1010F96
:100B80004FEA16238DF823308DF822A08DF82460CB
:100B90004FF0000333D08DF825309DF8210000215F
:100BA00001300A468BB2834210AD01F101012B44A2
:100BB00047DD03F8202C9DF8211001940331002318
:100BC00000930422C9B208A8FFF73FFD00289FD078
:100BD0009DF82250002D00F0CA801CB1FFF790FB59
:100BE000000220809DF82230F63B092B00F2B680EF
:100BF000DFE803F0ABA29A91887F766D642C8DF8C4
:100C0000259004A819569AB281B9931D9BB208A9E0
:100C100000209AB2152A11D94FEA18238DF83630E0
:100C200016238DF837808DF82130B6E708AA1A44CC
:100C30000133102B9171E5D11A46E6E75854013380
:100C4000E7E713F8203C1A44D2B2ABE71CB1238883
:100C500043F012032380C82001F0A6FE00250A22DB
:100C600001210220FFF76CFB022001F09DFE0F2402
:100C7000FFF746FBFF2801D043070BD4013C0120BE
:100C8000A4B201F091FE002CF2D10A22012102202F
:100C9000FFF756FBAE420CD8B6F5807F09D8F92E87
:100CA00000F28E80142001F07FFEF043C0B201F00C
:100CB0007BFE2E46304611B0BDE8F08F002C3FF48D
:100CC00027AF238843F0130323800025C7E7002CB8
:100CD0003FF41EAF238843F0140323800025BEE7B2
:100CE000002C3FF415AF238843F015032380002523
:100CF000B5E7002C3FF40CAF238843F018032380A2
:100D00000025ACE7002C3FF403AF238843F0190320
:100D100023800025A3E7002C3FF4FAAE238843F09C
:100D20001A03238000259AE7002C3FF4F1AE2388B4
:100D300043F01B032380EBE6002C3FF4E9AE23884D
:100D400043F01C032380002589E7002C3FF4E0AE2C
:100D5000238843F01D032380002580E7002C3FF407
:100D6000D7AE238843F01F032380002577E70B20AD
:100D700001F01AFEDFF85090AE427FF670AFA6EB9E
:100D80000508B8F1200FD4BF1FFA88F84FF02008EB
:100D90005FFA88F17819FFF721FB99F909305BB9FF
:100DA0000B2001F001FE2046FFF76AFB00283FF40C
:100DB00056AF4544ADB2DFE7062001F0F5FDF2E79E
:100DC0000A2074E7EA3600082C0100202DE9F043E0
:100DD0008BB08046139D0F4691461E460DB10023F1
:100DE0002B8029463548FFF71DFC044620B100241E
:100DF00020460BB0BDE8F0832846FFF723FB002810
:100E0000F5D00A210720FFF7B1FB01210A2208468D
:100E1000FFF796FA1B2E334628BF1B239A1C8DF82A
:100E200009209DF848208DF80A208DF808808DF85B
:100E30000B7022469BB291B28B4207D902A9114492
:100E400019F80200087101321B2AF4D19DF809003B
:100E500000230130194603E012F8202C1344DBB2C2
:100E60008AB282420AAE01F101013244F4DDB8F1E6
:100E7000280F02F8203C1CD1FF2F0CBF4FF47A73CF
:100E80000A230022009201952022C9B202A8FFF78E
:100E9000DCFB0028ACD09DF80A406CB9002DA7D02F
:100EA000FFF72EFA9DF80A30803343EA00202880AD
:100EB0009EE74FF47A73E4E7012499E7F2360008DD
:100EC0002DE9F04F8BB00546189E9DF850B0BDF847
:100ED0005470BDF858800C46924699460EB10023D6
:100EE00033803046FFF7AEFA002850D00A210720A1
:100EF000FFF73CFB01210A220846FFF721FA4FEADF
:100F000018238DF80A303B0A8DF80C308DF808A0B4
:100F10008DF80B808DF80D708DF80EB000231FFA40
:100F20008BF299B2914235D30BF1050300218DF874
:100F300009300A460BF1060B8BB25B450AA801F19A
:100F4000010103442DDD03F8202C9DF85C309DF851
:100F5000091001961E2B28BF1E23C3EB431203EB7F
:100F60008203DB009BB20331009320220023C9B22D
:100F700002A8FFF76AFB50B19DF80A30E3B99DF86B
:100F80000920227021789AB291420FD801200BB02B
:100F9000BDE8F08F02A9194419F80300C8710133A4
:100FA000BFE713F8203C1A44D2B2C5E702AA1A449C
:100FB0009278EA540133E5E70020E8E7F7B51646F2
:100FC000334A344C0D4620F4806100239142019352
:100FD00008BF0123606023720EB1002333800388B1
:100FE0002D4F03F038030193018821F038010904E3
:100FF000090C0180038843F010030380018821F06D
:1010000001010904090CBD420180314632D9012099
:10101000FFF7DCFB002832D06368198821F0380123
:101020000904090C1980019A19880A4392B2BD4239
:101030001A8027D8FA2001F0B7FCFA2001F0B4FC9E
:10104000FA2001F0B1FCFA2001F0AEFC0021334699
:10105000124A084600F034F888B11148FFF7BAFA8E
:101060000028ACBF012300230E486372FFF7B2FAD9
:10107000012005E00220FFF7A9FB0028CCD10020C9
:1010800003B0F0BD1A8842F001021A80D2E700BF17
:10109000003800402C010020FF2C310164000020AA
:1010A000DA3600081A37000813B5049CCDE900347D
:1010B00013460A4601462820FFF788FE02B010BDFD
:1010C000F0B507468BB00E4615461C460BB1002303
:1010D00023802046FFF7B6F9B8B30A210720FFF7AF
:1010E00045FA012108460A22FFF72AF91F23ADF825
:1010F00008308DF80A300023019400932022032148
:1011000002A8FFF7A2FA00B377B19DF80A309DF864
:101110000B2002EB03229DF80C3003EB02229DF81A
:101120000D3003EB02233B6016B19DF80E30337097
:101130009DB19DF80F1000239AB28A4202D2172B5C
:1011400005D11A460023AB5401200BB0F0BD02AA12
:101150001A44127AEA540133EEE70120F5E730B57C
:1011600005468BB00C4609B100230B802046FFF7E3
:1011700069F9D0B10A210720FFF7F8F901210846E3
:101180000A22FFF7DDF81023ADF808308DF80A3099
:101190000023019400932022032102A8FFF755FAAF
:1011A00018B19DF80A302B7001200BB030BD30B55E
:1011B00005468BB00C4609B100230B802046FFF793
:1011C00041F9D0B10A210720FFF7D0F901210846E3
:1011D0000A22FFF7B5F81223ADF808308DF80A306F
:1011E0000023019400932022032102A8FFF72DFA87
:1011F00018B19DF80A302B7001200BB030BD30B50E
:1012000005468BB00C4609B100230B802046FFF742
:1012100019F910B900200BB030BD0A210720FFF7E3
:10122000A5F9012108460A22FFF78AF81123ADF833
:1012300008308DF80A300023019400932022032106
:1012400002A8FFF702FA0028E4D00DF109026B1E94
:1012500005F10E0012F8011F03F8011F09B19842B1
:10126000F8D10023EB730120D5E700002DE9F0430E
:101270008DB08046C548149C0D4617461E46FFF7A4
:10128000A9F9002800F398800CB1002323802046A0
:10129000FFF7D8F808B9002553E00A210720FFF727
:1012A00065F9012108460A22FFF74AF80CA841F621
:1012B000225320F8203D002318F8032022B1C11842
:1012C00001330D2B8A70F7D100238DF81F30EA5CB3
:1012D00022B1C11801330D2B0A74F8D100238DF807
:1012E0002D308DF82E701A46C15C01330A441F2B35
:1012F000D2B2F9D100278DF82F2020220194009737
:101300003B461146FFF7A1F90028C4D09DF81250C2
:101310006DB106EB8606B846B04516D1002CBAD0A2
:10132000FEF7EEFF000240F032002080B3E7002C11
:10133000B1D0FEF7E5FF9DF81230803343EA00207C
:10134000208028460DB0BDE8F083C827FA2001F0C0
:101350002BFBFA2001F028FB013FFA2001F024FBCF
:10136000BFB2FA2001F020FB002FEFD121460DF192
:101370000F00FFF71CFF012805460BD19DF80F3029
:10138000042B00F0098108D8022B00F0E680032B23
:1013900000F0F18008F10108BEE7052BD1D0FF2B4A
:1013A000F8D1002C3FF477AFFEF7AAFF000240F01F
:1013B0004C0020803D46C4E77548FFF70BF9002834
:1013C0000ADC7448FFF706F9002805DB204600F028
:1013D000EFF8FA2001F0E8FAB8F1000F3BD1002253
:1013E00000943B461146FF20FFF75EFE00283FF4C5
:1013F00052AF06EB8609A9F1070906EB86064FF006
:10140000000846458AD0C827FA2001F0CDFAFA2014
:1014100001F0CAFA013FFA2001F0C6FABFB2FA2081
:1014200001F0C2FA002FEFD1214604A8FFF7BFFE5A
:10143000012805460CD19DF81030042B00F0AC803B
:1014400000F28480022B00F08880032B00F0908053
:1014500008F10108D5E708F120014346A3EB080293
:1014600013F8019BD2B2B9F1000F07D08B42F5D12E
:1014700020221B3A5FFA82F91B2201E01A2AF8D8CF
:101480000023009441461846FFF70EFE00283FF463
:1014900002AFB9F1000F13D1002DA0D005F140012A
:1014A0002B465A1B13F8018BD2B2B8F1000F12D0A1
:1014B0009942F6D140221B3A5FFA82F81B220CE0D7
:1014C000009400234A4608F11B011020FFF7ECFDB1
:1014D0000028E1D1DFE61A2AEDD80094002329463E
:1014E0000120FFF7E1FD00283FF4D5AEB8F1000F71
:1014F0003FF475AFB8F11A0F82BFA8F11B024FF08D
:101500001B085FFA82F900944FF00003424605F190
:101510001B014FF0200098BF4FF00009FFF7C4FDFA
:1015200000283FF4B8AEB9F1000F3FF458AF4A4677
:10153000092A28BF09220094002305F13601212041
:10154000FFF7B2FD00287FF44AAFA4E6052B3FF475
:10155000F8AEFF2B3FF425AF7AE7002C3FF49BAEAB
:10156000FEF7CEFE000240F04B0020803D46E8E64C
:10157000C1453FF76DAF002C3FF48DAEFEF7C0FEC6
:10158000000240F04A0020803D46DAE60A370008B3
:10159000123700082A370008002C3FF47CAEFEF713
:1015A000AFFE000240F04D0020803D46C9E600BF7E
:1015B00030B501468BB005461A48FFF733F80446AC
:1015C00018B1002420460BB030BD05B12880284654
:1015D000FEF738FF0028F4D00A210720FEF7C6FFE7
:1015E000012108460A22FEF7ABFE002320220195C6
:1015F0000093032102A8ADF808208DF80A20FFF718
:1016000024F80028DED09DF80A4044B9002DD9D036
:10161000FEF776FE000240F04E002880D2E701245B
:10162000D0E700BF2A3700082DE9F04F91B01C46E3
:101630000023074616468DF81F308A4661B924B943
:101640000025284611B0BDE8F08FFEF759FE0002D4
:1016500040F04F002080F3E701F580720B46A3EBCA
:101660000A0813F9011B1FFA88F819B19342F6D141
:101670004FF4807808F1FF33FE2BE0D8B8F11B0F50
:101680002AD8002C61D121468B48FEF7CBFF0546B6
:101690000028D5D1894B08AA03F1100E904618688E
:1016A00059689446ACE80300083373456246F6D1A6
:1016B00000231AF9031018F90320914240F0A0808A
:1016C0000133102BF5D1002318F80320FA5401330D
:1016D000102BF9D10125B4E721467948FEF7A2FF86
:1016E0000028CED104B120804FF0000BA8EB0B09ED
:1016F000B9F1170FD4BF5FFA89F94FF01809CDE996
:101700000364CDE901B8CDF800900AEB0B03362253
:101710000DF11F0108A8FFF7D3FB0546002856D19D
:10172000002C8DD0FEF7ECFD9DF82030000280B239
:10173000FC2B20803FD02FD89C2B44D001D3FA2BF8
:101740003DD240F03D0020807BE7002323809AE7D4
:1017500012F8202C1344DBB27CE008EB0300C078C5
:10176000F854002800F0A48001330F2B40F09C8037
:1017700019469DE0002C3FF463AFFEF7C1FD9DF8D4
:101780002230000280B2FA3B2080052BD9D8DFE856
:1017900003F01616120E0A06FE2B04D007D940F0ED
:1017A0003A0020804DE740F03B00208049E740F0C0
:1017B0003C00208045E740F05E00208041E740F09B
:1017C0005F0020803DE740F04F00208039E7CB44A8
:1017D0001FFA8BFBC34589D39DF81F0000239AB2E3
:1017E000904202D80023BB5474E708A919444978F1
:1017F000F9540029F6D001330F2BF0D11A46F1E746
:101800002046FEF71FFE00283FF41AAF0A210720EA
:10181000FEF7ACFE01210A220846FEF791FD2523C2
:101820008DF820308DF8226000231AF9031008EBA0
:1018300003009AB2C17019B101331B2BF5D11A46BE
:10184000D11C10AB58180232002300F8203C8DF850
:101850002120184682B291420DF1400C00F10100A6
:101860006244BFF675AF1E2E28BF1E2602F8203C2C
:10187000C6EB461306EB83069DF821100194F60093
:101880000331B6B2009600232022C9B24046FEF7CB
:10189000DCFE00283FF4D4AE9DF82230002B7FF40C
:1018A00069AF9DF82120023A934299B2FFF655AFF5
:1018B00000237B540125C4E6EA360008FA36000806
:1018C0003237000870B505468AB00E4614460AB194
:1018D000002313802046FEF7B5FD10B900200AB0A2
:1018E00070BD0A210720FEF741FE012108460A22A9
:1018F000FEF726FD132301940024ADF808308DF87F
:101900000A30009423462022032102A8FEF79DFE00
:101910000028E3D09DF80920002ADFD09DF80A3086
:101920003370023A23469A4299B203DC00236B5487
:101930000120D4E702A81844C078E8540028F5D064
:1019400001331B2BEFD11946F0E770B505468AB07D
:101950000E4614460AB1002313802046FEF772FD9E
:1019600080B30A210720FEF701FE012108460A2262
:10197000FEF7E6FC40F21523ADF808308DF80B6059
:10198000002317368DF80A50019435440093202225
:10199000052102A88DF80C50FEF757FE90B11424D3
:1019A000FA2001F001F8FA2000F0FEFF013CFA20D5
:1019B00000F0FAFFA4B2FA2000F0F6FF002CEFD1FD
:1019C0009DF80A000AB070BD2DE9F84FDFF87CB130
:1019D00000224FF001084FF0030A4FF00F090BF1FE
:1019E000040E00BF0B6808FA02F42340A3426ED134
:1019F0004D68022D01D0122D0ED1D50800EB850CBB
:101A0000DCF820505607F70E09FA07F6B5430E69C1
:101A1000BE402E43CCF82060066855000F790AFAC4
:101A200005FC07F0030726EA0C06AF4037430760C2
:101A30004E68012E05D0022E03D0112E01D0122E99
:101A40000ED18668CF6826EA0C06AF403743876020
:101A50004668A6430C79C4F30014944034434460B0
:101A6000C6688C6826EA0C06AC403443C4604C68F7
:101A7000E40065D5364C256845F48045256024682A
:101A800022F0030504F480440094324C2E19D6F859
:101A9000084895072F0F09FA07F5AC432E4DA842C9
:101AA00001D1002524E02D4DA84201D101251FE0E0
:101AB0002B4DA84201D102251AE02A4DA84201D19E
:101AC000032515E0284DA84202D1042510E037E097
:101AD000264DA84201D105250AE0254DA84201D195
:101AE000062505E0234DA84201D1072500E0082581
:101AF000BD402543C6F80858DBF800405D464E68F7
:101B00009C43F60300D51C432C60DEF8004075466C
:101B10004E689C43B60300D51C432C600B4D083522
:101B20002C684E689C43F60200D51C432C60074D80
:101B30000C352C684E689C43B60200D51C432C60C3
:101B4000521C102AFFF44EAFBDE8F88F003C014054
:101B500044380240003001400000024000040240CE
:101B600000080240000C0240001002400014024035
:101B700000180240001C02400AB18161704709044C
:101B8000FBE7000001480068000C7047002004E0FB
:101B9000014800687047000000000020024801680A
:101BA000491C016070470000000000200B4810B580
:101BB000016841F400710160016841F480610160D5
:101BC000016841F480710160032000F03FF80F20AC
:101BD00000F006F800F018F8002010BD003C0240AC
:101BE00010B5044607484FF47A710068B0FBF1F075
:101BF00000F00AFE00222146501E00F007F80020E7
:101C000010BD00005000002070470000F0B40E4BE3
:101C10001B680C46C3F30223C3F10705042D00D94A
:101C20000425191D072901D2002300E0DB1E01262F
:101C300006FA05F1491E214099409E40761E164045
:101C40003143F0BC00F088BF0CED00E0064900F025
:101C5000070208684FF6FF03184040EA0220034AD3
:101C600010430860704700000CED00E00000FA052A
:101C70002DE9F047DFF8649105460F46D9F80000DA
:101C800000F00F01F8B28046B94208D2014689F847
:101C90000010D9F8000000F00F00B84274D1287885
:101CA0004F4C800705D52068A96820F0F000084354
:101CB00020602878C00759D0494968680839012848
:101CC0001AD002281BD0032819D0096889070029D7
:101CD0005ADA216821F0030101432160FFF758FF20
:101CE0006968064641F28830012911D002291DD0C9
:101CF0000329824627D035E009688903E7E70968A8
:101D00008901E4E7FFF744FF811B514501D926E033
:101D100082462068C0F381000128F3D126E000BF8D
:101D2000FFF736FF811B514501D918E08246206834
:101D3000C0F381000228F3D118E000BFFFF728FFAD
:101D4000811B51450BD82068C0F381000328F5D1D1
:101D50000CE000BFFFF71CFF811B514502D9032097
:101D6000BDE8F087206810F00C0FF3D1D9F800100F
:101D7000484601F00F01B94208D980F80080006898
:101D800000F00F00B84201D00120E9E728784007B1
:101D900005D52068E96820F4E050084320602878E1
:101DA000000706D52068296920F4604040EAC10098
:101DB000206000F021F82168F02292FAA2F201F0EE
:101DC000F001B2FA82F2D140064A515CC84006499D
:101DD00008600F20FFF704FF0020C1E7003C02402D
:101DE00008380240AA360008500000200148006868
:101DF000704700005000002030B51948006810F00E
:101E00000C01184812D0441004290ED008290DD115
:101E10001349091F0A6802F03F030A68550247F692
:101E2000C07204D5B4FBF3F003E0204630BDB0FB34
:101E3000F3F00B680968134092FAA2F2B2FA82F248
:101E4000D34058434FF4403292FAA2F201F44031A9
:101E5000B2FA82F2D140491C4900B0FBF1F030BD2A
:101E6000083802400024F4002DE9F84F0546DFF859
:101E7000FC920078A9F1040BC007ABF1040449D02F
:101E8000D9F800104846C1F38101012908D0006843
:101E9000C0F3810002280AD1DBF80000400206D519
:101EA0002068800336D5686800286ED032E0686804
:101EB000B0F5803F10D0B0F5A02F206810D020F4EE
:101EC00080302060206820F4802020606868A0B105
:101ED000FFF75EFE06460CE0206840F48030F4E731
:101EE00040F480202060F7E7FFF752FE801B642853
:101EF00071D820688003F7D50CE0FFF749FE06464D
:101F000005E000BFFFF744FE801B6428F0D820687E
:101F10008003F7D42878964F80074FF0010A4FF0DE
:101F2000000841D5D9F80010484611F00C0F08D030
:101F30000068C0F3810002280AD1DBF800004002EB
:101F400006D42068800713D5E86801281DD10FE06A
:101F5000E868D8B1C7F800A0FFF71AFE064604E00B
:101F6000FFF716FE801B0228C2D820688007F7D52D
:101F70002068F82292FAA2F22969B2FA82F220F0DD
:101F8000F8009140084320600EE0ECE0C7F80080C4
:101F9000FFF7FEFD064604E0FFF7FAFD801B02286E
:101FA00019D820688007F7D42878000724D571480D
:101FB000696989B1C0F800A0FFF7EAFD064604E0B0
:101FC000FFF7E6FD801B022805D868486C300068E2
:101FD0008007F5D510E07AE0C0F80080FFF7D8FD63
:101FE000064604E0FFF7D4FD801B02286FD85F4847
:101FF0006C3000688007F5D42878400753D55B48DB
:102000003830016841F080510160006800F0805074
:1020100000905948016841F480710160FFF7B8FDF4
:10202000064604E0FFF7B4FD801B02284FD8524853
:102030000068C005F6D54D4EA868683601280FD057
:102040000528306810D020F001003060306820F0A2
:1020500004003060A868B8B1FFF79AFD00900FE067
:10206000306840F00100F4E740F004003060F7E72A
:10207000FFF78EFD0099411A41F2883081426AD8FB
:1020800030688007F4D50EE0FFF782FD009007E08E
:10209000FFF77EFD0099411A41F2883081425AD8FB
:1020A00030688007F4D4A869E8B3D9F80010C1F308
:1020B0008101022957D00228C7F8608003D0FFF7BA
:1020C00067FD05464AE0FFF763FD064605E042E08E
:1020D000FFF75EFD801B02283DD820688001F7D401
:1020E000D5E90701084347F6C07292FAA2F2696A7D
:1020F000B2FA82F29140AA6A4FF0FF3303EB520228
:102100004FF4403393FAA3F3B3FA83F39A401143A5
:1021100008434FF0706292FAA2F2E96AB2FA82F2D0
:102120009140084300E01CE0CBF80000C7F860A035
:10213000FFF72EFD054604E0FFF72AFD401B0228AD
:1021400009D820688001F7D50BE000BFFFF720FD1C
:10215000401B022802D90320BDE8F88F20688001C7
:10216000F4D40020F8E70120F6E700000838024028
:1021700000004742800E47420070004070B50400E6
:1021800004D094F85100002510B106E0012070BD84
:1021900084F85050204600F037F8022084F85100AF
:1021A0002068016821F040010160D4E90101084381
:1021B000D4E903121143084361690843218B01F4F8
:1021C00000710843E1690843216A0843A16A084392
:1021D00021680860A069042101EA1040616A08438F
:1021E00021684860A06AB0F5005F02D12168E06A0A
:1021F00008612068C16921F40061C1616565012041
:1022000084F85100002070BD70472DE9F84F4FF061
:10221000000A9946044617460D46ADF800A04068EE
:1022200056464FF0040BB0F5827F01D1A06878B11B
:1022300094F85000012816D0012084F85000FFF7D0
:10224000A7FC804694F8510001280ED00226CEE06B
:1022500084F851B013460A462046CDF8009000F0AD
:102260009BF9BDE8F88F0220FBE7002D7CD0002F02
:102270007AD084F851B0C4F854A0A563A787E78743
:10228000C4F830A0A4F834A0A4F836A0C4F840A044
:10229000C4F844A0A06A4FF40057B8420DD120689A
:1022A00001684DF6FF72114001602068016841F439
:1022B00000510160E08F401EE087A0684FF4004BA2
:1022C000584504D12068016821F4804101602068EC
:1022D0000168490603D4016841F040010160E068EB
:1022E000B8B131E020688168C90706D0007B05F8E5
:1022F000010BE08F401EE0870BE0B9F1000F39D0F1
:10230000B9F1FF3F05D0FFF743FCA0EB08014945B9
:1023100030D2E08F0028E5D119E020688168C90734
:1023200006D0C06825F8020BE08F401EE0870BE066
:10233000B9F1000F1ED0B9F1FF3F05D0FFF728FC1F
:10234000A0EB0801494515D2E08F0028E5D1A06A2D
:10235000B8422FD12068016841F480510160012208
:102360004B461146204600E040E0CDF8008000F0EA
:102370007BFF08B103263AE0E068B0F5006F206803
:102380000FD0007B287001224B4611462046CDF825
:10239000008000F069FF38B1606D40F002006065B8
:1023A000E8E7C0682880EEE72068C068ADF8000064
:1023B000BDF800006068B0F5827F0AD1A06858457A
:1023C00002D0B0F5806F04D12068016821F040018F
:1023D000016020688168C90606D5616D41F002017F
:1023E00061654FF6EF718160606D00B101260120DB
:1023F00084F8510084F850A0304632E72DE9F84FB8
:10240000044690F850000026994617460D460128CC
:102410000DD04FF0010B84F850B0FFF7B9FB8046A8
:1024200094F85100B246012804D00226ADE0022003
:10243000BDE8F88F002D72D0002F70D0032084F8F3
:102440005100C4F854A02563A786E786C4F838A0D5
:10245000A4F83CA0A4F83EA0C4F844A0C4F840A04E
:10246000A068B0F5004F04D12068016841F48041B4
:102470000160A06A4FF40057B8420AD12068026890
:102480004DF6FF710A4002602068016841F4005176
:10249000016020680168490603D4016841F04001E9
:1024A0000160E068B0F5006F606804D038B3E08E7A
:1024B000012824D040E010B1E08E01281BD1216812
:1024C00035F8020BC86006E020688168890706D5E8
:1024D00035F8021BC160E08E401EE0860BE0B9F1CA
:1024E000000F35D0B9F1FF3F05D0FFF751FBA0EB4E
:1024F000080149452CD2E08E0028E5D11FE0216873
:1025000015F8010B087306E020688168890707D574
:1025100015F8011B0173E08E401EE0860CE033E0ED
:10252000B9F1000F14D0B9F1FF3F05D0FFF730FB30
:10253000A0EB080149450BD2E08E0028E4D14B46C0
:10254000012202212046CDF8008000F08DFE08B166
:1025500003261AE042464946204600F056FE18B1CE
:1025600001262020606510E0A06818B92068C168C5
:1025700080680090A06AB84204D12068016841F4E4
:1025800080510160606D00B1012684F851B084F87B
:1025900050A030464CE700002DE9F84F04460020DB
:1025A0000A9F9A4693460D46ADF80000064694F8F9
:1025B00050004FF0010901280ED0012084F850008E
:1025C000FFF7E6FA804694F85100616801280CD0C4
:1025D000B1F5827F07D102E00220BDE8F88FA16843
:1025E00009B9042801D0022605E155B1BBF1000F5D
:1025F00007D0BAF1000F04D094F85100012802D09E
:1026000004E00126F7E0052084F851000020606511
:10261000C4F838B0A4F83EA0A4F83CA02563A4F800
:1026200036A0A4F834A020646064A06A4FF4005A75
:1026300050450AD1206801684DF6FF7211400160D3
:102640002068016841F40051016020680168490672
:1026500003D4016841F040010160E068B0F5006F0B
:10266000606804D0F0B3E08E012847D07FE010B15D
:10267000E08E01283BD1216835F8020BC860E08E5E
:10268000401EE08633E000BFB9F1000F17D0E08EA6
:10269000A8B120688168890711D535F8021BC1608F
:1026A000E08E401EE086E08E4FF0000938B9A06A47
:1026B000504504D12068016841F480510160E08FE9
:1026C00058B120688168C90707D0C0682BF8020B91
:1026D000E08F401EE0874FF00109781C07D0FFF71C
:1026E00057FA00E00AE0A0EB0800B84271D2E08E91
:1026F0000028C9D1E08F0028C6D13EE0216815F836
:10270000010B0873E08E401EE08630E0B9F1000F47
:1027100017D0E08EA8B120688168890711D515F817
:10272000011B0173E08E401EE086E08E4FF0000931
:1027300038B9A06A504504D12068016841F480513D
:102740000160E08F58B120688168C90707D0C06870
:102750000BF8010BE08F401EE0874FF00109781C59
:1027600005D0FFF715FAA0EB0800B84231D2E08E91
:102770000028CBD1E08F0028C8D1A06A504513D1E2
:1027800001223B4611462046CDF8008000F06CFD4A
:1027900020B1606D40F0020060651AE02068C068FA
:1027A000ADF80000BDF8000020688168C90607D5B3
:1027B000616D41F0020161654FF6EF7181600126A4
:1027C0003B46012202212046CDF8008000F04CFD5E
:1027D00008B103260FE042463946204600F015FDB9
:1027E00018B101262020606505E0A06818B92068AE
:1027F000C16880680090012084F85100002084F8AE
:1028000050003046E9E6704710B5401EB0F1807FB9
:1028100001D3012010BD4FF0E02460610F2160174B
:1028200000F09AF90020A06107202061002010BD6F
:1028300010B5FFF7E8FF10BDF0B5174C87B00025C5
:10284000206840F0080020602068144900F008006B
:102850000590082008600126CDE9000603270F48EF
:10286000CDE9025769461838FFF7AEF8206840F006
:102870000200206020680A4900F0020005906015FF
:102880000860CDE900060648CDE9025769461838C8
:10289000FFF79AF807B0F0BD30380240180C02403C
:1028A0001804024010B5FFF7C7FFBDE8104000F064
:1028B00001B8000030B5214887B00025016841F01B
:1028C000020101600068694600F0020005903820AE
:1028D0000090022001900320039001200290052027
:1028E00004901748FFF770F814481430016841F459
:1028F000805101600068144C00F48050059011482C
:1029000020604FF48270C4E90105E5604FF4007067
:102910002561C4E905501020C4E907050720656258
:10292000C4E90A502046FFF729FC00B1FEE7206801
:10293000016841F04001016007B030BD303802400D
:1029400000040240003001407C0000200B4910B51B
:102950000A68136823F0400313600A6813684FF68F
:10296000C774234013600A68136803431360086840
:10297000016841F04001016010BD00007C000020B2
:10298000034908B1082001E04FF4002008607047B7
:10299000180C0240034908B1481501E04FF00070DF
:1029A000086070471804024000F040BD33B504468B
:1029B000006881B08168C9438907FBD44FF0FF35B7
:1029C0002B46012202A92046FFF718FD20688168E6
:1029D000C943C907FBD12B46012269462046FFF7B0
:1029E00014FC2068C06880B23EBD10B50020FFF71F
:1029F000C7FF012000F078F80020FFF7CBFF05208B
:102A000000F072F80120FFF7C5FF4FF4967000F058
:102A10006BF80120FFF7B4FFBDE8104040F2ED1065
:102A200000F062B810B592B00020FF218DF80400CC
:102A30008DF83C100290039004900590ADF81800BA
:102A4000FFF7D3FF0820FFF781FF1F4C012000F0A4
:102A50004BF806AA21461D48FEF7B0FA98B106AA1F
:102A600000210220FEF771FF00282BD006A901A843
:102A7000FEF775FB002825D09DF80400012803D03F
:102A8000032801D01DE0FEE706A8009014230022D1
:102A90000FA112A0FEF7EAFB002813D00A2102A81A
:102AA00000F034F800280DD006A90FA8FEF77FFB30
:102AB000002807D006AA10A907A8FEF703FF0028E0
:102AC00000D0012012B010BD406F40010030014025
:102AD000313233343536373839300000416E796C55
:102AE000696E6B696E21000070B50646002509E02D
:102AF0000024FA20FFF758FF641CA4B2042CF8D37A
:102B00006D1CADB2B542F3D370BD0000F8B50746F9
:102B100000200D46ADF8000004464FF47A760FE031
:102B200069463846FEF76BFB012804D108A13846F8
:102B3000FDF744FF30B93046FFF7D6FF641CA4B25E
:102B4000AC42EDD3AC4201D30020F8BD0120F8BD6A
:102B5000302E302E302E30000907090E002806DAFC
:102B600000F00F0000F1E02080F8141D704700F124
:102B7000E02080F8001470472DE9F0438146FF48BB
:102B80009DB00024016841F002010160006800F07E
:102B900002001B90F9481030016841F48041016047
:102BA000006817A900F480401B904FF46040169015
:102BB00002200125032681E861000520DFF8C0839B
:102BC0001A9016A94046FEF7FFFE2F03CDE91675B1
:102BD000CDE9185616A94046FEF7F6FE0122394601
:102BE0004046FEF7C9FFE74800904FF48270CDE9F8
:102BF0000104E802CDE903048010CDE90540CDE9E8
:102C000007940720CDE90A4009946846FFF7B6FA11
:102C10004FF47A7000F0FCFB002239464046FEF784
:102C2000ABFF322000F002FC48F2FE01684600F0E3
:102C3000FCFA322000F0FAFB012239464046FEF74A
:102C40009BFFD14800F0F2FB002239464046FEF7D8
:102C500093FF322000F0EAFB48F2DE01684600F004
:102C6000E4FA322000F0E2FB012239464046FEF74A
:102C700083FF4FF4FA74204600F0D8FB0022394657
:102C80004046FEF779FF322000F0D0FB48F22011D9
:102C9000684600F0CAFA322000F0C8FB012239462B
:102CA0004046FEF769FF204600F0C0FB002239468F
:102CB0004046FEF761FF322000F0B8FB48F22821C1
:102CC000684600F0B2FA322000F0B0FB012239462B
:102CD0004046FEF751FF204600F0A8FB002239468F
:102CE0004046FEF749FF322000F0A0FB48F20131D8
:102CF000684600F09AFA322000F098FB012239462B
:102D00004046FEF739FF204600F090FB002239468E
:102D10004046FEF731FF322000F088FB48F2804148
:102D2000684600F082FA322000F080FB012239462A
:102D30004046FEF721FF204600F078FB002239468E
:102D40004046FEF719FF322000F070FB4FF40541BA
:102D5000684600F06AFA322000F068FB012239462A
:102D60004046FEF709FF204600F060FB002239468E
:102D70004046FEF701FF322000F058FB4FF40641B9
:102D8000684600F052FA322000F050FB012239462A
:102D90004046FEF7F1FE204600F048FB002239468F
:102DA0004046FEF7E9FE322000F040FB4FF40741B9
:102DB000684600F03AFA322000F038FB012239462A
:102DC0004046FEF7D9FE204600F030FB002239468F
:102DD0004046FEF7D1FE322000F028FB48F61E01E7
:102DE000684600F022FA322000F020FB012239462A
:102DF0004046FEF7C1FE204600F018FB002239468F
:102E00004046FEF7B9FE322000F010FB48F685156B
:102E10002946684600F009FA322000F007FB01223B
:102E200039464046FEF7A8FE204600F0FFFA002291
:102E300039464046FEF7A0FE322000F0F7FA294658
:102E4000684600F0F2F9322000F0F0FA012239462B
:102E50004046FEF791FE204600F0E8FA002239468F
:102E60004046FEF789FE322000F0E0FA48F62B21BA
:102E7000684600F0DAF9322000F0D8FA012239462B
:102E80004046FEF779FE204600F0D0FA002239468F
:102E90004046FEF771FE322000F0C8FA48F686314F
:102EA000684600F0C2F9322000F0C0FA012239462B
:102EB0004046FEF761FE204600F0B8FA002239468F
:102EC0004046FEF759FE322000F0B0FA48F61041B5
:102ED000684600F0AAF9322000F0A8FA012239462B
:102EE0004046FEF749FE204600F0A0FA002239468F
:102EF0004046FEF741FE322000F098FA48F6FC51B9
:102F0000684600F092F9322000F090FA012239462A
:102F10004046FEF731FE204600F088FA002239468E
:102F20004046FEF729FE322000F080FA48F6FF61A5
:102F3000684600F07AF9322000F078FA012239462A
:102F40004046FEF719FE204600F070FA002239468E
:102F50004046FEF711FE322000F068FA48F6FF7195
:102F6000684600F062F9322000F060FA012239462A
:102F70004046FEF701FE204608E0000030380240DF
:102F800000040240003800402048010000F04EFAE2
:102F9000002239464046FEF7EFFD322000F046FAA7
:102FA00049F2FF01684600F040F9322000F03EFA95
:102FB000012239464046FEF7DFFD204600F036FA92
:102FC000002239464046FEF7D7FD322000F02EFAA7
:102FD00049F2FF11684600F028F9322000F026FA85
:102FE000012239464046FEF7C7FD44F6206000F056
:102FF0001DFA002239464046FEF7BEFD322000F0A1
:1030000015FA4FF4AA41684600F00FF9322000F09B
:103010000DFA012239464046FEF7AEFD204600F08B
:1030200005FA002239464046FEF7A6FD322000F0A0
:10303000FDF94FF6F071684600F0F7F8322000F025
:10304000F5F9012239464046FEF796FD204600F08C
:10305000EDF9002239464046FEF78EFD322000F0A1
:10306000E5F94FF6F171684600F0DFF8322000F024
:10307000DDF9012239464046FEF77EFD204600F08C
:10308000D5F9002239464046FEF776FD322000F0A1
:10309000CDF94FF6F271684600F0C7F8322000F023
:1030A000C5F9012239464046FEF766FD204600F08C
:1030B000BDF9002239464046FEF75EFD322000F0A1
:1030C000B5F94FF6F371684600F0AFF8322000F022
:1030D000ADF9012239464046FEF74EFD204600F08C
:1030E000A5F9002239464046FEF746FD322000F0A1
:1030F0009DF94FF6F471684600F097F8322000F021
:1031000095F9012239464046FEF736FD204600F08B
:103110008DF9002239464046FEF72EFD322000F0A0
:1031200085F94FF6F571684600F07FF8322000F01F
:103130007DF9012239464046FEF71EFD204600F08B
:1031400075F9002239464046FEF716FD322000F0A0
:103150006DF94FF6F671684600F067F8322000F01E
:1031600065F9012239464046FEF706FD204600F08B
:103170005DF9002239464046FEF7FEFC322000F0A1
:1031800055F94FF6F771684600F04FF8322000F01D
:103190004DF9012239464046FEF7EEFC204600F08C
:1031A00045F9002239464046FEF7E6FC322000F0A1
:1031B0003DF94FF6F871684600F037F8322000F01C
:1031C00035F9012239464046FEF7D6FC204600F08C
:1031D0002DF9002239464046FEF7CEFC322000F0A1
:1031E00025F94FF6F971684600F01FF8322000F01B
:1031F0001DF9012239464046FEF7BEFC41F28830F7
:1032000000F014F91DB0BDE8F08338B50B4600920C
:1032100004460022802100F027F8002804D0606DC9
:1032200040F020006065032038BD33B504460068D7
:1032300081B08168C9438907FBD44FF0FF352B4625
:10324000012202A92046FFF7D9F820688168C94306
:10325000C907FBD12B46012269462046FEF7D5FF60
:103260002068C06880B23EBD2DE9F0411D4617467A
:103270000E460446DDF8188035E0681C33D02DB1C9
:10328000FEF786FCA0EB0800A8422CD3206841681A
:1032900021F0E00141606068B0F5827F0BD1A06849
:1032A000B0F5004F02D0B0F5806F04D120680168FE
:1032B00021F040010160A06AB0F5005F0AD12068EA
:1032C00001684DF6FF72114001602068016841F409
:1032D00000510160012084F85100002084F8500062
:1032E0000320BDE8F0812068806836EA000004D041
:1032F0000020B842C1D10020F3E70120F9E710B562
:10330000FEF74CFCBDE81040FFF792BA70B5214CB7
:1033100092B00025266846F080562660246804F0A6
:10332000805411941C4C266846F48046266024681C
:103330000DF1200C04F48044119401240094240421
:1033400001948CE80F0002246605CDE90646684624
:10335000FEF78AFD00B1FEE70CA90F2081E83100DD
:103360004FF4A0500F904FF48050109005210CA8FE
:10337000FEF77EFC00B1FEE7FEF704FC41F201011E
:10338000884204D10548016841F48071016012B09F
:1033900070BD00004038024000700040003C024018
:1033A0001048016841F4700101600F48016841F064
:1033B000010101600C4A00210832116002680B4BC8
:1033C0001A400260031D0A4A1A60026822F4802231
:1033D000026005480C3001600249580680390860D7
:1033E0007047000088ED00E000380240FFFFF6FE65
:1033F0001030002410B5FEF7F9FC0349B0FBF1F0E2
:103400000249086010BD000040420F000400002087
:1034100070B5054600244FF47A7603E0304600F09C
:1034200005F8641CAC42F9D370BD000070B54FF0D4
:10343000E024002265690949A36909684843A16934
:103440009942FCD002D2A3EB010302E0A5EB0106F6
:1034500033441A440B468242F1D370BD040000206D
:103460001CB54FF0FF342346012201A98748FEF71F
:10347000CCFE2346012269468548FEF7C6FEFEF7CC
:1034800095FB072302224FF4A8710820FFF73EFFA7
:10349000FFF7B0FFFFF706FA7E4C2088FFF76CFBC2
:1034A000FFF7C0FA7C4D7D4F4FF000084FF4805677
:1034B000BDF80000212809D14046A4F80080FFF79C
:1034C0005BFB44F620617248FFF770FABDF800001C
:1034D000222808D108202080FFF74EFB42F210710D
:1034E0006B48FFF763FABDF80000232808D12020BD
:1034F0002080FFF741FB40F2E2416548FFF756FAB2
:10350000BDF80000242807D138202080FFF734FBC5
:1035100096215F48FFF74AFABDF8000025283DD004
:1035200026283BD0272839D0282837D0292835D03D
:103530002A2833D02B2831D02C282FD02D282DD03D
:103540002E282BD02F2829D0302827D0312825D03D
:10355000322823D0332821D034281FD035281DD03D
:1035600036281BD0372819D0382817D0392815D03D
:103570003A2813D03B2811D03C280FD03D280DD03D
:103580003E280BD03F2809D0402807D0412805D03D
:10359000422803D0432801D0442814D100223146C8
:1035A0002846FEF7E9FA606837F810103748FFF749
:1035B0003CFE012231462846FEF7DEFABDF8041033
:1035C0003348FFF7F3F9BDF80000742823D1C4F89D
:1035D0000480002231462846FEF7CEFA606837F8AC
:1035E00010102A48FFF721FE012231462846FEF737
:1035F000C3FABDF804102648FFF7D8F96068401CEC
:1036000060602028E5DB06D14FF6FF712048FFF708
:10361000CDF9C4F80480BDF8000071281BD1C4F8AE
:103620000480002231462846FEF7A6FA606837F883
:1036300010101648FFF7F9FD012231462846FEF723
:103640009BFABDF804101248FFF7B0F96068401CFF
:1036500060602328E5DBBDF8000072287FF428AF06
:10366000002231462846FEF787FAB7F8441007488B
:10367000FFF7DBFD012231462846FEF77DFABDF853
:1036800004100348FFF792F912E70000D40000206D
:103690007C000020540000200004024008000020AC
:1036A0004FF00000E1EE100A704700000000010238
:1036B0000304010203040607080953544D3332463C
:1036C0003400000000000000000056312E312E387A
:1036D0002D55000041494B5BDB41312E322E302D00
:1036E0003100312E312E382D3100312E312E362D34
:1036F0003300312E312E362D34003235352E323511
:10370000352E3235352E32353500312E312E362DCF
:103710003700312E312E382D3800312E312E362DF6
:103720004500312E312E362D4600312E312E362DCC
:103730004E00312E312E382D520000005C3700082B
:10374000000000207C000000C4010008D8370008F9
:103750007C0000201C230000E001000800000000A5
:10376000000000000000000100020003000400054A
:103770000006000700080009000A000B000C000DFD
:10378000000E000F001000110012001300140015AD
:103790000016001700180019001A001B001C001D5D
:1037A000001E001F00200021002200000024F40061
:1037B00000000000000000000000000064000000A5
:1037C000312E312E312D31000000000000000000AC
:0837D0000001020100040000E9
:040000050800018965
:00000001FF
