:020000040800F2
:10000000982300202902000831020008330200086A
:10001000350200083702000839020008000000001D
:100020000000000000000000000000003B0200088B
:100030003D020008000000003F02000823410008C4
:10004000430200084302000843020008430200087C
:10005000430200084302000843020008430200086C
:10006000430200084302000843020008430200085C
:10007000430200084302000843020008430200084C
:10008000430200084302000843020008430200083C
:10009000430200084302000843020008430200082C
:1000A000430200084302000843020008430200081C
:1000B000430200084302000843020008430200080C
:1000C00043020008430200084302000843020008FC
:1000D00043020008430200084302000843020008EC
:1000E00043020008430200084302000843020008DC
:1000F00043020008430200084302000843020008CC
:1001000043020008430200084302000843020008BB
:1001100043020008430200084302000843020008AB
:10012000430200084302000843020008430200089B
:10013000430200084302000843020008430200088B
:10014000430200084302000843020008430200087B
:10015000430200084302000843020008430200086B
:10016000430200084302000843020008430200085B
:100170004302000843020008430200080000000098
:10018000430200084302000800F002F800F03CF8C7
:100190000AA090E8000C82448344AAF10107DA45E2
:1001A00001D100F031F8AFF2090EBAE80F0013F0F8
:1001B000010F18BFFB1A43F001031847A8410000C4
:1001C000C8410000103A24BF78C878C1FAD8520755
:1001D00024BF30C830C144BF04680C6070470000C1
:1001E0000023002400250026103A28BF78C1FBD840
:1001F000520728BF30C148BF0B6070471FB504F0DD
:100200005BF81FBD10B510BD00F01BFC1146FFF7D9
:10021000F5FF04F037F800F039FC03B4FFF7F2FF04
:1002200003BC00F041FC0000094880470948004732
:10023000FEE7FEE7FEE7FEE7FEE7FEE7FEE7FEE796
:10024000FEE7FEE704480549054A064B70470000F3
:10025000C54100088901000898010020982300206A
:1002600098030020980300200D4B70B500215C68B6
:1002700019800A464EF661262589AD0708D569B969
:10028000207300BF00BF1B7A0BB100BF00BF70BD61
:10029000013292B2B2424FF00101EDD11A80EFE784
:1002A0002C010020154900234A6830B50B804EF61A
:1002B00061251489240603D4148904F4C0541CB1A4
:1002C00001339BB2AB42F4D1138913F041030AD13D
:1002D00010730B8018464EF661251489E40704D587
:1002E0004BB9107B30BD9389EEE7013080B2A84254
:1002F0004FF00103F1D10880F3E700BF2C0100208B
:1003000010B5002002F0D6FD0420FFF7ADFF00205D
:10031000FFF7C8FF0446012002F0CCFD204610BDC7
:1003200010B50446002002F0C5FD0120FFF79CFF38
:100330002046FFF7B7FF0120BDE8104002F0BABD2C
:100340002DE9F84305460E461746FFF7D9FF01236E
:10035000AB405CB244EA0003DBB2984217D1022DF5
:1003600013D0052D36D1AEB931E0022D2FD118466C
:10037000FFF7D6FF184B93F909300BB1FFF7C0FF19
:100380003846BDE8F84302F0A9BD1EB9EFE7002EDC
:10039000EBD0034698464EF66026FFF7B1FF431EAA
:1003A000DBB2FD2B814601D8404507D0013E01203C
:1003B000B6B202F093FDC846002EEED144EA08031F
:1003C000DBB29845D1D1022DD1D0052D02D103F059
:1003D000FB03CCE7BDE8F8832C01002070B506468E
:1003E00069B3202928BF202100200C4602F062FDBD
:1003F0000220FFF739FF0020FFF736FF354615F8DA
:10040000010BFFF731FFAB1BDBB29C42F7D80C4A64
:100410000021546811800B464EF6612520890006A4
:1004200005D451B90120BDE8704002F043BD01334D
:100430009BB2AB424FF00101F0D11380F2E770BDE7
:100440002C01002038B504464CF25035FFF758FF18
:10045000FF2801D0C3070FD4012002F03FFD681E22
:1004600085B2002DF2D14CB1FFF74AFF000240F0F7
:1004700010002080284638BD0120FCE72046FAE71E
:1004800038B504464CF25035FFF73AFFFF2801D04B
:1004900083070DD5012002F021FD013DF4D14CB1BF
:1004A000FFF72EFF000240F011002080284638BDE3
:1004B0000120FCE72046FAE72DE9F041002948D069
:1004C000202928BF2021064600200F4602F0F2FC1A
:1004D0000320FFF7C9FE0020FFF7E4FE0020FFF72E
:1004E000C3FEB7F1010EDFF880C036D00025DCF87E
:1004F0000400A8464EF661247119002301E0A342CE
:1005000004D002890133D2079BB2F8D50135EDB290
:10051000037B0B70754580F80C80EDDB2E440023C7
:100520001C46ACF800304EF6612504E08BB2AB42BD
:100530004FF0010414D00289D20703F10101F5D56F
:1005400074B9037B3370012002F0B4FC3846BDE877
:10055000F0810F463846BDE8F081DCF80400DEE7A4
:10056000ACF80030EDE700BF2C0100202DE9F04190
:10057000054601240E46AC40FFF7C2FEE44364B2D8
:1005800004EA0003DBB29842074621D04EF660250C
:10059000FFF7B6FE431EDBB2FD2B804601D8B84202
:1005A00007D0013D0120ADB202F098FC4746002D76
:1005B000EED104EA0700C0B2B84209D000F0FB0057
:1005C000FFF7AEFE26B13046BDE8F04102F086BC32
:1005D000BDE8F08170B50024114D2646E2B2AB5C57
:1005E000533B012B98BFAE54835C533B012B98BF08
:1005F0008654A956835641B11BB1994204F10104B6
:10060000ECD0994204DD012007E0002BFBDB05D094
:100610008B42D4BF01204FF0FF3070BD1846FCE77D
:100620006400002010B50C46FFF7D4FF002808DA5C
:100630004CB1FFF765FE000240F0770020800120FA
:1006400010BD0020FCE70120FAE72DE9F047099CE6
:100650000778054691461E46FFF7C0FE0A2002F0C5
:100660003DFC4FF6FF78013EB6B2464505D1204627
:10067000FFF706FF70B9002047E0FA2002F02EFCD9
:10068000FA2002F02BFCFA2002F028FCFA2002F0FB
:1006900025FCE8E7BDF820304FF47A765E434FF052
:1006A000000A4CF25033B6FBF3F601361FFA8AF318
:1006B0009E42E0D94CF25038FFF722FE8038C0B29B
:1006C0007E2824D80CB10023238049462846FFF712
:1006D000F3FE0A2002F002FC00210720FFF746FF8C
:1006E000697800231A46481C5E1C9BB2984227DAA0
:1006F00029448B78934228D0002CBCD0FFF700FE11
:10070000000240F0300020800020BDE8F08708F1B2
:10071000FF3801201FFA88F802F0E0FBB8F1000F63
:10072000CAD154B1FFF7ECFD00022080012002F095
:10073000D5FB238843F0160323800AF1010AB5E7AD
:10074000EB5C1A44D2B23346CEE72B7823F0800319
:10075000BB420DD0362F01D1252B09D0002C8AD0D9
:10076000FFF7CEFD000240F0310020800020CCE7F2
:1007700000211548FFF756FF20BBAB78782B21D11D
:10078000002C3FF478AFFFF7BBFD000280B2208061
:10079000EB78032B11D8DFE803F01502070B40F0CC
:1007A000450020800020B0E740F04600208062E74E
:1007B00040F0470020800020A7E740F0480020805C
:1007C0000020A2E70120A0E74A43000830B5044614
:1007D0008FB00D4609B100230B802846FFF732FE8B
:1007E00000283FD00A210720FFF7C0FE012108465C
:1007F0000A22FFF7A5FD42231B488DF818308DF81B
:100800001A40002306ACE218195CD1700133102B9A
:10081000F9D1164A10685168127A03AB03C31A70F3
:1008200000238DF8153003A8E218C15CD1740133A0
:100830000A2BF9D11B2300228DF819301346A15C35
:1008400001320B441D2ADBB2F9D18DF8353000237B
:100850000195009320221E212046FFF7F6FE00306E
:1008600018BF01200FB030BDD2420008E24200089C
:100870002DE9F0410024DFF8508007462546BD42AF
:1008800008D14120FFF74CFD0A2002F027FB20464B
:10089000BDE8F08105F0DA0646F001063046FFF7C4
:1008A0003FFD00214046FFF7BDFE48B10A2002F09F
:1008B00015FBFFF725FD864208BF01340135DEE751
:1008C000012002F00BFBF4E7F24200081FB502938F
:1008D0000023CDE9003300F0EFF805B05DF804FB2C
:1008E0002DE9FF410B9C05460E460B482146174655
:1008F0009846FFF797FE68B9BDF828300294CDE915
:1009000000833A4601233146284600F0D5F804B06A
:10091000BDE8F0810020FAE7424300082DE9FF41DD
:100920000B9C05460E46174698460CB100232380C3
:1009300021460A48FFF776FE68B9BDF828300294D0
:10094000CDE900833A4601233146284600F0B4F849
:1009500004B0BDE8F0810020FAE700BFFA420008C9
:1009600070B505468AB00E4614460AB100231380BE
:100970002046FFF767FDF8B10A210720FFF7F6FDD3
:10098000012108460A22FFF7DBFC40F21623ADF8EE
:1009900008308DF80B60002318368DF80A5001944A
:1009A000354400932022052102A88DF80C50FFF752
:1009B0004CFE003018BF01200AB070BD4FF0013C62
:1009C00050F8042B51F8043B9A4221D1A2EB0C03BE
:1009D000934313EACC1317D150F8042B51F8043B7E
:1009E0009A4215D1A2EB0C03934313EACC130BD11B
:1009F00050F8042B51F8043B9A4209D1A2EB0C03A6
:100A0000934313EACC13DBD04FF00000704700BFD4
:100A1000D01A01BAB1FA81F101F0180122FA01F0FD
:100A2000CB40C1F12001DBB2C0B2C01A2CFA01F3F5
:100A3000D11A914311EAC311E6D17047704770474C
:100A40007047754600F02CF8AE46050069465346DF
:100A500020F00700854618B020B5FFF7F3FBBDE88E
:100A600020404FF000064FF000074FF000084FF015
:100A7000000B21F00701AC46ACE8C009ACE8C009A6
:100A8000ACE8C009ACE8C0098D46704710B5044613
:100A9000AFF300802046BDE81040FFF7BEBB00006A
:100AA000004870473801002001491820ABBEFEE71E
:100AB00026000200704700002DE9F04F91B0074674
:100AC0001C9C1A9DBDF86C800E46924699460CB14E
:100AD00000232380002E00F0ED80B9F1010F13D127
:100AE000B848FFF777FD002804A813DA0023E95679
:100AF000C1549AB219B101330F2BF8D11A4610AB79
:100B00001A44002302F8303C2046FFF79BFC50B902
:100B10000025A4E023461422294601F08BF8002882
:100B2000F2D10546C5E0FFF7EBFB00F07B0343F095
:100B30000203984205461DD04FF47A7BFFF7E0FB95
:100B4000A84203900BD0012002F0C8F90BF1FF3B43
:100B5000039B1FFA8BFB1D46BBF1000FEED105F086
:100B60007B0040F00200A84204D0FFF7D9FB0A2026
:100B700002F0B4F94FF48063ADF82030B9F1010F01
:100B80004FEA16238DF823308DF822A08DF82460CB
:100B90004FF0000333D08DF825309DF8210000215F
:100BA00001300A468BB2834210AD01F101012B44A2
:100BB00047DD03F8202C9DF8211001940331002318
:100BC00000930422C9B208A8FFF73FFD00289FD078
:100BD0009DF82250002D00F0CA801CB1FFF790FB59
:100BE000000220809DF82230F63B092B00F2B680EF
:100BF000DFE803F0ABA29A91887F766D642C8DF8C4
:100C0000259004A819569AB281B9931D9BB208A9E0
:100C100000209AB2152A11D94FEA18238DF83630E0
:100C200016238DF837808DF82130B6E708AA1A44CC
:100C30000133102B9171E5D11A46E6E75854013380
:100C4000E7E713F8203C1A44D2B2ABE71CB1238883
:100C500043F012032380C82002F040F900250A2245
:100C600001210220FFF76CFB022002F037F90F246C
:100C7000FFF746FBFF2801D043070BD4013C0120BE
:100C8000A4B202F02BF9002CF2D10A220121022099
:100C9000FFF756FBAE420CD8B6F5807F09D8F92E87
:100CA00000F28E80142002F019F9F043C0B202F075
:100CB00015F92E46304611B0BDE8F08F002C3FF4F8
:100CC00027AF238843F0130323800025C7E7002CB8
:100CD0003FF41EAF238843F0140323800025BEE7B2
:100CE000002C3FF415AF238843F015032380002523
:100CF000B5E7002C3FF40CAF238843F018032380A2
:100D00000025ACE7002C3FF403AF238843F0190320
:100D100023800025A3E7002C3FF4FAAE238843F09C
:100D20001A03238000259AE7002C3FF4F1AE2388B4
:100D300043F01B032380EBE6002C3FF4E9AE23884D
:100D400043F01C032380002589E7002C3FF4E0AE2C
:100D5000238843F01D032380002580E7002C3FF407
:100D6000D7AE238843F01F032380002577E70B20AD
:100D700002F0B4F8DFF85090AE427FF670AFA6EB09
:100D80000508B8F1200FD4BF1FFA88F84FF02008EB
:100D90005FFA88F17819FFF721FB99F909305BB9FF
:100DA0000B2002F09BF82046FFF76AFB00283FF477
:100DB00056AF4544ADB2DFE7062002F08FF8F2E708
:100DC0000A2074E7024300082C0100202DE9F047B7
:100DD0008AB005468A469846DDE91269149C174692
:100DE0000AB1002313700CB1002323802046FFF7C3
:100DF00029FB88B30A210720FFF7B8FB0121084629
:100E00000A22FFF79DFA8DF80BA00AF1310A8DF83E
:100E10000A50554440F22F238DF80C500025ADF8B0
:100E20000830019400952B462022052102A8FFF7E7
:100E30000CFC88B19DF80C3043B3002C4BD0FFF76D
:100E40005FFA9DF80C20000283B2FF2A238006D1AE
:100E500043F05A03238028460AB0BDE8F087FE2AF3
:100E600004D143F05B0323802846F5E7FD2A04D133
:100E700043F05C0323802846EEE7FC2A0CBF43F0D6
:100E80005D0343F0350323802846E5E717B19DF85D
:100E90000D303B705EB19DF80E3033709DF80F3011
:100EA00073709DF81030B3709DF81130F370B9F184
:100EB000000F07D09DF812209DF8133003EB02239A
:100EC000A9F80030B8F1000F07D09DF8143088F869
:100ED00000300120C0E72046BEE70120BCE72DE935
:100EE000F0418EB00446149D0F46164698460DB14B
:100EF00000232B8000230295CDE900330DF117026A
:100F00000DF11601384600F044FC002800F09C80EA
:100F10009DF81630022B79D853B19DF81720002A7E
:100F200074D03CB9012B60D1062A03D157246EE05E
:100F3000002CFBD02846FFF785FA002800F08480BB
:100F40000A210720FFF712FB01210A220846FFF7BA
:100F5000F7F9002C0CBF1A2319238DF81830012340
:100F60008DF819308DF81A70A6B133788DF81B30D2
:100F700073788DF81C30B3788DF81D30F3788DF8C8
:100F80001E304FEA18238DF81F3007238DF820807C
:100F90008DF819309DF819000022013011460B46DA
:100FA000984201F101010EACC9B2234439DA0024A0
:100FB00003F8202C06A80195009423462022FFF771
:100FC00044FB002840D09DF81A307BB3F42B2DD081
:100FD000002D39D0FFF794F99DF81A30C3F1800342
:100FE00043EA00202880204618E00EAA234602F893
:100FF000204D2146CDE9014500943846FFF7E6FE35
:1010000060B19DF81830002B94D18FE75424DDB1E6
:10101000FFF776F944EA0020288000200EB0BDE8F2
:10102000F08113F8203C1A44D2B2B8E79DF816308C
:101030000BB90120F2E70824FA20013C01F04EFF31
:1010400014F0FF04F8D1F4E70020E7E72DE9F04FB2
:101050008DB083460E46169F189C98460BB193F8A8
:1010600000A00CB1002323804FF47A7909FB02F928
:1010700000254D4510D12CB1FFF742F9000240F098
:10108000100020800025B8F1000F01D088F800A0E2
:1010900028460DB0BDE8F08F00F072FB20B90120AA
:1010A00001F01CFF0135E4E7FFF72AF900F05F03C8
:1010B00043F00203984281461AD04FF47A75FFF745
:1010C0001FF94845039008D0012001F007FF6B1E6F
:1010D000039A9DB29146002DF1D109F05F0040F0D6
:1010E0000200814504D0FFF71BF90A2001F0F6FE4B
:1010F00040F20123F2B2ADF810308DF81320330A1C
:1011000003328DF8123013448DF81430002301940B
:1011100000931322052104A8FFF797FA0028B1D005
:101120009DF8123013B31CB1FFF7EAF800022080DB
:101130009DF81230FE2B14D00AD8FD2B21D0002CA4
:1011400000F0BE80238843F02F03238000259AE718
:101150001CB1238843F022032380C82001F0BEFE87
:1011600090E71CB1238843F0230323809DF81420CB
:101170009DF8153003EB02239BB29E4201D31E461D
:1011800007E034B1238813F0FF0F02D143F02403AA
:1011900023804C489DF813A0FFF71CFA0028179BEA
:1011A0004CDD3BB19DF81B209DF81A3003EB022368
:1011B000179A13805FB19DF81E303B709DF81F3069
:1011C0007B709DF82030BB709DF82130FB703E4B4A
:1011D000039393F9092012B90B2001F07FFE002739
:1011E0003D46AE427FF64FAF039B93F9091089BB92
:1011F00005221046FFF7A4F8012001F06FFE4CF223
:101200005039FFF77DF80CB10302238008B1820644
:1012100026D5012001F062FEB9F10109F1D11CB11E
:10122000238843F020032380D7B90A210520FFF744
:101230009DF9052001F052FE0127D2E713B1179A5C
:1012400000231380002FC2D000233B707B70BB7043
:10125000FB70BCE7012200210520FFF771F8CEE703
:10126000711B2029A8BF20210BEB0500C9B2FFF795
:1012700023F90544ADB2AE4202D8012001F02EFEA2
:10128000FFF73EF8FF2819D010F04007A9D0AE4272
:101290007FF6F9AE761B202E3FF7F5AEFFF730F85C
:1012A00000283FF4F0AE83063FF5EDAE0BEB0500F2
:1012B000F1B2FFF701F90544ADB2E4E6002790E78B
:1012C0002546E0E6124300082C0100202DE9F043FA
:1012D0008BB08046139D0F4691461E460DB10023EC
:1012E0002B8029463548FFF79DF9044620B100249C
:1012F00020460BB0BDE8F0832846FFF7A3F800288E
:10130000F5D00A210720FFF731F901210A2208460A
:10131000FFF716F81B2E334628BF1B239A1C8DF8A7
:1013200009209DF848208DF80A208DF808808DF856
:101330000B7022469BB291B28B4207D902A911448D
:1013400019F80200087101321B2AF4D19DF8090036
:1013500000230130194603E012F8202C1344DBB2BD
:101360008AB282420AAE01F101013244F4DDB8F1E1
:10137000280F02F8203C1CD1FF2F0CBF4FF47A73CA
:101380000A230022009201952022C9B202A8FFF789
:101390005CF90028ACD09DF80A406CB9002DA7D0AC
:1013A000FEF7AEFF9DF80A30803343EA0020288024
:1013B0009EE74FF47A73E4E7012499E70A430008B3
:1013C0002DE9F04F8BB00546189E9DF850B0BDF842
:1013D0005470BDF858800C46924699460EB10023D1
:1013E00033803046FFF72EF8002850D00A2107201E
:1013F000FFF7BCF801210A220846FEF7A1FF4FEAD9
:1014000018238DF80A303B0A8DF80C308DF808A0AF
:101410008DF80B808DF80D708DF80EB000231FFA3B
:101420008BF299B2914235D30BF1050300218DF86F
:1014300009300A460BF1060B8BB25B450AA801F195
:10144000010103442DDD03F8202C9DF85C309DF84C
:10145000091001961E2B28BF1E23C3EB431203EB7A
:101460008203DB009BB20331009320220023C9B228
:1014700002A8FFF7EAF850B19DF80A30E3B99DF8E9
:101480000920227021789AB291420FD801200BB026
:10149000BDE8F08F02A9194419F80300C87101339F
:1014A000BFE713F8203C1A44D2B2C5E702AA1A4497
:1014B0009278EA540133E5E70020E8E7F7B51646ED
:1014C000334A344C0D4620F480610023914201934D
:1014D00008BF0123606023720EB1002333800388AC
:1014E0002D4F03F038030193018821F038010904DE
:1014F000090C0180038843F010030380018821F068
:1015000001010904090CBD420180314632D9012094
:10151000FFF75CF9002832D06368198821F03801A0
:101520000904090C1980019A19880A4392B2BD4234
:101530001A8027D8FA2001F0D1FCFA2001F0CEFC65
:10154000FA2001F0CBFCFA2001F0C8FC0021334660
:10155000124A084600F03FF888B11148FFF73AF800
:101560000028ACBF012300230E486372FFF732F856
:10157000012005E00220FFF729F90028CCD1002046
:1015800003B0F0BD1A8842F001021A80D2E700BF12
:10159000003800402C010020FF2C310164000020A5
:1015A000F24200083A43000813B5049CCDE9003428
:1015B00013460A4601462820FFF788FE02B010BDF8
:1015C00007B5002300911A4601460120FFF787FC6A
:1015D00003B05DF804FBF0B507468BB00E46154628
:1015E0001C460BB1002323802046FEF72BFFB8B327
:1015F0000A210720FEF7BAFF012108460A22FEF75A
:101600009FFE1F23ADF808308DF80A3000230194A7
:1016100000932022032102A8FFF717F800B377B147
:101620009DF80A309DF80B2002EB03229DF80C3048
:1016300003EB02229DF80D3003EB02233B6016B151
:101640009DF80E3033709DB19DF80F1000239AB2B3
:101650008A4202D2172B05D11A460023AB5401202F
:101660000BB0F0BD02AA1A44127AEA540133EEE735
:101670000120F5E730B505468BB00C4609B10023D3
:101680000B802046FEF7DEFED0B10A210720FEF7D0
:101690006DFF012108460A22FEF752FE1023ADF825
:1016A00008308DF80A300023019400932022032192
:1016B00002A8FEF7CAFF18B19DF80A302B7001206E
:1016C0000BB030BD30B505468BB00C4609B10023D8
:1016D0000B802046FEF7B6FED0B10A210720FEF7A8
:1016E00045FF012108460A22FEF72AFE1223ADF823
:1016F00008308DF80A300023019400932022032142
:1017000002A8FEF7A2FF18B19DF80A302B70012045
:101710000BB030BD30B505468BB00C4609B1002387
:101720000B802046FEF78EFE10B900200BB030BDB6
:101730000A210720FEF71AFF012108460A22FEF7B8
:10174000FFFD1123ADF808308DF80A300023019415
:1017500000932022032102A8FEF777FF0028E4D09F
:101760000DF109026B1E05F10E0012F8011F03F8BE
:10177000011F09B19842F8D10023EB730120D5E78E
:1017800008B5FEF7BDFDFF2814BFC0F30010002010
:1017900008BD2DE9F0478AB08246149F0E461546D3
:1017A0009946DDE912480FB100233B803846FEF729
:1017B00049FE38B30A210720FEF7D8FE012108466A
:1017C0000A22FEF7BDFD4FF48A7301970027ADF89A
:1017D00008308DF80AA000970AF1150A3B4620222E
:1017E000042102A88DF80BA0FEF72FFF50B19DF841
:1017F0000B3053B106B137700DB9012002E0002360
:101800002B7001200AB0BDE8F08716B19DF80C30AE
:10181000337015B19DF80D302B70B9F1000F07D062
:101820009DF80E209DF80F3003EB0223A9F800303D
:1018300064B10DF10F02631E04F10F0112F8010FE4
:1018400003F8010F8B42F9D10023E373B8F1000FC5
:10185000D3D09DF821209DF8223003EB0223A8F875
:101860000030CAE71FB5069C02940024CDE900446D
:10187000FFF7ECFB04B010BD2DE9F0438DB08046BE
:10188000C548149C0D4617461E46FEF7A3FE0028C9
:1018900000F398800CB1002323802046FEF7D2FD90
:1018A00008B9002553E00A210720FEF75FFE012159
:1018B00008460A22FEF744FD0CA841F6225320F800
:1018C000203D002318F8032022B1C11801330D2B4D
:1018D0008A70F7D100238DF81F30EA5C22B1C1185D
:1018E00001330D2B0A74F8D100238DF82D308DF8BB
:1018F0002E701A46C15C01330A441F2BD2B2F9D1B3
:1019000000278DF82F202022019400973B46114696
:10191000FEF79BFE0028C4D09DF812506DB106EB77
:101920008606B846B04516D1002CBAD0FEF7E8FCC2
:10193000000240F032002080B3E7002CB1D0FEF767
:10194000DFFC9DF81230803343EA002020802846D7
:101950000DB0BDE8F083C827FA2001F0BFFAFA20E5
:1019600001F0BCFA013FFA2001F0B8FABFB2FA2048
:1019700001F0B4FA002FEFD121460DF10F00FFF76F
:10198000A1FE012805460BD19DF80F30042B00F075
:10199000098108D8022B00F0E680032B00F0F180CB
:1019A00008F10108BEE7052BD1D0FF2BF8D1002CA0
:1019B0003FF477AFFEF7A4FC000240F04C0020801B
:1019C0003D46C4E77548FEF705FE00280ADC74486A
:1019D000FEF700FE002805DB204600F0EFF8FA20B5
:1019E00001F07CFAB8F1000F3BD1002200943B4695
:1019F0001146FF20FFF7D8FD00283FF452AF06EB59
:101A00008609A9F1070906EB86064FF0000846454E
:101A10008AD0C827FA2001F061FAFA2001F05EFAB4
:101A2000013FFA2001F05AFABFB2FA2001F056FA4B
:101A3000002FEFD1214604A8FFF744FE01280546F8
:101A40000CD19DF81030042B00F0AC8000F28480A3
:101A5000022B00F08880032B00F0908008F1010831
:101A6000D5E708F120014346A3EB080213F8019BD8
:101A7000D2B2B9F1000F07D08B42F5D120221B3A28
:101A80005FFA82F91B2201E01A2AF8D80023009499
:101A900041461846FFF788FD00283FF402AFB9F130
:101AA000000F13D1002DA0D005F140012B465A1B89
:101AB00013F8018BD2B2B8F1000F12D09942F6D1CF
:101AC00040221B3A5FFA82F81B220CE000940023AC
:101AD0004A4608F11B011020FFF766FD0028E1D1FE
:101AE000DFE61A2AEDD80094002329460120FFF7EB
:101AF0005BFD00283FF4D5AEB8F1000F3FF475AFA1
:101B0000B8F11A0F82BFA8F11B024FF01B085FFA51
:101B100082F900944FF00003424605F11B014FF09B
:101B2000200098BF4FF00009FFF73EFD00283FF46A
:101B3000B8AEB9F1000F3FF458AF4A46092A28BFA2
:101B400009220094002305F136012120FFF72CFD26
:101B500000287FF44AAFA4E6052B3FF4F8AEFF2B34
:101B60003FF425AF7AE7002C3FF49BAEFEF7C8FBAD
:101B7000000240F04B0020803D46E8E6C1453FF7BB
:101B80006DAF002C3FF48DAEFEF7BAFB000240F0C3
:101B90004A0020803D46DAE62A4300083243000826
:101BA0004A430008002C3FF47CAEFEF7A9FB00027C
:101BB00040F04D0020803D46C9E600BF30B50146EB
:101BC0008BB005461A48FEF72DFD044618B10024D7
:101BD00020460BB030BD05B128802846FEF732FC08
:101BE0000028F4D00A210720FEF7C0FC0121084696
:101BF0000A22FEF7A5FB0023202201950093032172
:101C000002A8ADF808208DF80A20FEF71EFD002876
:101C1000DED09DF80A4044B9002DD9D0FEF770FB04
:101C2000000240F04E002880D2E70124D0E700BF38
:101C30004A4300082DE9F04F91B01C4600230746A7
:101C400016468DF81F308A4661B924B9002528460A
:101C500011B0BDE8F08FFEF753FB000240F04F00DB
:101C60002080F3E701F580720B46A3EB0A0813F915
:101C7000011B1FFA88F819B19342F6D14FF480780E
:101C800008F1FF33FE2BE0D8B8F11B0F2AD8002C47
:101C900061D121468B48FEF7C5FC05460028D5D109
:101CA000894B08AA03F1100E9046186859689446AB
:101CB000ACE80300083373456246F6D100231AF9F5
:101CC000031018F90320914240F0A0800133102B3B
:101CD000F5D1002318F80320FA540133102BF9D161
:101CE0000125B4E721467948FEF79CFC0028CED1B7
:101CF00004B120804FF0000BA8EB0B09B9F1170FCE
:101D0000D4BF5FFA89F94FF01809CDE90364CDE932
:101D100001B8CDF800900AEB0B0336220DF11F013C
:101D200008A8FFF74DFB0546002856D1002C8DD0A2
:101D3000FEF7E6FA9DF82030000280B2FC2B2080EE
:101D40003FD02FD89C2B44D001D3FA2B3DD240F06A
:101D50003D0020807BE7002323809AE712F8202CA7
:101D60001344DBB27CE008EB0300C078F854002891
:101D700000F0A48001330F2B40F09C8019469DE0B9
:101D8000002C3FF463AFFEF7BBFA9DF8223000024F
:101D900080B2FA3B2080052BD9D8DFE803F0161675
:101DA000120E0A06FE2B04D007D940F03A0020801C
:101DB0004DE740F03B00208049E740F03C002080A8
:101DC00045E740F05E00208041E740F05F00208062
:101DD0003DE740F04F00208039E7CB441FFA8BFBF2
:101DE000C34589D39DF81F0000239AB2904202D8C0
:101DF0000023BB5474E708A919444978F954002911
:101E0000F6D001330F2BF0D11A46F1E72046FEF74A
:101E100019FB00283FF41AAF0A210720FEF7A6FBA2
:101E200001210A220846FEF78BFA25238DF820307F
:101E30008DF8226000231AF9031008EB03009AB210
:101E4000C17019B101331B2BF5D11A46D11C10AB4F
:101E500058180232002300F8203C8DF82120184643
:101E600082B291420DF1400C00F101006244BFF6D4
:101E700075AF1E2E28BF1E2602F8203CC6EB461367
:101E800006EB83069DF821100194F6000331B6B2EB
:101E9000009600232022C9B24046FEF7D6FB002858
:101EA0003FF4D4AE9DF82230002B7FF469AF9DF84B
:101EB0002120023A934299B2FFF655AF00237B549A
:101EC0000125C4E6024300081A43000852430008F3
:101ED00070B505468AB00E4614460AB10023138039
:101EE0002046FEF7AFFA10B900200AB070BD0A21F3
:101EF0000720FEF73BFB012108460A22FEF720FAE5
:101F0000132301940024ADF808308DF80A300094B2
:101F100023462022032102A8FEF797FB0028E3D0E6
:101F20009DF80920002ADFD09DF80A303370023A6C
:101F300023469A4299B203DC00236B540120D4E774
:101F400002A81844C078E8540028F5D001331B2BB0
:101F5000EFD11946F0E770B505468AB00E46144633
:101F60000AB1002313802046FEF76CFA80B30A21E1
:101F70000720FEF7FBFA012108460A22FEF7E0F9E6
:101F800040F21523ADF808308DF80B6000231736AA
:101F90008DF80A500194354400932022052102A8AF
:101FA0008DF80C50FEF751FB90B11424FA2000F08C
:101FB00095FFFA2000F092FF013CFA2000F08EFF1E
:101FC000A4B2FA2000F08AFF002CEFD19DF80A009D
:101FD0000AB070BD70B504468AB00E4615460AB107
:101FE000002313802846FEF72DFA10B900200AB00E
:101FF00070BD0A210720FEF7B9FA012108460A221E
:10200000FEF79EF940F21B33ADF808308DF80A4018
:10201000330A1E34F6B253FA84F456FA84F48DF877
:102020000D4000248DF80B300195009423462022AA
:10203000062102A88DF80C60FEF707FB0028D5D01A
:102040009DF80A304BB1002DD0D0FEF759F90002AF
:1020500040F03F0028802046C9E70120C7E7000084
:102060002DE9F04F93B099461E9C9DF870809DF825
:102070007470002306468A469346ADF8163004B1C4
:10208000238021467D48FEF7CDFA60B1022E0AD9A1
:10209000FEF736F9000240F0770020800025284640
:1020A00013B0BDE8F08F21467548FEF7BBFA88B93A
:1020B0000DF116014046FFF783FA054650B9BDF809
:1020C0001620D3B2553B012B04D80CB90025E6E706
:1020D0002280E4E76B48FEF77DFA002806AD62DA5D
:1020E00000231BF90310E9549AB219B101330F2BE5
:1020F000F7D11A4612AB1A44002302F8303C2046AE
:10210000FEF7A0F90028E1D00A210720FEF72EFAF9
:1021100001210A220846FEF713F941F21863ADF8CF
:1021200028304FEA1A238DF82A608DF82B308DF86D
:102130002CA000220AA8A95693B200293CD105334D
:102140009BB200219AB2142A3DD94FEA19230022EA
:102150008DF83D308DF83E908DF83F801346815CC0
:1021600001320B44182ADBB2F9D14FF000098DF887
:1021700040300194CDF80090052320221921FEF76C
:1021800064FA0028A2D09DF82A50FDB1002C9DD001
:10219000FEF7B6F89DF82A30C3F1800343EA002029
:1021A00020804D467BE723463A4659462846FFF7AE
:1021B00041FD0028A3D189E783180132102A597103
:1021C000B9D11346BBE7C1540133BBE716F0FD0F8D
:1021D00051D006F00F06012E7FF478AF07EB87078A
:1021E000A946AA464F453CD08DF815A0C826FA202E
:1021F00000F074FEFA2000F071FEFA2000F06EFE8E
:10220000FA2000F06BFE013EF1D1CDE901640096A9
:1022100033460DF1150231464046FFF7BAFAE8B1F0
:102220009DF81530062B19D8DFE803F00418252592
:1022300025250E00002C3FF432AFFEF761F80002B6
:1022400040F0330020802AE7002C3FF428AFFEF74F
:1022500057F8000240F03900208020E709F1010919
:10226000C0E7002C3FF432AFFEF74AF8000240F01E
:102270003400208013E7012511E700BF5A4300080E
:102280004A430008024300082DE9F84FDFF87CB10B
:1022900000224FF001084FF0030A4FF00F090BF135
:1022A000040E00BF0B6808FA02F42340A3426ED16B
:1022B0004D68022D01D0122D0ED1D50800EB850CF2
:1022C000DCF820505607F70E09FA07F6B5430E69F9
:1022D000BE402E43CCF82060066855000F790AFAFC
:1022E00005FC07F0030726EA0C06AF4037430760FA
:1022F0004E68012E05D0022E03D0112E01D0122ED1
:102300000ED18668CF6826EA0C06AF403743876057
:102310004668A6430C79C4F30014944034434460E7
:10232000C6688C6826EA0C06AC403443C4604C682E
:10233000E40065D5364C256845F480452560246861
:1023400022F0030504F480440094324C2E19D6F890
:10235000084895072F0F09FA07F5AC432E4DA84200
:1023600001D1002524E02D4DA84201D101251FE017
:102370002B4DA84201D102251AE02A4DA84201D1D5
:10238000032515E0284DA84202D1042510E037E0CE
:10239000264DA84201D105250AE0254DA84201D1CC
:1023A000062505E0234DA84201D1072500E00825B8
:1023B000BD402543C6F80858DBF800405D464E682E
:1023C0009C43F60300D51C432C60DEF800407546A4
:1023D0004E689C43B60300D51C432C600B4D08355A
:1023E0002C684E689C43F60200D51C432C60074DB8
:1023F0000C352C684E689C43B60200D51C432C60FB
:10240000521C102AFFF44EAFBDE8F88F003C01408B
:102410004438024000300140000002400004024005
:1024200000080240000C024000100240001402406C
:1024300000180240001C02400AB181617047090483
:10244000FBE7000001480068000C7047002004E032
:102450000148006870470000000000200248016841
:10246000491C016070470000000000200B4810B5B7
:10247000016841F400710160016841F4806101600C
:10248000016841F480710160032000F03FF80F20E3
:1024900000F006F800F018F8002010BD003C0240E3
:1024A00010B5044607484FF47A710068B0FBF1F0AC
:1024B00000F044FC00222146501E00F007F80020E6
:1024C00010BD00005C00002070470000F0B40E4B0F
:1024D0001B680C46C3F30223C3F10705042D00D982
:1024E0000425191D072901D2002300E0DB1E012667
:1024F00006FA05F1491E214099409E40761E16407D
:102500003143F0BC01F042BA0CED00E0064900F0A6
:10251000070208684FF6FF03184040EA0220034A0A
:1025200010430860704700000CED00E00000FA0561
:102530002DE9F047DFF8649105460F46D9F8000011
:1025400000F00F01F8B28046B94208D2014689F87E
:102550000010D9F8000000F00F00B84274D12878BC
:102560004F4C800705D52068A96820F0F00008438B
:1025700020602878C00759D049496868083901287F
:102580001AD002281BD0032819D00968890700290E
:102590005ADA216821F0030101432160FFF758FF57
:1025A0006968064641F28830012911D002291DD000
:1025B0000329824627D035E009688903E7E70968DF
:1025C0008901E4E7FFF744FF811B514501D926E06B
:1025D00082462068C0F381000128F3D126E000BFC5
:1025E000FFF736FF811B514501D918E0824620686C
:1025F000C0F381000228F3D118E000BFFFF728FFE5
:10260000811B51450BD82068C0F381000328F5D108
:102610000CE000BFFFF71CFF811B514502D90320CE
:10262000BDE8F087206810F00C0FF3D1D9F8001046
:10263000484601F00F01B94208D980F800800068CF
:1026400000F00F00B84201D00120E9E728784007E8
:1026500005D52068E96820F4E05008432060287818
:10266000000706D52068296920F4604040EAC100CF
:10267000206000F021F82168F02292FAA2F201F025
:10268000F001B2FA82F2D140064A515CC8400649D4
:1026900008600F20FFF704FF0020C1E7003C024064
:1026A00008380240C24200085C000020014800686F
:1026B000704700005C00002030B51948006810F039
:1026C0000C01184812D0441004290ED008290DD14D
:1026D0001349091F0A6802F03F030A68550247F6CA
:1026E000C07204D5B4FBF3F003E0204630BDB0FB6C
:1026F000F3F00B680968134092FAA2F2B2FA82F280
:10270000D34058434FF4403292FAA2F201F44031E0
:10271000B2FA82F2D140491C4900B0FBF1F030BD61
:10272000083802400024F4002DE9F84F0546DFF890
:10273000FC920078A9F1040BC007ABF1040449D066
:10274000D9F800104846C1F38101012908D000687A
:10275000C0F3810002280AD1DBF80000400206D550
:102760002068800336D5686800286ED032E068683B
:10277000B0F5803F10D0B0F5A02F206810D020F425
:1027800080302060206820F4802020606868A0B13C
:10279000FFF75EFE06460CE0206840F48030F4E768
:1027A00040F480202060F7E7FFF752FE801B64288A
:1027B00071D820688003F7D50CE0FFF749FE064684
:1027C00005E000BFFFF744FE801B6428F0D82068B6
:1027D0008003F7D42878964F80074FF0010A4FF016
:1027E000000841D5D9F80010484611F00C0F08D068
:1027F0000068C0F3810002280AD1DBF80000400223
:1028000006D42068800713D5E86801281DD10FE0A1
:10281000E868D8B1C7F800A0FFF71AFE064604E042
:10282000FFF716FE801B0228C2D820688007F7D564
:102830002068F82292FAA2F22969B2FA82F220F014
:10284000F8009140084320600EE0ECE0C7F80080FB
:10285000FFF7FEFD064604E0FFF7FAFD801B0228A5
:1028600019D820688007F7D42878000724D5714844
:10287000696989B1C0F800A0FFF7EAFD064604E0E7
:10288000FFF7E6FD801B022805D868486C30006819
:102890008007F5D510E07AE0C0F80080FFF7D8FD9A
:1028A000064604E0FFF7D4FD801B02286FD85F487E
:1028B0006C3000688007F5D42878400753D55B4812
:1028C0003830016841F080510160006800F08050AC
:1028D00000905948016841F480710160FFF7B8FD2C
:1028E000064604E0FFF7B4FD801B02284FD852488B
:1028F0000068C005F6D54D4EA868683601280FD08F
:102900000528306810D020F001003060306820F0D9
:1029100004003060A868B8B1FFF79AFD00900FE09E
:10292000306840F00100F4E740F004003060F7E761
:10293000FFF78EFD0099411A41F2883081426AD832
:1029400030688007F4D50EE0FFF782FD009007E0C5
:10295000FFF77EFD0099411A41F2883081425AD832
:1029600030688007F4D4A869E8B3D9F80010C1F33F
:102970008101022957D00228C7F8608003D0FFF7F1
:1029800067FD05464AE0FFF763FD064605E042E0C5
:10299000FFF75EFD801B02283DD820688001F7D438
:1029A000D5E90701084347F6C07292FAA2F2696AB4
:1029B000B2FA82F29140AA6A4FF0FF3303EB52025F
:1029C0004FF4403393FAA3F3B3FA83F39A401143DD
:1029D00008434FF0706292FAA2F2E96AB2FA82F208
:1029E0009140084300E01CE0CBF80000C7F860A06D
:1029F000FFF72EFD054604E0FFF72AFD401B0228E5
:102A000009D820688001F7D50BE000BFFFF720FD53
:102A1000401B022802D90320BDE8F88F20688001FE
:102A2000F4D40020F8E70120F6E70000083802405F
:102A300000004742800E47420070004070B504001D
:102A400004D094F85100002510B106E0012070BDBB
:102A500084F85050204600F037F8022084F85100E6
:102A60002068016821F040010160D4E901010843B8
:102A7000D4E903121143084361690843218B01F42F
:102A800000710843E1690843216A0843A16A0843C9
:102A900021680860A069042101EA1040616A0843C6
:102AA00021684860A06AB0F5005F02D12168E06A41
:102AB00008612068C16921F40061C1616565012078
:102AC00084F85100002070BD704700002DE9F84FD8
:102AD000044600200A9F9A4693460D46ADF8000032
:102AE000064694F850004FF0010901280ED001204D
:102AF00084F85000FFF7ACFC804694F85100616800
:102B000001280CD0B1F5827F07D102E00220BDE898
:102B1000F88FA16809B9042801D0022605E155B152
:102B2000BBF1000F07D0BAF1000F04D094F85100A8
:102B3000012802D004E00126F7E0052084F85100C6
:102B400000206065C4F838B0A4F83EA0A4F83CA00A
:102B50002563A4F836A0A4F834A020646064A06AB9
:102B60004FF4005A50450AD1206801684DF6FF72B3
:102B7000114001602068016841F400510160206843
:102B80000168490603D4016841F040010160E06832
:102B9000B0F5006F606804D0F0B3E08E012847D034
:102BA0007FE010B1E08E01283BD1216835F8020B9F
:102BB000C860E08E401EE08633E000BFB9F1000F30
:102BC00017D0E08EA8B120688168890711D535F843
:102BD000021BC160E08E401EE086E08E4FF00009CF
:102BE00038B9A06A504504D12068016841F4805189
:102BF0000160E08F58B120688168C90707D0C068BC
:102C00002BF8020BE08F401EE0874FF00109781C83
:102C100007D0FFF71DFC00E00AE0A0EB0800B84277
:102C200071D2E08E0028C9D1E08F0028C6D13EE0E5
:102C3000216815F8010B0873E08E401EE08630E035
:102C4000B9F1000F17D0E08EA8B12068816889071C
:102C500011D515F8011B0173E08E401EE086E08E51
:102C60004FF0000938B9A06A504504D120680168C6
:102C700041F480510160E08F58B120688168C90734
:102C800007D0C0680BF8010BE08F401EE0874FF0C3
:102C90000109781C05D0FFF7DBFBA0EB0800B84268
:102CA00031D2E08E0028CBD1E08F0028C8D1A06AB5
:102CB000504513D101223B4611462046CDF80080F5
:102CC00001F0E4F920B1606D40F0020060651AE0A7
:102CD0002068C068ADF80000BDF800002068816879
:102CE000C90607D5616D41F0020161654FF6EF71CC
:102CF000816001263B46012202212046CDF800805A
:102D000001F0C4F908B103260FE0424639462046D7
:102D100001F092F918B101262020606505E0A06855
:102D200018B92068C16880680090012084F85100BB
:102D3000002084F850003046E9E6704710B5401E88
:102D4000B0F1807F01D3012010BD4FF0E02460611D
:102D50000F21601700F01AFE0020A06107202061FB
:102D6000002010BD10B5FFF7E8FF10BDF0B5174CFF
:102D700087B00025206840F00800206020681449D2
:102D800000F008000590082008600126CDE9000643
:102D900003270F48CDE9025769461838FFF774FA40
:102DA000206840F00200206020680A4900F002001C
:102DB000059060150860CDE900060648CDE9025788
:102DC00069461838FFF760FA07B0F0BD30380240A6
:102DD000180C02401804024010B5FFF7C7FFBDE809
:102DE000104000F001B8000030B5214887B0002540
:102DF000016841F0020101600068694600F00200CC
:102E000005903820009002200190032003900120BB
:102E10000290052004901748FFF736FA1448143042
:102E2000016841F4805101600068144C00F4805046
:102E30000590114820604FF48270C4E90105E560F7
:102E40004FF400702561C4E905501020C4E907055E
:102E500007206562C4E90A502046FFF7EFFD00B184
:102E6000FEE72068016841F04001016007B030BD15
:102E70003038024000040240003001407C00002055
:102E80000B4910B50A68136823F0400313600A6801
:102E900013684FF6C774234013600A68136803432E
:102EA00013600868016841F04001016010BD000036
:102EB0007C000020034908B1082001E04FF4002005
:102EC00008607047180C0240034908B1481501E03A
:102ED0004FF00070086070471804024001F0B8B964
:102EE00010B50020FFF7E6FF012000F079F8002080
:102EF000FFF7EAFF052000F073F80120FFF7E4FF79
:102F00004FF4967000F06CF80120FFF7D3FFBDE896
:102F1000104040F2ED1000F063B8000010B592B020
:102F20000020FF218DF804008DF83C1002900390E2
:102F300004900590ADF81800FFF7D2FF0820FFF7C6
:102F40009FFF1F4C012000F04BF806AA21461D48A8
:102F5000FEF7B4FA98B106AA00210220FEF7FBFFA3
:102F600000282BD006A901A8FEF784FB002825D055
:102F70009DF80400012803D0032801D01DE0FEE7DE
:102F800006A80090142300220FA112A0FEF774FCE3
:102F9000002813D00A2102A800F034F800280DD030
:102FA00006A90FA8FEF78EFB002807D006AA10A9D5
:102FB00007A8FEF78DFF002800D0012012B010BD39
:102FC000406F4001003001403132333435363738FC
:102FD00039300000416E796C696E6B696E210000BA
:102FE00070B50646002509E00024FA20FFF776FFB9
:102FF000641CA4B2042CF8D36D1CADB2B542F3D35B
:1030000070BD0000F8B5074600200D46ADF8000081
:1030100004464FF47A760FE069463846FEF77AFBAD
:10302000012804D108A13846FDF7C8FC30B9304664
:10303000FFF7D6FF641CA4B2AC42EDD3AC4201D37F
:103040000020F8BD0120F8BD302E302E302E30008B
:10305000ADF5825D00241420CDE9004004ADADF84B
:1030600010408DF80C4040F2D243FDA241F2E10144
:1030700002950220FEF7F4FF48B3AA462A467821BB
:103080009DF80C00FEF7A6FF10B30020F6A10590F6
:10309000D1E90001DFF8D8B30DF11809F54E4FF46E
:1030A0008054F54DCDE90101FEF76AFB0028FBD005
:1030B00003AB6422012105A8CDF800A0FEF7D2FBE6
:1030C0000028F1D09DF81400332802D00DE0FEE76F
:1030D000FEE70020CBF8000000F068FC53469DF8A6
:1030E0000C20012101A8FDF7F1FB9DF81400342804
:1030F0000CD10820CBF8000000F058FC53469DF896
:103100000C2001210DF10500FDF7E0FB9DF81400F6
:1031100035280CD12020CBF8000000F047FC5346A6
:103120009DF80C2001210DF10600FDF7CFFB9DF865
:10313000140036280CD13820CBF8000000F036FC03
:1031400053469DF80C2001210DF10700FDF7BEFB51
:103150009DF81400372816D1002221462846FFF793
:103160006BF93188C54800F077FFADF818000122EF
:1031700021462846FFF760F953469DF80C200221AE
:103180004846FDF7A3FB9DF81400382817D100220C
:1031900021462846FFF750F97188B84800F05CFFD7
:1031A000ADF81A00012221462846FFF745F953469B
:1031B0009DF80C20022109F10200FDF787FB9DF824
:1031C0001400392817D1002221462846FFF734F988
:1031D000B188AA4800F040FFADF81C00012221464A
:1031E0002846FFF729F953469DF80C20022109F1E2
:1031F0000400FDF76BFB9DF81400402817D1002256
:1032000021462846FFF718F9F1889C4800F024FF72
:10321000ADF81E00012221462846FFF70DF953465E
:103220009DF80C20022109F10600FDF74FFB9DF8E7
:103230001400412816D1002221462846FFF7FCF849
:1032400031898E4800F008FFADF8200001222146A8
:103250002846FFF7F1F853469DF80C20022108A8F4
:10326000FDF734FB9DF81400422817D100222146B7
:103270002846FFF7E1F87189804800F0EDFEADF8CF
:103280002200012221462846FFF7D6F853469DF832
:103290000C2002210DF12200FDF718FB9DF814000F
:1032A000432816D1002221462846FFF7C5F8B189E8
:1032B000724800F0D1FEADF82400012221462846D4
:1032C000FFF7BAF853469DF80C20022109A8FDF734
:1032D000FDFA9DF81400442817D100222146284603
:1032E000FFF7AAF8F189654800F0B6FEADF82600B0
:1032F000012221462846FFF79FF853469DF80C20EF
:1033000002210DF12600FDF7E1FA9DF81400452891
:1033100016D1002221462846FFF78EF8318A5748F9
:1033200000F09AFEADF82800012221462846FFF75A
:1033300083F853469DF80C2002210AA8FDF7C6FA2F
:103340009DF81400462817D1002221462846FFF791
:1033500073F8718A494800F07FFEADF82A00012217
:1033600021462846FFF768F853469DF80C200221B5
:103370000DF12A00FDF7AAFA9DF81400472816D18E
:10338000002221462846FFF757F8B18A3B4800F053
:1033900063FEADF82C00012221462846FFF74CF8C9
:1033A00053469DF80C2002210BA8FDF78FFA9DF8DB
:1033B0001400482817D1002221462846FFF73CF880
:1033C000F18A2E4800F048FEADF82E000122214679
:1033D0002846FFF731F853469DF80C2002210DF1E5
:1033E0002E00FDF773FA9DF81400492816D100222B
:1033F00021462846FFF720F8318B204800F02CFEAC
:10340000ADF83000012221462846FFF715F8534653
:103410009DF80C2002210CA8FDF758FA9DF8140025
:10342000502817D1002221462846FFF705F8718B56
:10343000124800F011FEADF8320001222146284664
:10344000FEF7FAFF53469DF80C2002210DF13200E1
:10345000FDF73CFA9DF81400512827D100220FE017
:10346000312E312E312E310010111213FF000000C9
:10347000600000200C00002000040240D400002066
:1034800021462846FEF7D8FFB18BFE4800F0E4FD48
:10349000ADF83400012221462846FEF7CDFF534601
:1034A0009DF80C2002210DA8FDF710FA9DF81400DC
:1034B000522817D1002221462846FEF7BDFFF18B86
:1034C000F04800F0C9FDADF836000122214628463B
:1034D000FEF7B2FF53469DF80C2002210DF1360095
:1034E000FDF7F4F99DF81400532816D10022214667
:1034F0002846FEF7A1FF318CE24800F0ADFDADF8A3
:103500003800012221462846FEF796FF53469DF8D3
:103510000C2002210EA8FDF7D9F99DF814005428BB
:1035200017D1002221462846FEF786FF718CD54828
:1035300000F092FDADF83A00012221462846FEF740
:103540007BFF53469DF80C2002210DF13A00FDF758
:10355000BDF99DF81400552816D1002221462846B1
:10356000FEF76AFFB18CC74800F076FDADF83C006D
:10357000012221462846FEF75FFF53469DF80C20A6
:1035800002210FA8FDF7A2F99DF81400562817D1C3
:10359000002221462846FEF74FFFF18CB94800F083
:1035A0005BFDADF83E00012221462846FEF744FFB0
:1035B00053469DF80C2002210DF13E00FDF786F9DF
:1035C0009DF81400572816D1002221462846FEF700
:1035D00033FF318DAB4800F03FFDADF840000122D4
:1035E00021462846FEF728FF53469DF80C2002216D
:1035F00010A8FDF76BF99DF81400582817D1002288
:1036000021462846FEF718FF718D9E4800F024FDE4
:10361000ADF84200012221462846FEF70DFF534631
:103620009DF80C2002210DF14200FDF74FF99DF8A5
:103630001400592816D1002221462846FEF7FCFE28
:10364000B18D904800F008FDADF8440001222146FC
:103650002846FEF7F1FE53469DF80C20022111A8E2
:10366000FDF734F99DF81400602817D10022214697
:103670002846FEF7E1FEF18D824800F0EDFCADF842
:103680004600012221462846FEF7D6FE53469DF805
:103690000C2002210DF14600FDF718F99DF81400E9
:1036A000612816D1002221462846FEF7C5FE318E3C
:1036B000744800F0D1FCADF84800012221462846AC
:1036C000FEF7BAFE53469DF80C20022112A8FDF722
:1036D000FDF89DF81400622817D1002221462846E3
:1036E000FEF7AAFE718E674800F0B6FCADF84A00FE
:1036F000012221462846FEF79FFE53469DF80C20E6
:1037000002210DF14A00FDF7E1F89DF8140063284D
:1037100016D1002221462846FEF78EFEB18E59486A
:1037200000F09AFCADF84C00012221462846FEF735
:1037300083FE53469DF80C20022113A8FDF7C6F81E
:103740009DF81400642817D1002221462846FEF770
:1037500073FEF18E4B4800F07FFCADF84E00012265
:1037600021462846FEF768FE53469DF80C200221AC
:103770000DF14E00FDF7AAF89DF81400652816D14A
:10378000002221462846FEF757FE318F3D4800F0C3
:1037900063FCADF85000012221462846FEF74CFE9E
:1037A00053469DF80C20022114A8FDF78FF89DF8D0
:1037B0001400662817D1002221462846FEF73CFE59
:1037C000718F304800F048FCADF8520001222146CC
:1037D0002846FEF731FE53469DF80C2002210DF1DC
:1037E0005200FDF773F89DF81400672816D10022E7
:1037F00021462846FEF720FEB18F224800F02CFC1F
:10380000ADF85400012221462846FEF715FE534626
:103810009DF80C20022115A8FDF758F89DF814001A
:10382000682817D1002221462846FEF705FEF18FB1
:10383000144800F011FCADF856000122214628463C
:10384000FEF7FAFD53469DF80C2002210DF15600BB
:10385000FDF73CF89DF8140076282DD100270022B2
:1038600021462846FEF7E8FD36F81710054800F017
:10387000F3FB09EB47080122A8F85000214628462F
:1038800002E00000D4000020FEF7D6FD6420FFF720
:10389000A7FB08F1500053469DF80C200221FDF7CC
:1038A00015F87F1C202FDADB06D153469DF80C203B
:1038B000022102A8FDF70AF89DF81400772821D10B
:1038C0000027002221462846FEF7B6FD36F81710DD
:1038D0002C4800F0C1FB09EB47080122A8F8A00022
:1038E00021462846FEF7A8FD6420FFF779FB08F182
:1038F000A00053469DF80C200221FCF7E7FF7F1C37
:10390000232FDEDB9DF81400782817D100222146F2
:103910002846FEF791FDB6F844101A4800F09CFBCB
:10392000ADF88001012221462846FEF785FD534669
:103930009DF80C20022160A8FCF7C8FF9DF8140038
:1039400080287FF4B1ABDFF84080002700222146B9
:103950002846FEF771FD38F817100A4800F07CFB86
:10396000012221462846FEF767FD08EB4700534633
:103970009DF80C200221FCF7A9FF7F1C052FE5DB39
:10398000FFF792BBD4000020520000200907090E67
:10399000002806DA00F00F0000F1E02080F8141D86
:1039A000704700F1E02080F8001470472DE9F043E3
:1039B0008146FF489DB00024016841F0020101608A
:1039C000006800F002001B90F9481030016841F4D3
:1039D00080410160006817A900F480401B904FF4FB
:1039E0006040169002200125032681E86100052031
:1039F000DFF8C0831A9016A94046FEF745FC2F0356
:103A0000CDE91675CDE9185616A94046FEF73CFCDF
:103A1000012239464046FEF70FFDE748CDE9000494
:103A2000C014CDE9024080100494CDE90540CDE9F1
:103A300007940720CDE90A4009946846FEF7FEFF87
:103A40004FF47A7000F0F6FB002239464046FEF74C
:103A5000F3FC322000F0FCFB48F2FE01684600F067
:103A6000FBFA322000F0F4FB012239464046FEF713
:103A7000E3FCD24800F0ECFB002239464046FEF75A
:103A8000DBFC322000F0E4FB48F2DE01684600F087
:103A9000E3FA322000F0DCFB012239464046FEF713
:103AA000CBFC4FF4FA74204600F0D2FB00223946DA
:103AB0004046FEF7C1FC322000F0CAFB48F220115C
:103AC000684600F0C9FA322000F0C2FB01223946F4
:103AD0004046FEF7B1FC204600F0BAFB0022394612
:103AE0004046FEF7A9FC322000F0B2FB48F2282144
:103AF000684600F0B1FA322000F0AAFB01223946F4
:103B00004046FEF799FC204600F0A2FB0022394611
:103B10004046FEF791FC322000F09AFB48F201315A
:103B2000684600F099FA322000F092FB01223946F3
:103B30004046FEF781FC204600F08AFB0022394611
:103B40004046FEF779FC322000F082FB48F28041CB
:103B5000684600F081FA322000F07AFB01223946F3
:103B60004046FEF769FC204600F072FB0022394611
:103B70004046FEF761FC322000F06AFB4FF405413D
:103B8000684600F069FA322000F062FB01223946F3
:103B90004046FEF751FC204600F05AFB0022394611
:103BA0004046FEF749FC322000F052FB4FF406413C
:103BB000684600F051FA322000F04AFB01223946F3
:103BC0004046FEF739FC204600F042FB0022394611
:103BD0004046FEF731FC322000F03AFB4FF407413B
:103BE000684600F039FA322000F032FB01223946F3
:103BF0004046FEF721FC204600F02AFB0022394611
:103C00004046FEF719FC322000F022FB48F61E0168
:103C1000684600F021FA322000F01AFB01223946F2
:103C20004046FEF709FC204600F012FB0022394610
:103C30004046FEF701FC322000F00AFB48F68515ED
:103C40002946684600F008FA322000F001FB012204
:103C500039464046FEF7F0FB204600F0F9FA002214
:103C600039464046FEF7E8FB322000F0F1FA2946DB
:103C7000684600F0F1F9322000F0EAFA01223946F4
:103C80004046FEF7D9FB204600F0E2FA0022394612
:103C90004046FEF7D1FB322000F0DAFA48F62B213D
:103CA000684600F0D9F9322000F0D2FA01223946F4
:103CB0004046FEF7C1FB204600F0CAFA0022394612
:103CC0004046FEF7B9FB322000F0C2FA48F68631D2
:103CD000684600F0C1F9322000F0BAFA01223946F4
:103CE0004046FEF7A9FB204600F0B2FA0022394612
:103CF0004046FEF7A1FB322000F0AAFA48F6104138
:103D0000684600F0A9F9322000F0A2FA01223946F3
:103D10004046FEF791FB204600F09AFA0022394611
:103D20004046FEF789FB322000F092FA48F6FC513B
:103D3000684600F091F9322000F08AFA01223946F3
:103D40004046FEF779FB204600F082FA0022394611
:103D50004046FEF771FB322000F07AFA48F6FF6128
:103D6000684600F079F9322000F072FA01223946F3
:103D70004046FEF761FB204600F06AFA0022394611
:103D80004046FEF759FB322000F062FA48F6FF7118
:103D9000684600F061F9322000F05AFA01223946F3
:103DA0004046FEF749FB204600F052FA002207E0A9
:103DB0003038024000040240003800402048010032
:103DC00039464046FEF738FB322000F041FA49F20E
:103DD000FF01684600F040F9322000F039FA012274
:103DE00039464046FEF728FB204600F031FA002213
:103DF00039464046FEF720FB322000F029FA49F20E
:103E0000FF11684600F028F9322000F021FA012263
:103E100039464046FEF710FB44F6206000F018FAE1
:103E2000002239464046FEF707FB322000F010FA28
:103E30004FF4AA41684600F00FF9322000F008FA6A
:103E4000012239464046FEF7F7FA204600F000FA14
:103E5000002239464046FEF7EFFA322000F0F8F92A
:103E60004FF6F071684600F0F7F8322000F0F0F9F4
:103E7000012239464046FEF7DFFA204600F0E8F915
:103E8000002239464046FEF7D7FA322000F0E0F92A
:103E90004FF6F171684600F0DFF8322000F0D8F9F3
:103EA000012239464046FEF7C7FA204600F0D0F915
:103EB000002239464046FEF7BFFA322000F0C8F92A
:103EC0004FF6F271684600F0C7F8322000F0C0F9F2
:103ED000012239464046FEF7AFFA204600F0B8F915
:103EE000002239464046FEF7A7FA322000F0B0F92A
:103EF0004FF6F371684600F0AFF8322000F0A8F9F1
:103F0000012239464046FEF797FA204600F0A0F914
:103F1000002239464046FEF78FFA322000F098F929
:103F20004FF6F471684600F097F8322000F090F9EF
:103F3000012239464046FEF77FFA204600F088F914
:103F4000002239464046FEF777FA322000F080F929
:103F50004FF6F571684600F07FF8322000F078F9EE
:103F6000012239464046FEF767FA204600F070F914
:103F7000002239464046FEF75FFA322000F068F929
:103F80004FF6F671684600F067F8322000F060F9ED
:103F9000012239464046FEF74FFA204600F058F914
:103FA000002239464046FEF747FA322000F050F929
:103FB0004FF6F771684600F04FF8322000F048F9EC
:103FC000012239464046FEF737FA204600F040F914
:103FD000002239464046FEF72FFA322000F038F929
:103FE0004FF6F871684600F037F8322000F030F9EB
:103FF000012239464046FEF71FFA204600F028F914
:10400000002239464046FEF717FA322000F020F928
:104010004FF6F971684600F01FF8322000F018F9E9
:10402000012239464046FEF707FA41F2883000F097
:104030000FF91DB0BDE8F08338B50B460092044679
:104040000022802100F022F8002804D0606D40F0AA
:1040500020006065032038BD03B583B042F21071C3
:104060000091022301AA04A9FEF730FDBDF8040067
:1040700028B900231A4602210348FCF727FCBDF8A3
:10408000040005B000BD0000080000202DE9F0414B
:104090001D4617460E460446DDF8188035E0681CBC
:1040A00033D02DB1FEF7D4F9A0EB0800A8422CD3F1
:1040B0002068416821F0E00141606068B0F5827FCE
:1040C0000BD1A068B0F5004F02D0B0F5806F04D1DD
:1040D0002068016821F040010160A06AB0F5005F2E
:1040E0000AD1206801684DF6FF7211400160206816
:1040F000016841F400510160012084F85100002062
:1041000084F850000320BDE8F0812068806836EA1A
:10411000000004D00020B842C1D10020F3E7012004
:10412000F9E710B5FEF79AF9BDE81040FEF71ABEA0
:1041300070B5214C92B00025266846F08056266066
:10414000246804F0805411941C4C266846F4804680
:10415000266024680DF1200C04F48044119401249D
:104160000094240401948CE80F0002246605CDE934
:1041700006466846FEF7D8FA00B1FEE70CA90F2004
:1041800081E831004FF4A0500F904FF48050109010
:1041900005210CA8FEF7CCF900B1FEE7FEF752F9B5
:1041A00041F20101884204D10548016841F480715F
:1041B000016012B070BD0000403802400070004045
:1041C000003C02401048016841F4700101600F4852
:1041D000016841F0010101600C4A002108321160C0
:1041E00002680B4B1A400260031D0A4A1A600268FB
:1041F00022F48022026005480C3001600249580612
:10420000803908607047000088ED00E00038024007
:10421000FFFFF6FE1030002410B5FEF747FA034901
:10422000B0FBF1F00249086010BD000040420F00F1
:104230000400002070B5054600244FF47A7603E0B0
:10424000304600F005F8641CAC42F9D370BD0000A4
:1042500070B54FF0E024002265690949A369096837
:104260004843A1699942FCD002D2A3EB010302E0CA
:10427000A5EB010633441A440B468242F1D370BDCC
:1042800004000020FEF7F2F8072302224FF4A87181
:104290000820FFF74DFFFFF7BFFFFEF79DFD054824
:1042A0000068FFF783FBFEF739FE10B1FEF7D0FE82
:1042B000FCE7FEE7600000204FF00000E1EE100A8E
:1042C0007047000000000102030401020304060716
:1042D000080953544D3332463400000000000000FA
:1042E000000056312E312E382D55000041494B5BD0
:1042F000DB41312E322E302D3100312E312E382D32
:104300003100312E312E362D3300312E312E362D07
:104310003400312E312E362D35003235352E3235E2
:10432000352E3235352E32353500312E312E362DA3
:104330003700312E312E382D3800312E312E362DCA
:104340004500312E312E362D4600312E312E362DA0
:104350004E00312E312E382D5200312E312E382D77
:104360005800000084430008000000207C0000008A
:10437000C4010008004400087C0000201C23000049
:10438000E0010008000000000000000058128459FD
:104390000000000100020003000400050006000701
:1043A00000080009000A000B000C000D000E000FB1
:1043B0000010001100120013001400150016001761
:1043C00000180019001A001B001C001D001E001F11
:1043D00000200021002200E800E900EA00EB00ECE8
:1043E0000024F40010000000312E312E312D310058
:1043F00000000000000000000001020100040000B5
:040000050800018965
:00000001FF
