:020000040800F2
:100000001007002029020008331C000871150008A1
:10001000311C00081F040008C12000080000000077
:10002000000000000000000000000000651D000846
:100030002104000800000000351C0008671D0008AE
:10004000430200084302000843020008430200087C
:10005000430200084302000843020008430200086C
:10006000430200084302000843020008430200085C
:10007000430200084302000843020008430200084C
:10008000430200084302000843020008430200083C
:10009000430200084302000843020008430200082C
:1000A000430200084302000843020008430200081C
:1000B000430200084302000843020008430200080C
:1000C00043020008430200084302000843020008FC
:1000D00043020008B520000843020008430200085C
:1000E00043020008430200084302000843020008DC
:1000F00043020008430200084302000843020008CC
:1001000043020008430200084302000843020008BB
:1001100043020008430200084302000843020008AB
:10012000430200084302000843020008430200089B
:10013000430200084302000843020008430200088B
:10014000430200084302000843020008430200087B
:10015000430200084302000843020008430200086B
:10016000430200084302000843020008430200085B
:100170004302000843020008430200080000000098
:10018000430200084302000800F002F800F03CF8C7
:100190000AA090E8000C82448344AAF10107DA45E2
:1001A00001D100F031F8AFF2090EBAE80F0013F0F8
:1001B000010F18BFFB1A43F001031847BC200000D1
:1001C000DC200000103A24BF78C878C1FAD8520762
:1001D00024BF30C830C144BF04680C6070470000C1
:1001E0000023002400250026103A28BF78C1FBD840
:1001F000520728BF30C148BF0B6070471FB502F0DF
:1002000027F81FBD10B510BD00F0CFF81146FFF75D
:10021000F5FF01F067FF00F0EDF803B4FFF7F2FF20
:1002200003BC00F0F5F80000094880470948004782
:10023000FEE7FEE7FEE7FEE7FEE7FEE7FEE7FEE796
:10024000FEE7FEE704480549054A064B70470000F3
:10025000011E00088901000810010020100700207D
:10026000100300201003002053EA020C00F0698004
:100270002DE9F04B4FF00006002B1FBFB3FA83F5BA
:1002800003FA05F424FA05F65E4012BF1643B2FAEB
:1002900082F502FA05F4C5F120051EBF22FA05FC1D
:1002A00044EA0C04203556EA044C4FEA144418BFC3
:1002B000641C4FF000084FF00009904271EB030CF2
:1002C00039D3002919BFB1FA81F701FA07F6B0FA5C
:1002D00080F700FA07F6C7F120071EBF20FA07FCD7
:1002E00046EA0C062037B6FBF4FCA7EB0507103FE7
:1002F00007F01F0BCBF120060CFA0BFB2CFA06F6CD
:1003000044BFB3460026202FA4BF5E464FF0000B2B
:100310005BEA060C08BF4FF0010B19EB0B09ABFBB6
:10032000027C48EB0608C01B06FB02CC0BFB03CC8F
:1003300071EB0C01C1E70B46024641464846BDE859
:10034000F08B13B54FF000004FF00001AFF30080C9
:10035000BDE81C4070474FF0000200B513469446BC
:100360009646203922BFA0E80C50A0E80C50B1F10D
:100370002001BFF4F7AF090728BFA0E80C5048BF21
:100380000CC05DF804EB890028BF40F8042B08BFBF
:10039000704748BF20F8022B11F0804F18BF00F8BB
:1003A000012B7047704770477047754600F02CF876
:1003B000AE4605006946534620F00700854618B052
:1003C00020B5FFF73FFFBDE820404FF000064FF09B
:1003D00000074FF000084FF0000B21F00701AC467A
:1003E000ACE8C009ACE8C009ACE8C009ACE8C00999
:1003F0008D46704710B50446AFF300802046BDE837
:100400001040FFF70ABF000000487047B00000200E
:1004100001491820ABBEFEE7260002007047FEE748
:10042000704772B6FEE72DE9F0410446876D00F093
:1004300065F9064694F835000025022806D080208C
:10044000606584F834500120BDE8F08120680168BF
:1004500021F0160101602068416921F080014161AD
:10046000206C08B9A06C20B12068016821F0080157
:1004700001602068016821F0010101600CE000F0DA
:100480003DF9801B052807D920206065032084F8EA
:10049000350084F83450D7E720680068C007EED1F3
:1004A00094F85C103F208840B860012084F8350043
:1004B00084F834500020C7E790F83510022903D0A3
:1004C0008021416501207047052180F835100068C2
:1004D000016821F0010101600020704770B50446F9
:1004E00000F00CF90546601C02D004480078044472
:1004F00000F004F9401BA042FAD370BD04000020B4
:100500002DE9F84FDFF8BCA1002201250AF1040B08
:1005100003264FF00F090BF1040E00BF0B6805FA1C
:1005200002F42340A34270D10F7907F00307012F93
:1005300001D0022F16D187684FEA420806FA08FC5C
:1005400027EA0C07D1F80CC00CFA08FC4CEA070C9F
:10055000C0F808C04768A7430C79C4F3001494405E
:100560003C4344600C79E443A4070AD0C4684FEAD2
:10057000420C06FA0CF7BC438F6807FA0CF72743C6
:10058000C7600C7904F00304022C12D1D40800EBEC
:10059000840CDCF820405707FF0E09FA07F824EA1C
:1005A0000804D1F8108008FA07F848EA0408CCF8E3
:1005B000208004684FEA420C06FA0CF7BC430F791E
:1005C00007F0030707FA0CF7274307604C6814F499
:1005D000403F70D03C4C276847F480472760246830
:1005E00022F0030704F480440094384C07EB040C19
:1005F000DCF8084897074FEA177809FA08F7BC4370
:10060000334FB84202D1002724E054E0314FB842C2
:1006100001D101271EE0304FB84201D1022719E075
:100620002E4FB84201D1032714E02D4FB84201D11B
:1006300004270FE02B4FB84201D105270AE02A4FCB
:10064000B84201D1062705E0284FB84201D107275B
:1006500000E0082707FA08F72743CCF80878DAF80B
:1006600000405746D1F804C09C435FEACC3C00D51B
:100670001C433C60DBF800405F46D1F804C09C435B
:100680005FEA8C3C00D51C433C60DEF800407746B6
:10069000D1F804C09C435FEACC2C00D51C433C60DD
:1006A000084F0C373C68D1F804C09C435FEA8C2C9F
:1006B00000D51C433C60521C102AFFF42FAFBDE84C
:1006C000F88F0000003C01404438024000300140F7
:1006D000000002400004024000080240000C0240FA
:1006E000001002400014024000180240001C0240AA
:1006F0000AB1816170470904FBE700000148806886
:10070000704700000400002002488168027811440C
:1007100081607047040000200B4810B5016841F467
:1007200000710160016841F480610160016841F479
:1007300080710160032000F06FF80F2000F006F8D0
:1007400000F024F8002010BD003C024070B50D4DB3
:1007500004464FF47A712878B1FBF0F00A49096831
:10076000B1FBF0F000F08DFC48B9102C07D200224C
:100770002146501E00F030F800206C6070BD012052
:1007800070BD000004000020100000200A4808B5D9
:10079000016841F480410160006800F480400090ED
:1007A0000548001F016841F080510160006800F0B9
:1007B0008050009008BD000044380240002809DB4A
:1007C00000F01F02012191404009800000F1E0206B
:1007D000C0F8001170470000F0B40E4B1B680C46C7
:1007E000C3F30223C3F10705042D00D90425191D05
:1007F000072901D2002300E0DB1E012606FA05F1DD
:10080000491E214099409E40761E16403143F0BC5F
:1008100001F057BC0CED00E0064900F00702086843
:100820004FF6FF03184040EA0220034A10430860D5
:10083000704700000CED00E00000FA052DE9F047DC
:100840000E46050065D0DFF81481D8F80000F7B235
:1008500000F00700B04207D288F80070D8F8000016
:1008600000F00700B04254D128683D4C810712D5F2
:10087000400703D5206840F4E05020602878000746
:1008800003D5206840F4604020602068A96820F00B
:10089000F000084320602878C0072DD030496868F0
:1008A0000839012812D0022813D0032811D0096872
:1008B000890700292DDA216821F003010143216015
:1008C000FFF71CFF814641F2883A0EE00968890370
:1008D000EFE709688901ECE7FFF710FFA0EB0901DA
:1008E000514502D90320BDE8F0872068696800F00F
:1008F0000C00B0EB810FEFD1D8F80010404601F0AA
:100900000701B14207D90770006800F00700B04244
:1009100001D00120E7E72878400705D52068E9687D
:1009200020F4E050084320602878000706D52068AE
:10093000296920F4604040EAC100206000F038F8E6
:100940002168084AC1F30311515CC8400649086098
:1009500006480068FFF7FAFE0020C4E7003C0240AA
:100960000838024060220008100000200800002023
:100970000448054900680968044AC1F38221515CB2
:10098000C84070471000002008380240702200085C
:100990000448054900680968044AC1F34231515CC2
:1009A000C84070471000002008380240702200083C
:1009B000154810B5006810F00C02144813D041100F
:1009C000042A0FD0082A0ED10F4C241F2268236856
:1009D00002F03F025B0207D52068C0F38810A0FB3D
:1009E000010106E0084610BD2168C1F38811A1FB92
:1009F00000010023FFF738FC2168C1F30141491CC5
:100A00004900B0FBF1F010BD083802400024F400AA
:100A10002DE9F84F04006ED02078DFF84C93C00722
:100A2000A9F104054AD009F104000168C1F381016C
:100A3000012908D00068C0F3810002280AD1D9F842
:100A40000000400206D52868800337D5606800287A
:100A5000E1D033E06068B0F5803F10D0B0F5A02F52
:100A6000286810D020F480302860286820F4802086
:100A700028606068A8B1FFF741FE06460DE02868CF
:100A800040F48030F4E740F480202860F7E700BFAE
:100A9000FFF734FE801B642873D828688003F7D5DD
:100AA0000CE0FFF72BFE064605E000BFFFF726FE31
:100AB000801B6428F0D828688003F7D42078DFF8FA
:100AC000AC8280074FF0000A3ED5A748001D0168A0
:100AD00011F00C0F08D00068C0F3810002280BD180
:100AE000D9F80000400207D42868800716D5E068CE
:100AF000012800D112E033E1E068B8B10120C8F864
:100B00000000FFF7FBFD064605E000BFFFF7F6FD1E
:100B1000801B0228C0D828688007F7D5286821697B
:100B200020F0F80040EAC10028600DE0C8F800A0FD
:100B3000FFF7E4FD064604E0FFF7E0FD801B022816
:100B40001FD828688007F7D42078000722D5864F61
:100B500087486169703771B101210160FFF7CEFDEF
:100B6000064604E0FFF7CAFD801B022809D8386852
:100B70008007F7D50EE0C0F800A0FFF7BFFD0646DE
:100B800005E082E0FFF7BAFD801B02287DD83868B7
:100B90008007F7D42078400768D5DFF8CCB100276C
:100BA0000BF13C0BDBF80000C0000BD4DBF80010AD
:100BB00041F08051CBF80010DBF80000012700F075
:100BC000805000906B4E3068C00510D4306840F4FF
:100BD00080703060FFF792FD009005E0FFF78EFD1A
:100BE0000099401A022850D83068C005F6D55E4EEC
:100BF000A0686C3601280FD00528306810D020F08E
:100C000001003060306820F004003060A068B8B1A6
:100C1000FFF774FD00900FE0306840F00100F4E74A
:100C200040F004003060F7E7FFF768FD0099411AD3
:100C300041F28830814266D830688007F4D50EE0F2
:100C4000FFF75CFD009007E0FFF758FD0099411A9F
:100C500041F28830814256D830688007F4D42FB1F1
:100C6000DBF8001021F08051CBF80010A069C8B368
:100C70003D49091D0968C1F3810102294AD00228B2
:100C8000504607D0C8F8600000E03CE0FFF736FDB2
:100C900004463BE04746C8F86000FFF72FFD0646D4
:100CA00005E000BFFFF72AFD801B02282BD828682B
:100CB0008001F7D4D4E907010843A16A2E4A490804
:100CC00002EB0141626A41EA8211084394F82C1058
:100CD00040EA0161C9F8001001203866FFF70EFDF7
:100CE000044606E03EE000BFFFF708FD001B0228B7
:100CF00009D828688001F7D534E000BFFFF7FEFC73
:100D0000001B022802D90320BDE8F88F2868800163
:100D1000F4D427E00128F7D0D9F80000E26900F404
:100D2000800191421CD1226A00F03F01914217D10B
:100D300047F6C071626A0140B1EB821F10D1A26A0E
:100D40004FF0FF3300F4403103EB5202B1EB024F9E
:100D500006D194F82C1000F07060B0EB016F01D058
:100D60000120D1E70020CFE70438024000004742CD
:100D7000800E4742007000400000FFFF70B5040085
:100D800009D0606A002540B125616561A56294F8CB
:100D9000510040B10CE0012070BD6068B0F5827F69
:100DA000F4D0E561F2E784F85050204600F044F8B2
:100DB000022084F851002068016821F040010160A0
:100DC000A088218900F4827001F404410843A189BC
:100DD00001F400610843217C01F002010843217DF8
:100DE00001F001010843218B01F400710843217FC8
:100DF00001F03801084394F8201001F08001084305
:100E0000218D01F40051084321680860A069042184
:100E100001EA104094F8241001F010010843216801
:100E200048602068C16921F40061C16165650120E5
:100E300084F85100002070BD10B586B0044614211E
:100E40006846FFF788FA13492068884220D1124883
:100E5000016841F480510160006800F48050059001
:100E60000D481438016841F00101016000686946CD
:100E700000F001000590E020009002200190012088
:100E8000029003200390052004900448FFF738FBEC
:100E900006B010BD0030014044380240000002405E
:100EA0002DE9F84F044690F8500000270A9E1D4691
:100EB00092468B464FF0010901280ED0012084F89C
:100EC0005000FFF71BFC804694F851006168012830
:100ED0000CD0B1F5827F07D102E00220BDE8F88F87
:100EE000A16809B9042801D00227C2E0BBF1000FB4
:100EF00027D0BAF1000F24D01DB394F85100042874
:100F000002D0052084F8510000206065C4F838A0A4
:100F1000E587A587C4F830B0E586A58620646064BF
:100F200020680168490603D4016841F0400101606E
:100F3000E068B0F5006F606805D0E8B3012D46D0D9
:100F40007FE0012795E008B1012D39D1206B2168A0
:100F50000088C860206B801C2063E08E401EE08605
:100F60002EE02068816889070FD5E18E69B1B9F15B
:100F7000010F0AD1216B0988C160206B801C20639E
:100F8000E08E401EE0864FF0000920688168C907A6
:100F90000CD0E18F51B1C068A16B0880A06B801CA0
:100FA000A063E08F401EE0874FF00109FFF7A6FB2A
:100FB000A0EB0800B04200E009E001D3701C50D162
:100FC000E08E0028CDD1E08F0028CAD13FE0206B11
:100FD000216800780873206B401C2063E08E401E5F
:100FE000E0862EE02068816889070FD5E18E69B11F
:100FF000B9F1010F0AD1216B09780173206B401CF4
:101000002063E08E401EE0864FF000092068816872
:10101000C9070CD0E18F51B1C068A16B0870A06BFB
:10102000401CA063E08F401EE0874FF00109FFF7EE
:1010300065FBA0EB0800B04202D3701C01D010E0A9
:101040007EB1E08E0028CDD1E08F0028CAD1424683
:101050003146204600F0F0FD28B1012720206065D0
:1010600007E0032705E0A06818B92068C168806818
:101070000090012084F85100002084F85000384688
:101080002CE710B5401EB0F1807F01D3012010BDC8
:101090004FF0E02460610F21601701F012F800208A
:1010A000A06107202061002010BD7047704700003C
:1010B000F8B5016804460868CA684B6910F00F0F5C
:1010C0004FF0000559D003F0010602F49077374342
:1010D00065D0C10705D0D10503D5216C41F00101D0
:1010E0002164410705D5D90703D0216C41F00201E5
:1010F0002164810705D5D90703D0216C41F0040193
:101100002164010707D502F02001314303D0216C8F
:1011100041F008012164216C00293AD0800604D5F1
:10112000900602D5204600F0A2FE20684069216C9E
:10113000C0F38010090700D460B3204600F070FEB1
:1011400020684069400621D52068143050E8001F0F
:1011500021F0400140E80012002AF5D1A06BA8B1AF
:101160006C490165A06BFFF7A7F9002811D0A06BAF
:10117000016D01B0BDE8F040084783060FD5930626
:101180000DD52046BDE8F84000F071BE2046FFF7BF
:101190008DFFF8BD2046FFF789FF2564F8BD266B5B
:1011A0002023012E79D1C60677D5D60675D50868D5
:1011B000486800904869400640D5A16B08684068BF
:1011C0000004000CEAD0A28D8242E7D9E085C8690C
:1011D000B0F5807F2DD020680C3050E8001F21F43E
:1011E000807140E80012002AF5D12068143050E8E0
:1011F000001F21F0010140E80012002AF5D120680B
:10120000143050E8001F21F0400140E80012002A8D
:10121000F5D184F83E30256320680C3050E8001F7B
:1012200021F0100140E80012002AF5D1A06BFFF771
:10123000FAF8A08DE18D401A81B229E0A08DE18DF0
:10124000401A81B2E08D0028A8D00029A6D02068DD
:101250000C3050E8002F22F4907240E80026002E57
:10126000F5D12068143050E8002F22F0010240E848
:101270000026002EF5D184F83E30256320680C301E
:1012800050E8002F22F0100240E80023002BF5D197
:101290002046FFF70AFFF8BDFFE705062BD5150628
:1012A00029D594F83D002128F5D1A068B0F5805FDC
:1012B00001D12069B0B1206A411C21622168007807
:1012C0004860E08C401E0004000CE084E3D12068FC
:1012D000C16821F08001C1602068C16841F040010F
:1012E000C160D8E7206A0088C0F308004860206A1F
:1012F000801C2062E5E74006CDD55006CBD5CA68F4
:10130000204622F04002CA6084F83D3000F02FF9F8
:10131000C1E70000111E000870B5040004D094F865
:101320003D00002510B106E0012070BD84F83C505E
:10133000204600F023F8242084F83D002068C1688E
:1013400021F40051C160204600F0F2FD20680169DF
:1013500021F4904101612068416921F02A01416135
:101360002068C16841F40051C1602564202084F8E0
:101370003D0084F83E00002070BD000010B586B02E
:10138000044614216846FEF7E6FF184920688842A3
:1013900029D117480021026842F01002026000685B
:1013A00000F01000059012481438026842F0010263
:1013B0000260006800F0010005904FF4C0600090EA
:1013C0000220CDE901010320039007200490694623
:1013D0000848FFF795F8002211462520FFF7FCF991
:1013E0002520FFF7EBF906B010BD0000001001400A
:1013F00044380240000002402DE9F84F044690F8BE
:101400003E009A4616460D46202853D1FDB1F6B14E
:1014100094F83C0001284DD0012084F83C000027BE
:101420002764222084F83E002763FFF767F9A6852A
:101430008146E685A0684FF48058404501D1206977
:1014400040B12E465FF0000584F83C7027E0012093
:10145000BDE8F88F0026F7E74B4600222021204602
:10146000CDF800A000F0EAFD08B10320F0E726B1B6
:10147000A06840451BD038B108E020684068C0F340
:10148000080025F8020B07E0206980B12068406859
:1014900000F07F0006F8010BE08D401EE085E08D36
:1014A0000028D9D1202084F83E000020D0E7206811
:1014B0004068EFE70220CBE7704700002DE9F843D2
:1014C000044690F83D001F4616460D4620284CD194
:1014D000C5B1BEB194F83C00012846D0012084F883
:1014E0003C004FF00008C4F84080212084F83D0003
:1014F000FFF704F9A6848146E684A068B0F5805F12
:1015000003D004E00120BDE8F883206928B12E460D
:101510005FF0000584F83C800EE00026FAE78021A9
:10152000204600F08BFDA0B9AEB116F8010B216882
:101530004860E08C401EE084E08C4B464FF0000297
:1015400000970028EBD14FF04001204600F076FDD7
:1015500030B10320D7E735F8020BC0F30800E6E707
:10156000202084F83D000020CDE70220CBE7704723
:10157000FEE7000030B587B014216846FEF7EBFEA9
:1015800011480024016841F080010160016801F008
:1015900080010591016841F00101016000680B4D77
:1015A00000F001000590224610212846FFF7A0F820
:1015B000102000900120CDE90104694628460394DB
:1015C000FEF79EFF07B030BD3038024000000240F9
:1015D00070B5FF49FD4A4FF400630A604FF4827210
:1015E0004A600022C1E902239B100A61C1E9052378
:1015F000C1E9070207204A62C1E90A200846FFF74D
:10160000BDFB08B1FEF70DFF0A20FEF767FFF14CA6
:10161000002210212046FFF76BF80520FEF75EFF41
:1016200048F2FE01EA4800F033FB0520FEF756FFC2
:10163000012210212046FFF75BF85420FEF74EFFF1
:10164000002210212046FFF753F80520FEF746FF41
:1016500048F2DE01DE4800F01BFB0520FEF73EFFEE
:10166000012210212046FFF743F83220FEF736FF13
:10167000002210212046FFF73BF80520FEF72EFF41
:1016800048F22011D24800F003FB0520FEF726FFA8
:10169000012210212046FFF72BF83220FEF71EFF13
:1016A000002210212046FFF723F80520FEF716FF41
:1016B00048F22821C64800F0EBFA0520FEF70EFF9D
:1016C000012210212046FFF713F83220FEF706FF13
:1016D000002210212046FFF70BF80520FEF7FEFE42
:1016E00048F20131BA4800F0D3FA0520FEF7F6FEC1
:1016F000012210212046FEF7FBFF3220FEF7EEFE0E
:10170000002210212046FEF7F3FF0520FEF7E6FE3B
:1017100048F28041AE4800F0BBFA0520FEF7DEFE3D
:10172000012210212046FEF7E3FF3220FEF7D6FE0D
:10173000002210212046FEF7DBFF0520FEF7CEFE3B
:101740004FF40541A24800F0A3FA0520FEF7C6FEBB
:10175000012210212046FEF7CBFF3220FEF7BEFE0D
:10176000002210212046FEF7C3FF0520FEF7B6FE3B
:101770004FF40641964800F08BFA0520FEF7AEFEC6
:10178000012210212046FEF7B3FF3220FEF7A6FE0D
:10179000002210212046FEF7ABFF0520FEF79EFE3B
:1017A0004FF407418A4800F073FA0520FEF796FED1
:1017B000012210212046FEF79BFF3220FEF78EFE0D
:1017C000002210212046FEF793FF0520FEF786FE3B
:1017D00048F61E017E4800F05BFA0520FEF77EFE0B
:1017E000012210212046FEF783FF3220FEF776FE0D
:1017F000002210212046FEF77BFF0520FEF76EFE3B
:1018000048F685152946724800F042FA0520FEF791
:1018100065FE012210212046FEF76AFF3220FEF706
:101820005DFE002210212046FEF762FF0520FEF734
:1018300055FE2946664800F02BFA0520FEF74EFEBD
:10184000012210212046FEF753FF3220FEF746FE0C
:10185000002210212046FEF74BFF0520FEF73EFE3A
:1018600048F62B215A4800F013FA0520FEF736FE01
:10187000012210212046FEF73BFF3220FEF72EFE0C
:10188000002210212046FEF733FF0520FEF726FE3A
:1018900048F686314E4800F0FBF90520FEF71EFEA3
:1018A000012210212046FEF723FF3220FEF716FE0C
:1018B000002210212046FEF71BFF0520FEF70EFE3A
:1018C00048F61041424800F0E3F90520FEF706FE15
:1018D000012210212046FEF70BFF3220FEF7FEFD0D
:1018E000002210212046FEF703FF0520FEF7F6FD3B
:1018F00048F6FC51364800F0CBF90520FEF7EEFD26
:10190000012210212046FEF7F3FE3220FEF7E6FD0D
:10191000002210212046FEF7EBFE0520FEF7DEFD3B
:1019200048F6FF612A4800F0B3F90520FEF7D6FD1E
:10193000012210212046FEF7DBFE3220FEF7CEFD0D
:10194000002210212046FEF7D3FE0520FEF7C6FD3B
:1019500048F6FF711E4800F09BF90520FEF7BEFD1A
:10196000012210212046FEF7C3FE3220FEF7B6FD0D
:10197000002210212046FEF7BBFE0520FEF7AEFD3B
:1019800049F2FF01124800F083F90520FEF7A6FD99
:10199000012210212046FEF7ABFE3220FEF79EFD0D
:1019A000002210212046FEF7A3FE0520FEF796FD3B
:1019B00049F2FF11064800F06BF90520FEF78EFD95
:1019C000012210212046FEF793FE05E00030014081
:1019D0001400002000000240C820FEF77FFD002216
:1019E00010212046FEF784FE0520FEF777FD4FF418
:1019F000AA41804800F04CF90520FEF76FFD012256
:101A000010212046FEF774FE3220FEF767FD00220B
:101A100010212046FEF76CFE0520FEF75FFD4FF615
:101A2000F071744800F034F90520FEF757FD0122EB
:101A300010212046FEF75CFE3220FEF74FFD00220B
:101A400010212046FEF754FE0520FEF747FD4FF615
:101A5000F171684800F01CF90520FEF73FFD0122F6
:101A600010212046FEF744FE3220FEF737FD00220B
:101A700010212046FEF73CFE0520FEF72FFD4FF615
:101A8000F2715C4800F004F90520FEF727FD012201
:101A900010212046FEF72CFE3220FEF71FFD00220B
:101AA00010212046FEF724FE0520FEF717FD4FF615
:101AB000F371504800F0ECF80520FEF70FFD01220D
:101AC00010212046FEF714FE3220FEF707FD00220B
:101AD00010212046FEF70CFE0520FEF7FFFC4FF616
:101AE000F471444800F0D4F80520FEF7F7FC012219
:101AF00010212046FEF7FCFD3220FEF7EFFC00220D
:101B000010212046FEF7F4FD0520FEF7E7FC4FF616
:101B1000F571384800F0BCF80520FEF7DFFC012223
:101B200010212046FEF7E4FD3220FEF7D7FC00220C
:101B300010212046FEF7DCFD0520FEF7CFFC4FF616
:101B4000F6712C4800F0A4F80520FEF7C7FC01222E
:101B500010212046FEF7CCFD3220FEF7BFFC00220C
:101B600010212046FEF7C4FD0520FEF7B7FC4FF616
:101B7000F771204800F08CF80520FEF7AFFC012239
:101B800010212046FEF7B4FD3220FEF7A7FC00220C
:101B900010212046FEF7ACFD0520FEF79FFC4FF616
:101BA000F871144800F074F80520FEF797FC012244
:101BB00010212046FEF79CFD3220FEF78FFC00220C
:101BC00010212046FEF794FD0520FEF787FC4FF616
:101BD000F971084800F05CF80520FEF77FFC01224F
:101BE00010212046FEF784FDBDE870403220FEF74C
:101BF00075BC0000140000200C4810B50A490160B3
:101C00004FF4E1314160002181600C22C160C0E9E4
:101C100004128161C161FFF77FFB002803D0BDE89A
:101C20001040FEF7FEBB10BD001001406C0000200C
:101C3000FEE7FEE77047000038B504461248134B34
:101C40000068B0FBF3F04FF47A735843009060687B
:101C5000B0F5827F0DD10B460092002280212046F4
:101C600000F024F870B1606D40F020006065032042
:101C700038BD009830B1401E009020688068C04395
:101C80000006F6D5002038BD1000002000366E0199
:101C900003B583B04FF47A710091022301AA04A91D
:101CA000FFF7FEF8BDF8040005B000BD2DE9F843CC
:101CB0001E46914688460446089DFEF71FFD401BC0
:101CC000351AFEF71BFD074625480068C0F3CB30E8
:101CD000684338E0701C37D0FEF710FDC01BA842E7
:101CE00003D215B1009860B32CE02068416821F060
:101CF000E00141606068B0F5827F0BD1A068B0F56B
:101D0000004F02D0B0F5806F04D12068016821F047
:101D100040010160A06AB0F5005F09D12068016848
:101D200021F4005101602068016841F40051016014
:101D3000012084F85100002084F850000320BDE801
:101D4000F8830025401E00902068816838EA010071
:101D500004D000214945BDD10020F0E70121F9E779
:101D6000100000207047FEF7CFBC000030B593B0E4
:101D700030216846FEF7EFFA14210CA8FEF7EBFAC3
:101D80001D480025016841F080510160006800F0A5
:101D9000805011901948016841F480410160006849
:101DA000022400F480401190012000900004019072
:101DB0008001CDE9064008AA0420A82182E813008A
:101DC0000B906846FEF724FE08B172B6FEE70CA938
:101DD0000F2081E831004FF4A0500F904FF4805055
:101DE000109005210CA8FEF729FD002801D072B63D
:101DF000FEE713B030BD00004038024000700040E4
:101E00000248016841F470010160704788ED00E00C
:101E100010B5806B0021C185C184FFF747F910BD63
:101E200001680C3151E8002F22F4907241E8002340
:101E3000002BF5D10168143151E8002F22F0010286
:101E400041E80023002BF5D1016B012909D101687C
:101E50000C3151E8002F22F0100241E80023002B42
:101E6000F5D1202180F83E1000210163704708B5AC
:101E700090F83E10222901D0022008BD82684FF45C
:101E800080539A4201D1016921B1816A9A421BD0E3
:101E90004AB10AE00268816A5268C2F308020A8005
:101EA000816A891C08E0026972B10268526802F016
:101EB0007F020A70816A491C8162C18D491E090432
:101EC000090CC18503D019E002685268F1E7016886
:101ED000CA6822F02002CA600168CA6822F48072CF
:101EE000CA6001684A6922F001024A61202180F833
:101EF0003E10016B012903D0FFF7DEFA002008BD78
:101F00000021016301680C3151E8002F22F010021A
:101F100041E80023002BF5D101680A68D20602D5FA
:101F20000A6849680091818DFFF7BFF8E6E7000075
:101F300070B5044600680169E26821F4405111431C
:101F400001612169A068E26908436169114308439E
:101F50002168CA6849F20C639A430243CA60206848
:101F60004169A26921F440711143416131492068FE
:101F7000884202D03049884202D1FEF709FD01E0D3
:101F8000FEF7F6FCE2690023192164253226B2F53A
:101F9000004F626828D0A0FB0101930F9200FEF76A
:101FA00063F90146B0FBF5F06FF01802504301EB06
:101FB000800006EB0010B0FBF5F000F0F002B1FB82
:101FC000F5F002EB0012B1FBF5F06FF01803584387
:101FD00001EB800006EB0010B0FBF5F000F00F0005
:101FE00021681044886070BDA0FB010192185B411C
:101FF000FEF73AF90146B0FBF5F00201B1FBF5F04E
:102000006FF01803584301EB800006EBC000B0FBF3
:10201000F5F000F0F80002EB4002B1FBF5F0584398
:1020200001EB800006EBC000B0FBF5F000F007000C
:10203000D6E7000000100140001401402DE9F041F6
:10204000984617460E460446069D27E0681C25D094
:102050002DB1FEF753FBA0EB0800A8421ED9206863
:102060000C3050E8001F21F4D07140E80012002A23
:10207000F5D12068143050E8001F21F0010140E83C
:102080000012002AF5D1202084F83D0084F83E009B
:10209000002084F83C000320BDE8F081206800683F
:1020A00036EA000004D00020B842CFD00020F3E789
:1020B0000120F9E70148FEF7FBBF00006C0000209B
:1020C000FEE70907090E002804DB00F1E02080F894
:1020D0000014704700F00F0000F1E02080F8141D9C
:1020E00070470000B4B0002032905448006833902C
:1020F000FEF712FBFFF73AFEFFF73CFAFFF77CFD15
:102100004F480068FFF764FA4E4D6C464FF47A76FC
:10211000AF154FF4FA780A23012232A94A48FFF793
:102120006BF90028F7D09DF8C800332818D1002299
:1021300010212846FEF7DCFA00214448FFF7A8FDED
:10214000ADF80000012210212846FEF7D1FA3346EF
:10215000022269463C48FFF7B1F90A20FEF7BEF9B2
:102160009DF8C800012819D1002210212846FEF749
:10217000BFFA39463548FFF78BFDADF80200012262
:1021800010212846FEF7B4FA33460222A11C2E483D
:10219000FFF794F940F6B830FEF7A0F99DF8C800B3
:1021A000022805D133460222211D2748FFF786F970
:1021B0009DF8C800032805D13346022233A92248DE
:1021C000FFF77CF99DF8C800042819D100221021DE
:1021D0002846FEF78DFA4FF400711C48FFF758FDB2
:1021E000ADF8040033460222211D1748FFF766F9B7
:1021F000012210212846FEF77BFA4046FEF76EF9D1
:102200009DF8C800052886D1002210212846FEF737
:102210006FFA39460D48FFF73BFDADF8060033462F
:102220000222A11D0848FFF749F901221021284682
:10223000FEF75EFA4046FEF751F96CE75C220008B3
:1022400000000020000002406C000020140000206C
:102250004FF04070E1EE100A7047000033335656DD
:102260000000000000000000010203040607080946
:102270000000000001020304982200080000002072
:1022800014000000C4010008AC2200081400002063
:10229000FC060000E0010008000000000100000052
:0C22A00010000000000000000024F4000A
:040000050800018965
:00000001FF
